:4000000000800020110000002D0400002D04000008B5044B1A6803F53F5302331A6000F025FA00BFFA46004010B5054C237833B9044B13B10448AFF300800123237010BDF6
:400040004881FF1F0000000064110000084B10B51BB108490848AFF300800848036803B910BD074B002BFBD0BDE81040184700BF000000004C81FF1F64110000C880FF1F18
:400080000000000008B562B600F05EF80E4800F011FB00F0ADFA0D4800F0E0FA0C4B1B78012BFBD100F0A0F80A4800F0D7FA0A4C0A4B1B780A4A4FF48071204600F020FC68
:4000C000204600F0CBFAE9E701010000681100007182FF1F781100006481FF1F7082FF1F8C11000008B5612802D0622805D008BD0321372000F044F808BD00F033F808BDC8
:4001000038B500F089FA044609E000F07FFA054600F08EFA2846FFF7E5FF013CE4B2002CF3D138BD08B5054800F098FA00F040FB034B18700122034B1A7008BDA8110000FA
:400140007082FF1F7182FF1F08B50022034B1A70034800F0F1FA00F073FB08BD7182FF1F2501000008B5632000F01CFB012000F0BDFA012000F0D6F9002000F0B7FA08BDB2
:4001800038B505460C46612000F00CFB012000F0ADFA012000F0C6F9002000F0A7FA41F2883000F0BFF9284600F0FCFA012000F09DFA012000F0B6F9002000F097FA41F2E1
:4001C000883000F0AFF9204600F0ECFA012000F08DFA012000F0A6F9002000F087FA41F2883000F09FF938BD0022014B1A7070477182FF1FFEE700BFF0B40022174611E0BA
:4002000050F82760F3B226F0FF0608E001EB420511F812406D78A5550132013BDBB2002BF4D10137182FEBD9F0BC7047064B1B78DBB203F00701054A11701B090132137032
:400240004422034B1A707047CF0100496E5800407658004008B50A46002100F048FB08BD38B50B22264B1A801823264A1370332102321180023213700222234B1A700822CD
:400280004FF040231A70032103F5007319701F4B1B78DBB21E490B701E4B1A8041F25122023B1A80002419250CE01B4B1B7803F0010343EA440404F003044FF4F07000F0CD
:4002C000CFFA013D0DB1032CEFD115B90320FFF791FF124B4FF480721A8007221A7000220F490A704820023108701A700222033B1A700C4A137843F00303137038BD00BF26
:4003000080400040824000400043004008010049A146004022420040254200400440004006400040A243004008B500F0D5FA08BD38B572B62C4A137843F00403137000240D
:400340000CE02A4D630019194A0011462A44084691882858FFF77EFF0134E4B2072CF0D923494FF09040FFF747FF224A224B1A60224A137843F0020313701032137843F099
:40038000020313701E4C237843F040032370A2F58632513A137843F0100313700A2219491948FFF7C1FF082218491948FFF7BCFF082218491848FFF7B7FF184A137843F080
:4003C00008031370164D61232B70FFF749FF81232B700122134B1A70FFF728FF0E2221461148FFF7A1FF38BDE8460040B81100006400004804000464D808014003500140C9
:40040000A043004080050048C05100408C050048125100409405004822510040224300400048004004000840B043004008B500F027FA03680C2B00D1FEE7FEE708B5094BA3
:400440001A681044084BC31A802B02DC054B186005E000F015FA0C2303604FF0FF32104608BD00BFCC80FF1F7882FF1F08B5104E104D16E029686B68AC68002204E051F8AE
:40048000040B43F8040B0432A242F8D1E868002203E0002143F8041B04328242F9D11035013E002EE6D100F0F1F9FFF7EBFDFEE7010000004412000008B5104A104B1A6023
:4004C000104A136843F40073136000230AE0032B03D80D4A52F8231000E00C490C4A42F8231001332F2BF2D90A4B1A780A4B1A70074A0A4B1A60FFF71BFF08BD0004FA0511
:400500000CED00E014ED00E0000000002D0400000080FF1FBC760040C080FF1F08ED00E001BE704708B5034B1B7A00FB03F000F097F908BDD080FF1F70B504460E46074BC1
:400540001D681F2802D90020FFF7EAFF04F01F04103455F8240045F8246070BD08ED00E038B504460D46072902D90020FFF7D8FF1F2C02D90020FFF7D3FF04F01F0000F1B2
:40058000604000F564406D01EDB2057038BD00BF7222084B1A70202203331A700622623B1A70472210331A70002203F5A9731A70704700BF8864004010B500F059F9044621
:4005C0000A4A137843F0200313700332137843F01003137002F58072137843F01003137000F076F8204600F047F910BD9864004008B5054B1B7823B9FFF7CAFF0122024BD5
:400600001A70FFF7D9FF08BD6482FF1F014B1878704700BF48650040044B1B7813F0200F01D0012070470020704700BF6B640040024B1B780BB1024B187070476482FF1FCC
:400640004A640040034B1B7813F0040FFAD1024B187070476B6500404A64004038B5074B1B782BB938BDFFF7EDFF0134A4B201E005460024285D0028F5D138BD6482FF1F6C
:40068000014B1B685864704708ED00E04001C0B2014B1870704700BF01E400E00222014B1A60704700E100E00222014B1A60704780E100E010B50446FFF7F6FF2046FFF7C7
:4006C000DFFF0720FFF7E2FFFFF7E8FF10BD00BF054A137843F0020313701032137843F002031370704700BFA2430040044A137803F07F03C001C0B218431070704700BF2B
:4007000020510040014B1B681864704708ED00E04001C0B2014B1870704700BF00E400E00122014B1A60704700E100E00122014B1A60704780E100E010B50446FFF7F6FF34
:400740002046FFF7DFFF0220FFF7E2FFFFF7E8FF10BD00BF08B500F08BF80A4A137843F020031370FF32137843F0100313700132137843F01003137000F07EF80422024B10
:400780001A6008BD9964004000E100E0014B1878704700BF68650040014B1878704700BF69650040014B1870704700BF0A650040014B1878704700BF5A65004008B501E055
:4007C0000A4B1B780A4B1B7813F0080FF8D100F04FF8084B1A7842F003021A701A7802F0FC021A7000F048F808BD00BF5A650040696500409A65004010B507240C4B1C708A
:4008000004220C4B1A600C490220FFF795FE21460220FFF7A5FEFFF7D1FFFFF7B7FFFFF7BBFF0022054B1A70082201331A7010BD8964004080E100E05D08000088650040CC
:4008400008B5054B1B7823B9FFF7D6FF0122024B1A70FFF77FFF08BD6682FF1F704700BF0230800803D000BF01380046FCD17047EFF3108072B6704780F31088704700BF61
:40088000014B1868704700BF4081FF1F0E4B70B51E460E4C0025E41AA410A54204D056F8253098470135F8E700F0BAFC084B094C1E46E41AA4100025A54204D056F82530CB
:4008C00098470135F8E770BD2C1200002C1200002C1200003412000010B5431E0A44914204D011F8014B03F8014FF8E710BD03460244934202D003F8011BFAE7704700008B
:400900000CB430B5164B0C1E9DB01D6804DA8B232B604FF0FF301EE04FF40273ADF814300CBF234604F1FF33049307934FF6FF7302900690ADF81630209A21AB02A928469C
:40094000019300F069F8431CBCBF8B232B6014B1029B00221A701DB0BDE8304002B070474081FF1F2DE9F0478E6882469E420C46914698463ED88A8912F4906F3AD0256890
:40098000096902236F1A656905EB450595FBF3F57B1C43449D4238BF1D4653050FD5294600F040FB064698B13A462169FFF794FFA38923F4906343F08003A38113E02A46CF
:4009C00000F08EFB064670B92169504600F0DEFA0C23CAF80030A3894FF0FF3043F04003A381BDE8F08726613E44266046466561ED1BA560464528BF464649463246206835
:400A000000F0A8FAA36800209B1BA36023681E442660BDE8F08700002DE9F04F9DB003938B8980461C060D4616460DD50B695BB9402100F0F7FA2860286118B90C23C8F851
:400A40000030CDE040236B610023099320238DF82930DFF89CB130238DF82A3037463C4614F8013B1BB9B7EB060910D003E0252BF9D02746F3E74B46324629464046FFF751
:400A800071FF013000F0A780099B4B4409933B78002B00F0A08000234FF0FF3204930793059206938DF853301A930126052221784E4800F041FA671C049B38B14B4A3C464E
:400AC000801A06FA00F018430490EFE7D90644BF20228DF853201A0744BF2B228DF8532022782A2A03D0079A00210A200BE0039A111D12680391002A10DA524243F00200D4
:400B0000079204900BE027463B780134303B092B03D800FB02320121F5E701B107923B782E2B1ED17B782A2B0AD1039B02371A1D1B680392002BB8BF4FF0FF33059310E077
:400B4000002319460593781C0A2407463A780130303A092A03D804FB01210123F5E703B1059103223978224800F0E6F940B14023CBEB000003FA00F0049B013718430490BA
:400B8000397806221B487E1C8DF8281000F0D4F988B1194B33B9039B073323F007030833039314E003AB00932A46144B04A94046AFF3008007E003AB00932A460F4B04A99E
:400BC000404600F093F8B0F1FF3F824603D0099B5344099342E7AB895B0601D4099801E04FF0FF301DB0BDE8F08F00BFEA110000F0110000F4110000000000006509000001
:400C00002DE9F04791461F460A698B6806469342B8BF1346C9F8003091F843200C46DDF8208012B10133C9F800302368990642BFD9F800300233C9F80030256815F0060559
:400C400010D104F1190A07E00123524639463046C04701301AD00135E368D9F800209B1A9D42F1DB94F843302268003318BF012392060FD5E118302081F843005A1C94F8B5
:400C800045102244023382F8431003E04FF0FF30BDE8F08704F1430239463046C0470130F4D02268D9F80050E36802F00602042A08BF5D1B2269A3680CBF25EAE575002593
:400CC0009342C4BF9B1AED184FF000091A344D4509D00123224639463046C0470130D5D009F10109F3E70020BDE8F0872DE9F04317460A7E85B06E2A984606460C460C9B4B
:400D000001F1430E00F0AE8011D8632A22D009D8002A00F0BB80582A40F0CA8081F84520834955E0642A1ED0692A1CD0C0E0732A00F0B08009D86F2A2ED0702A40F0B88007
:400D40000A6842F020020A603EE0752A24D0782A3AD0ADE01A6801F14205111D1960136884F84230A8E021681A6811F0800F02D0111D196008E011F0400F02F10401196049
:400D800002D0B2F9003000E01368002B3CDA2D225B4284F8432037E021681A6811F0800F02D0111D196007E011F0400F02F10401196001D0138800E01368227E5C496F2AA7
:400DC00014BF0A2208221BE078225A4984F845202268186812F0800F00F104051D6003D1550601D5038800E00368D00744BF42F0200222601BB9226822F0200222601022CE
:400E0000002084F8430001E049490A226568002DA56008DB206820F0040020602BB9002D7DD175460CE0002B79D07546B3FBF2F002FB1033CB5C05F8013D03460028F5D198
:400E4000082A0BD12368DA0708D5236962689A42DEBF302305F8013C05F1FF35C5EB0E0323612EE008681A6810F0800F496903D0101D1860136808E010F0400F02F10400EE
:400E80001860136801D0198000E0196000232361754616E01A68111D1960156800216268284600F049F808B1401B6060636804E004F1420584F8422001232361002384F810
:400EC0004330CDF800803B4603AA21463046FFF797FE013002D14FF0FF3026E023692A4639463046C0470130F5D023689B0710D5002504F1190907E001234A463946304660
:400F0000C0470130E7D00135E368039A9B1A9D42F2DBE068039B9842B8BF184605E00B7804F1420584F842308AE705B0BDE8F083FB1100000C12000010B5C9B2024490425C
:400F4000034605D01C7801308C42F8D1184610BD002010BD884210B501EB020301D8421E0BE09842FBD28118D21AD34204D013F8014D01F8014DF8E710BD994204D011F822
:400F8000014B02F8014FF8E710BD000038B50546002944D051F8043C0C1F002BB8BFE41800F0D4F81E4A1368114613B96360146030E0A3420DD92268A018834201BF18680D
:400FC0005B681218226063600C6023E0A24203D813465A68002AF9D118681918A1420BD12168014458188242196013D110685268014419605A600DE002D90C232B6009E09E
:4010000021686018824201BF106852680918216062605C602846BDE8384000F098B838BD6C82FF1F70B5CD1C25F0030508350C2D38BF0C25002D064601DBA94202D90C23FA
:40104000336046E000F082F8234B1C681A462146A1B10B685B1B0ED40B2B03D90B60CC18CD501EE08C420BBF63684B681360636018BF0C4615E00C464968E9E7174C2368D0
:401080001BB9304600F052F820602946304600F04DF8431C18D0C41C24F00304A0420DD12560304600F053F804F10B00231D20F00700C31A0ED05A42E25070BD211A30461C
:4010C00000F034F80130EBD10C233360304600F03EF8002070BD00BF6C82FF1F6882FF1FF8B5074615460E4621B91146BDE8F840FFF798BF1AB9FFF749FF2846F8BD00F041
:4011000027F885420ED929463846FFF78BFF044650B131462A46FFF7DFFB31463846FFF735FF01E03046F8BD2046F8BD38B5064C0023054608462360FFF780F9431C02D10E
:40114000236803B12B6038BD7482FF1F7047704751F8040C0028BEBF091851F8043CC018043870470000000050726F6772616D205374617274657400536F6D657468696E95
:401180006720726563696576656400004461746120726563697665642066726F6D2070693A2025630A0D0000494E2052582048616E646C65720000000051004010003051BE
:4011C00000404000F0510040100000000140001000140140000800400140000A004C014000020050014020004300232D302B2000686C4C0065666745464700303132333439
:401200003536373839414243444546003031323334353637383961626364656600000000F8B500BFF8BC08BC9E4670474D000000B9040000F8B500BFF8BC08BC9E4670479C
:401240002900000058120000C880FF1F800000003001000000000000000000007882FF1F0000E02EC05D00001800000000366E0100000000000000000000000000000000C4
:4012800000000000000000000000000000000000E8110000000000000000000000000000000000000000000000000000000000000000000000000000000000000000000035
:4012C00000000000000000000000000000000000E080FF1F000000000000000000000000000000000000000000000000000000000000000000000000000000000000000070
:4013000000000000000000000000000000000000000000000000000000000000000000000000000000000000000000000000000000000000000000000000000000000000AD
:40134000000000000000000000000000000000000000000000000000000000000000000000000000000000000000000000000000000000000000000000000000000000006D
:40138000000000000000000000000000000000000000000000000000000000000000000000000000000000000000000000000000000000000000000000000000000000002D
:4013C00000000000000000000000000000000000000000000000000000000000000000000000000000000000000000000000000000000000000000000000000000000000ED
:020000040003F7
:0200000480007A
:40000000035200400364004003650040010501404E0801404C090140550A0140350B0140011701404E1801404D190140461A0140501B0140064001400241014004420140C1
:400040000143014007450140044601400647014002480140024C0140074D01400450014001510140104061806440887289078B38884789788B0FE208000C01100203040CD6
:4000800006030704080409180C080D270F181003113F120C151C172119081A021D3C1F022723280C29042C0F3001311F320E373838023A083B0256025712580459045B0447
:4000C0005C115D105F0180108430860C8C098E10902C921194149A039E20A620A81CAA22B41FB620BE40C005C604C9FFCA07CBFFCC40CD20CEF0CF05D008D602D72CD80452
:40010000DA04DB24DC01DD81DE08DF01E040E1A8E240E320000402420524074109800A880B200C100F40121013101601172019801A081D0C1F01268027402C102D10340157
:40014000352437403D083E223F404801501052505E08610268AE69046C016E046F1C752076227721788079208C0490049108928093719420951096019702980B9A019C30CE
:400180009D209ED09F61A001A180A206A508A730AC08B480B710C0FDC25FC4C6CA60CCF0CEF0D208D640D801DE0CEE0804030571061C070609800B130E280F0C10031234C5
:4001C000152C17431C031E0421712220230E2615282A2A142F08303831C0330F340F373039823A223B083F404023410145E046BC470E481E49FF4AFF4BFF4EF04F44500C6F
:400200005608580459045A045B045C115D015F0166C06A406B02801C8263840C88049073920C941F96609A639C63A008A442A701A821AC7FAF01B00FB301B410B660BA02BC
:40024000BB02BE10BF04D418D604D804D904DB04DC11DD10DF010004020205200760080409840A800C100D080E410F40125013101421151016011781180C19011A801E4AC4
:400280002042220623102504278029012A422F21320438683A20400442224B015184531058805E0260026404668067808740C075C2F9C4FECA59CC02CE0ED00ED688D8B88E
:4002C000E620000203080401070109010F0217011A011B041F08240228022B04310132023306340137083E103F45405341014204440245C046E0480A49FF4AFF4BFF4C627F
:400300004DA04EF04F41500C5441580459045A045B045C015D015F016640670269106A306B106D106E106F1280408401860887028901921E9621A001A202A401A604AC10CA
:40034000AE01B020B101B41FB502B640BE50BF01D420D604D804D904DB04DC08DF010008010204060620080809400A410F0410A2171419501A401D081F1020042102244043
:4003800027212D30346036AC39203B143D803E203F064280430144504508460147204F42572059015C405E2861446212672078808A029002912C920C934194089510960144
:4003C000988A99809A019B149C309E80A0AEA180A280A308A506A730A880AD10C03CC24CC46DCA20CC70CEF6D0F0D210D671D84FDE08E620EA02EE010204050113011404B7
:40040000150118021D0120012401270128012E0132023404360137013E543F40400141044210440645FE46CB470D481F49FF4AFF4BFF4C224EF04F0C508C511056085804B2
:4004400059045A245B045D085F01684069016AC06B0185378D018F0690049524971199129B299E05A402A937B001B204B308B402B530B707BE14D401D804D904DB04DC10C3
:40048000DD10DF010380042007040A080B100E800F0210AA150818091A121D081E8822402544262027082A042B102F08308A3520370839043D803E04400141024508461071
:4004C00049134A1050105204538058105A805B045C105D805E085F01620863067880801081808210841086018920910C920C931194089704988099909D239E10A0AAA18229
:40050000A308A544A638A710A802A904C008C296C42FCA22CC6BCE52D009D204D6FED80EDE08E00130203202358088208A02CC709D80A42085809D80A420E210A42004107B
:4005400008010E205E02C001C20CD60190109801A210A6018E0190109801A601AE10E0088820A420A810AC011010710281028810C408DC01E20400030C0310031C03003F46
:40058000800040808000800000000000000B0B000000000038C2C20040000000000000000000000000000000000000000000000000000000000000000000000000000000E9
:4005C00000000000000000000000000000000000000000000000000000000000000000000000000000000000000000000000000000000000000000000000000000000000FB
:4006000000000000000000000000000000000000000000000000000000000000000000000000000000000000000000000000000000000000000000000000000000000000BA
:40064000000000000000000000000000000000000000000000000000000000000000000000000000000000000000000000000000000000000000000000000000000000007A
:40068000000000000000000000000000000000000000000000000000000000000000000000000000000000000000000000000000000000000000000000000000000000003A
:0200000490006A
:0400000000004005B7
:0200000490105A
:04000000BC90ACAF55
:0200000490303A
:02000000444872
:0200000490402A
:4000000000000000000000000000000000000000000000000000000000000000000000000000000000000000000000000000000000000000000000000000000000000000C0
:400040000000000000000000000000000000000000000000000000000000000000000000000000000000000000000000000000000000000000000000000000000000000080
:400080000000000000000000000000000000000000000000000000000000000000000000000000000000000000000000000000000000000000000000000000000000000040
:4000C0000000000000000000000000000000000000000000000000000000000000000000000000000000000000000000000000000000000000000000000000000000000000
:0200000490501A
:0C00000000012E16106900012E1E54B1E4
:00000001FF