:4000000000800020110000002D0E00002D0E000008B5044B1A6803F53F5302331A6000F00DFF00BFFA46004010B5054C237833B9044B13B10448AFF300800123237010BDF5
:400040004081FF1F00000000102D0000084B10B51BB108490848AFF300800848036803B910BD074B002BFBD0BDE81040184700BF000000004481FF1F102D0000C880FF1F98
:4000800000000000054B1B78032B05D8044B53F82020024B5A601870704700BF5C81FF1F142D000008B5334B1B78012B58D1324B1B78463B042B50D8DFE803F00313223109
:4000C00041002E4801F048FC2D4B1B78022B44D12B48D0F8AC306FF004022A49083098473BE0294801F038FC254B1B78022B34D12348D0F8AC3005222249083098472CE017
:40010000224801F029FC1E4B1B78022B25D11C48D0F8AC3005221E49083098471DE01D4801F01AFC164B1B78022B16D11448D0F8AC306FF004021649083098470DE01648DC
:4001400001F00AFC0E4B1B78022B06D10C48D0F8AC3001221149083098470022054B1A700748D0F8A83008309847192000F0E4FE08BD00BF8D83FF1F8C83FF1F282D0000CB
:400180005C81FF1FA9070000342D0000402D0000710900004C2D0000582D0000A101000008B530B9074801F0D7FB002001F0BCFF08BD012805D1044801F0CEFB012001F04C
:4001C000B3FF08BD642D00007C2D000008B5034801F0C2FB01F0F4FA08BD00BF942D000008B500F06FFA08BD08B501F091FCB0FA80F0400901F080FC08BD00BF08B5FFF757
:40020000F3FF01F0D1FB41F2883001F0E1FB41F2883001F0E9FB01F011FC1021002001F01FFA08BD08B5FFF7DFFF01F0BDFB4FF47A7001F0CDFB4FF47A7001F0D5FB01F07A
:40024000FDFB1021002001F00BFA08BD08B501F071FB41380B287BD8DFE800F0060D141B222936424E5B67730020FFF70BFF394801F072FB08BD0220FFF704FF364801F0D4
:400280006BFB08BD0120FFF7FDFE344801F064FB08BD0420FFF7F6FE314801F05DFB08BD0320FFF7EFFE2F4801F056FB08BD2E4B1B78022B4CD12C48D0F8AC306FF0040284
:4002C0002A490830984708BD274B1B78022B3FD12548D0F8AC30052224490830984708BD214B1B78022B33D11F48D0F8AC3005221F490830984708BD1B4B1B78022B27D128
:400300001948D0F8AC306FF0040219490830984708BD154B1B78022B1AD11348D0F8AC30012214490830984708BD0F4B1B78022B0ED10D48D0F8AC3000220E49083098472D
:4003400008BD0D4801F008FB14210A2000F0A4FB08BD00BFBC2D0000DC2D0000FC2D0000202E0000402E00005C81FF1FA907000071090000A10100006C2E000008B501F017
:4003800013FB01F01FFB08BD08B5002001F07CFA002001F085FA01F069FA08BD08B501F021FE01F0B3FE08BDD0B501F029FE642000F0D8FD002001F02BFEC8B301F03AFE7A
:4003C00084B240F6F9739C4227D804FB04F002F04FF919A3D3E9002302F0B0F906460F46204602F045F916A3D3E9002302F0A6F902460B463046394601F0EEFF12A3D3E9A8
:40040000002301F0E9FF02F0D3FB84B201F0AEFE60B1002001F09EFE08E001F0A7FE20B9012001F097FE002400E000242046D0BD0020D0BDAFF3008099107349D576333F65
:400440006F1283C0CAA104C0000000000097B64008B562B6164801F019FB01F05DFA154801F07AFA144801F039FB00F009FA00F0EDFA124800F0FCF8FFF786FFFFF78EFF33
:4004800000F0F8FAFFF790FF002806DA0C4801F063FA0420FFF7F6FD05E00A4801F05CFA0020FFF7EFFD084B5B689847FBE700BF4D0200009C2E00007D0300006481FF1F6C
:4004C000B42E0000D42E00005C81FF1F08B501F085FE1F4B1870A0F14103DBB2042B2AD8413804282AD8DFE800F0030A11181F000020FFF7C7FD174801F02EFA1EE0022042
:40050000FFF7C0FD144801F027FA17E00120FFF7B9FD124801F020FA10E00420FFF7B2FD0F4801F019FA09E00320FFF7ABFD0D4801F012FA02E001220B4B1A700A2000F062
:40054000FBFC0A4801F008FA0A2000F0F5FC08BD8C83FF1FBC2D0000DC2D0000FC2D0000202E0000402E00008D83FF1F302F0000B0F9B430B3F1FF3F01D1012070470020A5
:40058000704700BFFF2380F8B43080F8B530704708B590F9B530013390F8B61093FBF1F201FB123390F9B420934204D1034801F0D3F9012008BD002008BD00BF442F0000C8
:4005C00070B504460E461546FFF7E2FF10BB2046FFF7CEFF50B1104801F0BEF9002384F8B43084F8B5302660656070BD0B4801F0B3F994F9B530013394F8B61093FBF1F25C
:4006000001FB12335BB284F8B53044F8336004EBC304656070BD00BF542F0000782F000038B5044690F9B450FFF7A2FFE8B90F4801F092F904EBC50254F8353050689847DE
:4006400094F9B43094F9B520934205D1FF2384F8B43084F8B53038BD013394F8B61093FBF1F201FB123384F8B43038BD8C2F000010B504460D4801F06FF9142384F8B63086
:40068000FF2384F8B43084F8B530094BC4F8A830084BC4F8AC30084BC4F8B030074BC4F8A430074BC4F8A03010BD00BFA02F0000910500007105000085050000C10500001E
:4006C0002106000008B501F029FA012001F02EFA0028FAD001F03CFA08BD00BF08B501F057FA0122014B1A7008BD00BF8E83FF1F08B5124B1B7833B9002001F07DFB00203E
:4007000001F086FB08BD012B06D1012001F074FB002001F07DFB08BD022B06D1012001F06BFB012001F074FB08BD032B05D1002001F062FB012001F06BFB08BD8582FF1F1A
:4007400008B50A4B1B78032B03D10022074B1A7002E00133054A1370FFF7CAFF044A136801331360034801F0F7F808BD8582FF1F8883FF1FB82F000008B5084B1B781BB921
:400780000322064B1A7002E0013B044A1370FFF7AFFF034A1368013B136008BD8582FF1F8883FF1F0000000038B501F061FF20A3D3E9002302F0ECF802F01AFA01F06AFF06
:4007C00001F0B4FD02F0CCF9051E0DDC10E001F039FA194B1B78002BFBD0FFF7B1FF0022154B1A70013400E00024AC42EFDB38BD002D1BDA114B1B685B429D4203DC104847
:4008000001F0AAF838BD9D420DDC38BD01F01AFA094B1B78002BFBD0FFF7AEFF0022064B1A70013C00E00024AC42EFDC38BD00BFCDCCCCCCCCCCFC3F8E83FF1F8883FF1FE7
:40084000D42F000008B50AE001F0FCF9094B1B78002BFBD0FFF790FF0022064B1A7001F0E3FA0128F0D00022034B1A60034801F073F808BD8E83FF1F8883FF1FEC2F000009
:4008800008B5002001F0B8FA002001F0C1FA044801F0A4FA0022034B1A70FFF7D3FF08BDDD0600008E83FF1F08B501F015FA0122014B1A7008BD00BF9483FF1F08B5124BEF
:4008C0001B7833B9002001F0B7FA002001F0C0FA08BD012B06D1012001F0AEFA002001F0B7FA08BD022B06D1012001F0A5FA012001F0AEFA08BD032B05D1002001F09CFA04
:40090000012001F0A5FA08BD8482FF1F08B50A4B1B78032B03D10022074B1A7002E00133054A1370FFF7CAFF044A136801331360034801F011F808BD8482FF1F9083FF1F02
:40094000B82F000008B5084B1B781BB90322064B1A7002E0013B044A1370FFF7AFFF034A1368013B136008BD8482FF1F9083FF1F38B501F07DFE20A3D3E9002302F008F808
:4009800002F036F901F086FE01F0D0FC02F0E8F8051E14DA0FE001F0F9F9194800F0DCFF184B1B78002BFBD0FFF7CCFF0022154B1A70013C00E00024AC42ECDC38BD002D31
:4009C00018DD114B1B685B429D4210DB0F4800F0C3FF38BD01F0DAF90A4B1B78002BFBD0FFF794FF0022074B1A70013400E00024AC42EFDB38BD00BFCDCCCCCCCCCCEC3FFC
:400A0000FC2F00009483FF1F9083FF1FD42F000008B50AE001F0BAF9094B1B78002BFBD0FFF774FF0022064B1A7001F01DFA0128F0D00022034B1A60034800F08DFF08BD2D
:400A40009483FF1F9083FF1FEC2F000008B5002001F0F2F9002001F0FBF9044801F01AF90022034B1A70FFF7D3FF08BDA90800009483FF1F10B50024054B1C70054801F077
:400A800021FC01F0F5FB204601F02AFC10BD00BF8D83FF1FCD04000038B505460C46612001F096FB012001F01BFC322000F05AFA002001F015FC41F2883000F053FA28462C
:400AC00001F086FB012001F00BFC322000F04AFA002001F005FC41F2883000F043FA204601F076FB012001F0FBFB322000F03AFA002001F0F5FB41F2883000F033FA38BD77
:400B0000FEE700BFF0B40022174611E050F82760F3B226F0FF0608E001EB420511F812406D78A5550132013BDBB2002BF4D10137242FEBD9F0BC704708B50A46002102F05B
:400B4000DEF808BDF8B51C4B1B78DBB21B4E3478E4B21B4F3D78EDB203F00701194A11701B090132137044F00303337045F003033B700122144B1A700222F0331A70402381
:400B8000124A137002321370063213700232137010220F4B1A7020230E4A137005321370033213700A2000F0DDF93D7034704422094B1A70F8BD00BFCF010049F8460040F7
:400BC000F94600406E5800400D51004001590040205B0040235B00407658004008B502F083F808BD38B50B22374B1A801823374A1370172102321180023213702F21023215
:400C00001180023213703321023211800232137045F6BF51023211800232137008222C492C48FFF7DBFF02222B4B1A7008224FF040231A70032103F500731970274B1B785B
:400C4000DBB227490B70274B1A8041F25122023B1A80002419250CE0234B1B7803F0010343EA440404F003044FF4F07001F044FB013D0DB1032CEFD115B90320FFF740FFD9
:400C80001A4B4FF480721A8007221A70002218490A704820023108701A700222033B1A7004220A331A70134A137843F01F031370013A137843F003031370013A137843F09F
:400CC0008003137038BD00BF8040004082400040B0080048004100400043004008010049A146004022420040254200400440004006400040A243004038B572B6344A137823
:400D000043F00403137000240CE0324D630019194A0011462A44084691882858FFF70CFF0134E4B2062CF0D92B494FF09040FFF7E9FE2A4A2A4B1A602A4A137843F002031B
:400D400013701032137843F002031370264C237843F040032370A2F58632513A137843F010031370082221492148FFF737FF0A2220492148FFF732FF082220492048FFF7E5
:400D80002DFF08221F492048FFF728FF08221F491F48FFF723FF08221E491F48FFF71EFF1E4A137843F0080313701D4D61232B70FFF718FF81232B7001221A4B1A70FFF743
:400DC000C1FE0E2221461848FFF708FF38BD00BFE84600401030000094000048040404E45804014003500140A04300407C0800480251004084080048C0510040900800485A
:400E0000F25100409808004812510040A008004822510040A808004832510040224300400048004004000840B043004008B501F02FFF03680C2B00D1FEE7FEE708B5104E66
:400E4000104D16E029686B68AC68002204E051F8040B43F8040B0432A242F8D1E868002203E0002143F8041B04328242F9D11035013E002EE6D101F011FFFFF7E9FAFEE760
:400E8000010000006030000008B5104A104B1A60104A136843F40073136000230AE0032B03D80D4A52F8231000E00C490C4A42F8231001332F2BF2D90A4B1A780A4B1A70C2
:400EC000074A0A4B1A60FFF717FF08BD0004FA050CED00E014ED00E0000000002D0E00000080FF1FBC760040C080FF1F08ED00E0024A137843F002031370704700430040FA
:400F0000024A137843F004031370704700430040074B1B78DBB220B143F0100204490A7003E003F0EF0202490A70C3F3001070470043004001BE704710B5044605E0084B4B
:400F4000186801F0D9F9A4F50044B4F5004FF6D8034B586800FB04F001F0CEF910BD00BFCC80FF1F08B5034B1B7A00FB03F001F0C3F908BDCC80FF1F38B5054601F0C4F990
:400F8000064B1978064A13780B4303F0070423EA0503137001F0BCF9204638BDFA4600401C82FF1F2DE9F0410746884601F0ACF906461A4B1C6804F00104012580331D60D7
:400FC000174A137803F0BF031370033A137808F00F0103F0F00319431170013213782B4313702846FFF7BEFF2846FFF7C5FF2FB10B4A137843F04003137004E0084A1378C8
:4010000003F0BF0313700122064B1A60A3F5C0731C60304601F07CF9BDE8F08100E100E0F746004080E200E0F8B507460C4601F06BF90646194B1D6805F00105012080332C
:401040001860174A137803F07F0313702101C9B2033A137803F00F03194311700132137843F002031370FFF77DFF0220FFF784FF2FB10B4A137843F08003137004E0084A18
:40108000137803F07F0313700122064B1A60A3F5C0731D60304601F03BF9F8BD00E100E0F746004080E200E008B50A4A137803F0FE0313700232137803F0BF03137001207C
:4010C000FFF75AFF0120FFF757FF10F0010FF9D108BD00BFF546004008B5084A137803F0FD0313700232137803F07F0313700220FFF742FF10F0020FF9D108BDF546004020
:40110000F8B501F001F907460E4E346804F0010401250D4B1D600D4A137803F07F031370023A137843F0040313702846FFF71AFF0420FFF721FF064B1D603460384601F0F8
:40114000E7F8F8BD00E100E080E100E0F746004080E200E008B5064A137803F0FB0313700420FFF709FF10F0040FF9D108BD00BFF546004070B504460E46074B1D681F282F
:4011800002D90020FFF7D6FE04F01F04103455F8240045F8246070BD08ED00E038B504460D46072902D90020FFF7C4FE1F2C02D90020FFF7BFFE04F01F0000F1604000F5DC
:4011C00064406D01EDB2057038BD00BF2DE9F04FDFF8BCA19AF80020554B9A72DFF8B49199F80020DA72534A12781A73524A12785A73524A12789A73514A1278DA73514A2E
:4012000012781A74504A12785A74504A12789A744F4A1278DA744F4A12781A754E4A12785A754E4A12789A754D4A1278DA754D4A12781A764C4A12785A764C4A12789A76EC
:40124000DFF854B19BF80020DA76DFF8508198F800201A77DFF848C19CF800205A77DFF844E19EF800209A77414F3A78DA77414E327883F82020404D2A7883F821203F4C81
:40128000227883F822203E48027883F823203D490A7883F824203C4A127883F8252000238AF8003089F80030224A1370013213700232137002321370023213700632137077
:4012C0000232137001321370013213700232137002321370023213700632137002321370013213708BF8003088F800308CF800308EF800303B7033702B70237003700B7047
:4013000017321370214B1B7813F0080F0AD00122074B83F82F201D4A137803F0F7031370BDE8F08F0022024B83F82F20BDE8F08F3882FF1F035A0040045A0040065A004019
:40134000085A00400A5A0040105A0040125A0040135A0040145A0040165A0040185A00401A5A0040205A0040225A0040235A0040305A0040325A0040335A0040345A0040FC
:40138000365A0040385A00403A5A004022430040005A0040025A0040245A0040265A0040285A00402A5A0040334B997A334A1170D97A02321170197B01321170597B0132F2
:4013C0001170997B02321170D97B02321170197C02321170597C06321170997C02321170D97C01321170197D01321170597D02321170997D02321170D97D02321170197EAD
:4014000006321170597E02321170997E01321170D97E01321170197F02321170597F02321170997F02321170D97F0632117093F820100232117093F821100132117093F86E
:4014400022100132117093F823100232117093F824100232117093F825100232117093F82F30012B06D1A2F5B852183A137843F008031370704700BF3882FF1F005A004016
:4014800008B5234B1B7813F0010F12D0214B012283F82620204A127802F00F0283F827201E4A1278C2F3801283F82B20FFF7FCFD03E00022174B83F82620154B1B7813F064
:4014C000020F10D0134B012283F82820124A1278120983F82920114A1278D20983F82C20FFF7FAFD03E000220A4B83F82820084B1B7813F0040F06D00122064B83F82A2056
:40150000FFF728FE08BD0022024B83F82A2008BDF54600403882FF1FF4460040F746004010B51E4B1B7813F0040F04D01B4A137803F0FB0313700120FFF7EAFC184B187090
:4015400018490A78C2F340025A700A78C2F380029A70154B1B7813F0100F08D10022104BDA70114A137843F01003137002E001220B4BDA70FFF784FFFFF728FE0B48027899
:40158000074BDA710A490A781A720A4A14785C72FF230370B0200870137010BD314300403882FF1F004300408346004085460040864600408A46004008B5104B93F826301A
:4015C000012B06D10D4B93F8271093F82B00FFF7E9FC0A4B93F82830012B06D1074B93F8291093F82C00FFF71FFD044B93F82A30012B01D1FFF784FD08BD00BF3882FF1F1E
:4016000010B5FFF7D9FFFFF7CFFE114B5B78012B01D1FFF76DFC0E4B9B78012B01D1FFF76FFC0B4C2078FFF773FCE37823B9094A137803F0EF031370054BD979064A1170B9
:40164000197A013211705A7A044B1A7010BD00BF3882FF1F83460040854600408A46004038B50C4610B10020FFF764FC124D2A78124B1A71C4F307122A70114802785A7187
:4016800004F00F0202700F490A789A71C4F300340C700D4C227802F0F80242F001022270227800BF00BF30BF1A792A705A7902709B790B7038BD00BF984300403882FF1F12
:4016C000994300409A4300409343004038B5044600F01AFE0546334B1B7813F0080F22D1314A137803F01F031370FFF719FF2F490B782F4A1371C4F3071303F00403DBB2F7
:401700000B702C4B1978517104F00F041C7001331978917100221A70A3F5CD731B7813F0070F03D007E000F0F3FD38BD0122204B83F82E200DE01E49002381F82E301E4B3D
:401740001A7802F0070281F82D201A7802F0F8021A70144A137803F0F80343F004031370137800BF00BF30BF114B93F82E30012B08D011490B780E4A92F82D2003F0F8033F
:4017800013430B70FFF73CFF094B1979074A11705979013211709A79084B1A70284600F0B7FD38BD9343004083460040984300403882FF1F99430040004200409A43004025
:4017C00008B54020FFF782FF08BD00BF024A137843F080031370704772640040014B1870704700BF82640040014B1878704700BF6264004008B50146014800F08DFD08BDA0
:4018000024640040024B186820F07F40704700BF4464004008B50146014800F07DFD08BD0464004008B501E0FFF7ECFFFFF7DCFF10F0080FF8D108BD08B56FF07F40FFF7FC
:40184000D9FF6FF07F40FFF7E5FF00F05DFD064A137843F01003137000F05AFDFFF7E2FF0020FFF7BBFF08BD9264004008B5054B1B7823B9FFF7E0FF0122024B1A70FFF780
:40188000A5FF08BD7B82FF1F044A137803F0EF03000100F01000184310707047F0510040044A137803F0FE0300F0010018431070704700BF305100407222084B1A7020224F
:4018C00002331A700622A3F269131A70472210331A7000224F331A70704700BF8865004010B500F011FD04460A4A137843F0200313700232137843F010031370A2F5857284
:40190000137843F01003137000F038F8204600F0FFFC10BD9865004008B5054B1B7823B9FFF7CAFF0122024B1A70FFF7D9FF08BD7C82FF1F014B1878704700BF4A650040B3
:40194000034B1B7813F0040FFAD1024B18707047606400404064004038B5074B1B782BB938BDFFF7EDFF0134A4B201E005460024285D0028F5D138BD7C82FF1F054A13786B
:4019800043F0080313701032137843F008031370704700BFA2430040024A137843F080031370704775650040024A137803F07F031370704775650040014B1870704700BF72
:4019C00085650040014B1878704700BF65650040014B1880704700BF486A0040014B188880B27047886A0040014B1880704700BF086A004008B501E0FFF7F0FFFFF7E2FFA8
:401A000010F0080FF8D108BD08B540F2E730FFF7DFFF40F2E730FFF7E7FF00F075FC064A137843F01003137000F072FCFFF7E2FF0120FFF7C1FF08BD9565004008B5054BE5
:401A40001B7823B9FFF7E0FF0122024B1A70FFF7A3FF08BD7E82FF1F014B1B681865704708ED00E04001C0B2014B1870704700BF04E400E01022014B1A60704700E100E0A0
:401A80001022014B1A60704780E100E010B50446FFF7F6FF2046FFF7DFFF0720FFF7E2FFFFF7E8FF10BD00BF014B1B685864704708ED00E04001C0B2014B1870704700BF87
:401AC00001E400E00222014B1A60704700E100E00222014B1A60704780E100E010B50446FFF7F6FF2046FFF7DFFF0720FFF7E2FFFFF7E8FF10BD00BF044A137803F07F03F4
:401B0000C001C0B218431070704700BF10510040014B1878C009704711510040024A137843F00103137070470859004010B5074B1B7813F0010401D10028F8D024B101202F
:401B4000FFF710FA014B1B78204610BD09590040034B188880B2034B1B88C01A00B27047A25B00409C83FF1F084A137843F0010313701032137843F00103137002F64D324E
:401B8000137843F001031370704700BFA3430040084A137803F0FE031370A2F65D32137803F0FE0313701032137803F0FE031370704700BF004F0040014B1870704700BF34
:401BC000034F0040014B1880704700BF044F0040014B1880704700BF064F004008B5164A137803F0010313700232137803F0FC031370124B1A7802F0CF021A701A7842F021
:401C000030021A701A7802F0F0021A701A7842F00F021A700A4A137843F00103137041F64B50FFF7CFFF41F64B50FFF7D1FF0020FFF7C2FF08BD00BF004F00400B4F00403E
:401C4000014F004008B5054B1B7823B9FFF7C6FF0122024B1A70FFF787FF08BD7F82FF1F014B1B68D864704708ED00E04001C0B2014B1870704700BF03E400E00822014B72
:401C80001A60704700E100E00822014B1A60704780E100E010B50446FFF7F6FF2046FFF7DFFF0720FFF7E2FFFFF7E8FF10BD00BF084A137843F0020313701032137843F017
:401CC0000203137002F65932137843F001031370704700BFA3430040084A137803F0FE031370A2F66932137803F0FD0313701032137803F0FD031370704700BF0C4F00401C
:401D0000014B1870704700BF0F4F0040014B1880704700BF104F0040014B1880704700BF124F004008B5164A137803F0010313700232137803F0FC031370124B1A7802F090
:401D4000CF021A701A7842F030021A701A7802F0F0021A701A7842F00F021A700A4A137843F00103137041F64B50FFF7CFFF41F64B50FFF7D1FF0020FFF7C2FF08BD00BF07
:401D80000C4F0040174F00400D4F004008B5054B1B7823B9FFF7C6FF0122024B1A70FFF787FF08BD8082FF1F014B1B689864704708ED00E04001C0B2014B1870704700BF60
:401DC00002E400E00422014B1A60704700E100E00422014B1A60704780E100E010B50446FFF7F6FF2046FFF7DFFF0720FFF7E2FFFFF7E8FF10BD00BF044A137803F0DF038C
:401E0000400100F0200018431070704720510040044A137803F0EF03000100F0100018431070704720510040024B1878C0F3C000704700BF21510040044A137803F0FB03CA
:401E4000800000F0040018431070704720510040044A137803F0FD03400000F0020018431070704720510040024B187800F00100704700BF2151004008B50A280FD00C2872
:401E800002D0082806D102E04FF4805209E04FF4807206E00020FFF74DF8002201E04FF480620021094B198042F2107303FB02F303F6C413064A82FB0302DB17C3EBE223CC
:401EC000044A1360044B198008BD00BFAE83FF1FAD8BDB68A883FF1FAC83FF1F10B500F013FA04461E4A137843F0010313701032137843F0010313701A3A137843F00203FE
:401F000013701032137843F00203137002F5AA521232137843F0030313700422114B1A70013B1A7802F0BF021A701A7842F003021A700822053B1A700222A3F597530C3BCD
:401F40001A70094A137843F0080313700A20FFF709F88022054B1A60204600F0D9F910BDAB43004006590040275B004080E200E010B504460A280DD00C2802D0082804D1BC
:401F800001E0C42207E0442205E00020FEF7D2FFC42200E08422034B1A702046FFF76CFF10BD00BF0259004008B5102000F0C8F807210846FFF7F2F807490720FFF7DAF8DE
:401FC000064A137843F0060313700C20FFF7D0FF0022034B1A8008BD4D20000001590040A483FF1F08B5054B1B7823B9FFF7DCFF0122024B1A70FFF771FF08BD8182FF1FA8
:40200000024A137843F00103137070470059004010B5074B1B7813F0010401D10028F8D024B10120FEF79EFF014B1B78204610BD01590040034B188880B2034B1B88C01A2C
:4020400000B27047A05B0040AC83FF1F704700BF024A137843F080031370704773640040014B1870704700BF03640040014B1870704700BF43640040014B1870704700BFAF
:4020800023640040014B1870704700BF83640040014B1878704700BF63640040014B1878704700BF5364004008B501E0FFF7F6FFFFF7EEFF10F0100FF8D108BD10B5114A0D
:4020C000137803F0C00343F0090313700E4C237843F0010323707020FFF7C2FF7020FFF7C5FF3320FFF7C8FF0020FFF7CBFF00F00BF9237843F01003237000F009F9FFF74D
:40210000D3FF10BD736400409364004008B5054B1B7823B9FFF7D2FF0122024B1A70FFF797FF08BD8282FF1F044A137803F0BF03800100F040001843107070472051004080
:40214000034B1A7800F0F80010431870704700BF06410040044A137803F0FD03400000F0020018431070704730510040024B1878C0F34000704700BF3151004008B500F0B9
:40218000C3F80B4A137843F0200313700232137843F010031370FE32137843F01003137000F0B6F84FF48072024B1A6008BD00BF9464004000E100E0014B1878704700BF36
:4021C00066640040014B1878704700BF64650040014B1870704700BF07640040014B1878704700BF5764004008B501E00A4B1B780A4B1B7813F0080FF8D100F085F8084B27
:402200001A7842F003021A701A7802F0FC021A7000F07EF808BD00BF57640040646500409764004008B507220D4B1A704FF480720C4B1A600C490820FEF79CFF00210820F2
:40224000FEF7ACFFFFF7D0FFFFF7B6FFFFF7BAFF0022064B1A702822FE331A7008BD00BF8464004080E100E08D2200008664004008B5054B1B7823B9FFF7D4FF0122024B22
:402280001A70FFF77BFF08BD8382FF1F704700BF014B1B685865704708ED00E04001C0B2014B1870704700BF05E400E02022014B1A60704700E100E02022014B1A607047A9
:4022C00080E100E010B50446FFF7F6FF2046FFF7DFFF0020FFF7E2FFFFF7E8FF10BD00BF044A137803F0F703C00000F00800184310707047005100400230800803D000BF1C
:4023000001380046FCD17047EFF3108072B6704780F31088704700BFCBB20370C1F307234370C1F307418170704700BFF8B5C1F30A56A6F2FF35132D0A460B460446864660
:4023400011DC002D2EDB0F461F4929410A4225D04FF400232B413B4423EA01030026194634462046F8BD332D05DDB5F5806F1FD011462046F8BDA6F213464FF0FF3121FA9F
:4023800006F63042F4D00122C5F1330502FA05F52D1828BF9B1825EA0606E0E70028D7D11146E6E7013501F0004307D00026D6E702460B4600F010F80446D2E743F07F5372
:4023C00043F440130026CAE7FFFF0F0081F0004102E000BF83F0004330B54FEA41044FEA430594EA050F08BF90EA020F1FBF54EA000C55EA020C7FEA645C7FEA655C00F0E6
:40240000E2804FEA5454D4EB5555B8BF6D420CDD2C4480EA020281EA030382EA000083EA010180EA020281EA0303362D88BF30BD11F0004F4FEA01314FF4801C4CEA11312F
:4024400002D0404261EB410113F0004F4FEA03334CEA133302D0524263EB430394EA050F00F0A780A4F10104D5F1200E0DDB02FA0EFC22FA05F2801841F1000103FA0EF243
:40248000801843FA05F359410EE0A5F120050EF1200E012A03FA0EFC28BF4CF0020C43FA05F3C01851EBE37101F0004507D54FF0000EDCF1000C7EEB00006EEB0101B1F53D
:4024C000801F1BD3B1F5001F0CD349085FEA30004FEA3C0C04F101044FEA445212F5800F80F09A80BCF1004F08BF5FEA500C50F1000041EB045141EA050130BD5FEA4C0C8E
:40250000404141EB010111F4801FA4F10104E9D191F0000F04BF01460020B1FA81F308BF2033A3F10B03B3F120020CDA0C3208DD02F1140CC2F10C0201FA0CF021FA02F1B7
:402540000CE002F11402D8BFC2F1200C01FA02F120FA0CFCDCBF41EA0C019040E41AA2BF01EB0451294330BD6FEA04041F3C1CDA0C340EDC04F11404C4F1200220FA04F076
:4025800001FA02F340EA030021FA04F345EA030130BDC4F10C04C4F1200220FA02F001FA04F340EA0300294630BD21FA04F0294630BD94F0000F83F4801306BF81F48011D6
:4025C0000134013D4EE77FEA645C18BF7FEA655C29D094EA050F08BF90EA020F05D054EA000C04BF1946104630BD91EA030F1EBF0021002030BD5FEA545C05D14000494177
:4026000028BF41F0004130BD14F580043CBF01F5801130BD01F0004545F0FE4141F470014FF0000030BD7FEA645C1ABF194610467FEA655C1CBF0B46024650EA013406BF53
:4026400052EA033591EA030F41F4002130BD00BF90F0000F04BF0021704730B54FF4806404F132044FF000054FF0000150E700BF90F0000F04BF0021704730B54FF4806446
:4026800004F1320410F0004548BF40424FF000013EE700BF42004FEAE2014FEA31014FEA02701FBF12F07F4393F07F4F81F06051704792F0000F14BF93F07F4F704730B56C
:4026C0004FF4607401F0004521F0004120E700BF50EA010208BF704730B54FF000050AE050EA010208BF704730B511F0004502D5404261EB41014FF4806404F132045FEA3F
:40270000915C3FF4DCAE4FF003025FEADC0C18BF03325FEADC0C18BF033202EBDC02C2F1200300FA03FC20FA02F001FA03FE40EA0E0021FA02F11444C1E600BF70B54FF027
:40274000FF0C4CF4E06C1CEA11541DBF1CEA135594EA0C0F95EA0C0F00F0DEF82C4481EA030621EA4C5123EA4C5350EA013518BF52EA033541F4801143F4801338D0A0FBEE
:4027800002CE4FF00005E1FB02E506F00042E0FB03E54FF00006E1FB03569CF0000F18BF4EF0010EA4F1FF04B6F5007F64F5407404D25FEA4E0E6D4146EB060642EAC621C6
:4027C00041EA55514FEAC52040EA5E504FEACE2EB4F1FD0C88BFBCF5E06F1ED8BEF1004F08BF5FEA500E50F1000041EB045170BD06F0004646EA010140EA020081EA03018E
:40280000B4EB5C04C2BFD4EB0C0541EA045170BD41F480114FF0000E013C00F3AB8014F1360FDEBF002001F0004170BDC4F10004203C35DA0C341BDC04F11404C4F1200585
:4028400000FA05F320FA04F001FA05F240EA020001F0004221F0004110EBD37021FA04F642EB06015EEA430E08BF20EAD37070BDC4F10C04C4F1200500FA04F320FA05F0B5
:4028800001FA04F240EA020001F0004110EBD37041F100015EEA430E08BF20EAD37070BDC4F1200500FA05F24EEA020E20FA04F301FA05F243EA020321FA04F001F00041F5
:4028C00021FA04F220EA020000EBD3705EEA430E08BF20EAD37070BD94F0000F0FD101F00046400041EB010111F4801F08BF013CF7D041EA060195F0000F18BF704703F0E5
:402900000046520043EB030313F4801F08BF013DF7D043EA0603704794EA0C0F0CEA135518BF95EA0C0F0CD050EA410618BF52EA4306D1D181EA030101F000414FF00000C9
:4029400070BD50EA410606BF1046194652EA430619D094EA0C0F02D150EA013613D195EA0C0F05D152EA03361CBF104619460AD181EA030101F0004141F0FE4141F47001F9
:402980004FF0000070BD41F0FE4141F4780170BD70B54FF0FF0C4CF4E06C1CEA11541DBF1CEA135594EA0C0F95EA0C0F00F0A7F8A4EB050481EA030E52EA03354FEA0131FB
:4029C00000F088804FEA03334FF0805545EA131343EA12634FEA022245EA111545EA10654FEA00260EF000419D4208BF964244F1FD0404F5407402D25B084FEA3202B61A9C
:402A000065EB03055B084FEA32024FF480104FF4002CB6EB020E75EB030E22BFB61A754640EA0C005B084FEA3202B6EB020E75EB030E22BFB61A754640EA5C005B084FEAE8
:402A40003202B6EB020E75EB030E22BFB61A754640EA9C005B084FEA3202B6EB020E75EB030E22BFB61A754640EADC0055EA060E18D04FEA051545EA16754FEA06164FEA94
:402A8000C30343EA52734FEAC2025FEA1C1CC0D111F4801F0BD141EA00014FF000004FF0004CB6E711F4801F04BF01430020B4F1FD0C88BFBCF5E06F3FF6AFAEB5EB030C3B
:402AC00004BFB6EB020C5FEA500C50F1000041EB045170BD0EF0004E4EEA113114EB5C04C2BFD4EB0C0541EA045170BD41F480114FF0000E013C90E645EA060E8DE60CEA3B
:402B0000135594EA0C0F08BF95EA0C0F3FF43BAF94EA0C0F0AD150EA01347FF434AF95EA0C0F7FF425AF104619462CE795EA0C0F06D152EA03353FF4FDAE1046194622E7B3
:402B400050EA410618BF52EA43067FF4C5AE50EA41047FF40DAF52EA43057FF4EBAE12E74FEA410212F5001215D211D56FF47873B3EB625212D94FEAC12343F0004343EAAE
:402B8000505311F0004F23FA02F018BF404270474FF00000704750EA013005D111F0004008BF6FF0004070474FF00000704700BF4A0011D212F5001211D20DD56FF4787360
:402BC000B3EB62520ED44FEAC12343F0004343EA505323FA02F070474FF00000704750EA013002D14FF0FF3070474FF0000070474FEA4102B2F1E04324BFB3F5001CDCF173
:402C0000FE5C0DD901F0004C4FEAC0024CEA5070B2F1004F40EB830008BF20F00100704711F0804F21D113F13872BCBF01F00040704741F480114FEA5252C2F11802C2F101
:402C4000200C10FA0CF320FA02F018BF40F001004FEAC1234FEAD32303FA0CFC40EA0C0023FA02F34FEA4303CCE77FEA625307D150EA01331EBF4FF0FE4040F44000704757
:402C800001F0004040F0FE4040F40000704700BF014B1868704700BF3C81FF1F0E4B70B51E460E4C0025E41AA410A54204D056F8253098470135F8E700F0C0F9084B094CF8
:402CC0001E46E41AA4100025A54204D056F8253098470135F8E770BD4830000048300000483000005030000010B5431E0A44914204D011F8014B03F8014FF8E710BD034682
:402D00000244934202D003F8011BFAE7704700000000000025020000FD010000A5000000E1010000CD01000046207265636965766564000047207265636965766564000022
:402D40004820726563696576656400004920726563696576656400004A207265636965766564000053746F7070696E672057617465722050756D700A0D0000005374617259
:402D800074696E672057617465722050756D700A0D000000536C656570792074696D65202D20656E746572696E672068696265726E6174696F6E210A0D00000053657474D0
:402DC000696E67206D6F646520746F204E6F726D616C206D6F64650A0D00000053657474696E67206D6F646520746F204D616E75616C206D6F64650A0D00000053657474C8
:402E0000696E67206D6F646520746F20506F776572736176696E67206D6F64650A0D000053657474696E67206D6F646520746F205374616E646279206D6F64650A0D000084
:402E400053657474696E67206D6F646520746F204175746F6D617469736B2076616E64696E67206D6F64650A0D00000053656E6420706967656F6E206465746563746564F9
:402E80000A0D0000496E6974696174696E672057617465722050756D700A0D005374617274696E672070726F6772616D2E2E2E0A0D0000005761746572206C6F77212045EF
:402EC0006E746572696E67207374616E6462790A0D0000005374617274696E6720696E206E6F726D616C206D6F64650A0D000000525820494E5445524E414C20494E544570
:402F0000525255505421210A0D0000005761746572206C6576656C204953522077617320747269676765726564210A0D000000004C656176696E6720696E74657272757073
:402F4000740A0D004275666665722066756C6C0A0D00000050757368696E6720666972737420656C656D656E7420696E206275666665720A0D00000050757368696E6720AC
:402F8000656C656D656E740A0D000000506F7070696E6720656C656D656E740A0D00000042756666657220696E697469616C697A696E670A0D000000526F74617465642083
:402FC000636C6F636B77697365206F6E63650A0D000000004D6F76696E6720746F6F2066617220647564650A0D000000537465707065722072657365740A0D005374617246
:4030000074696E672074696D65720A0D00000000004F0040180040510040300000000140001000140140000800400140000A004C014000020050014020004300F8B500BFB6
:40304000F8BC08BC9E4670474D000000890E0000F8B500BFF8BC08BC9E4670472900000070300000C880FF1F7800000070020000000000000000E02EC05D0000180000007E
:4030800000366E0100000000000000000000000000000000000000000000000000000000000000003A30000000000000000000000000000000000000000000000000000001
:4030C000000000000000000000000000000000000000000000000000000000000000000000000000DC80FF1F00000000000000000000000000000000000000000000000056
:40310000000000000000000000000000000000000000000000000000000000000000000000000000000000000000000000000000000000000000000000000000000000008F
:40314000000000000000000000000000000000000000000000000000000000000000000000000000000000000000000000000000000000000000000000000000000000004F
:40318000000000000000000000000000000000000000000000000000000000000000000000000000000000000000000000000000000000000000000000000000000000000F
:4031C00000000000000000000000000000000000000000000000000000000000000000000000000000000000000000000000000000000000000000000000000000000000CF
:020000040003F7
:0200000480007A
:40000000044F004002520040015B00400564004004650040530001403101014049020140350301404E0401402F0501404D0601403A07014002090140020B0140030D014096
:400040003E1401402B150140051701403D18014030190140511A0140461B014007400140164101400D420140084301400244014006450140054601400247014005480140AE
:4000800008490140054C0140054D0140095001400351014001200A360D20161B118064402721800F820D830D840786478478850D88728A38040A06040701080309020A0C82
:4000C0000E080F011403160419011E052701280329012A043302340F37013A203F4440614103450B46E0470C481949FF4AFF4BFF4EF04F44500C5401580459045A045B0452
:400100005C035D335F0166C06A406B028301841488108A0C8C098E109203941C96029903A410A502A80CA903AA11B01FB103B902BF01C001C640C9FFCA07CBFFCC40CD20A6
:40014000CEF0CF05D008D804D904DA04DC03DD03DF01E040E1A8E240E3200040012003200440056409080A100B010E400F2013201610172019201E402244274029202B3094
:400180002D202F2030103430372038883B203E013F0140204201474049244C404F0150045108531056105A985B02C0E7C235C462CA66CC24CE8ED01AD204D60F020C0301DF
:4001C000040C060308010A060E0317021B031F0625062608270128012A0E2B053307340F3A203B0852805401580459045B045C335D905F018601870188018E048F029301CA
:400200009A04A002A801B102B204B301B603B880BE04C040C102C5D0C620C701C81AC9FFCAFFCBFFCDA0CF04D018D280D405D804D904DA04DB04DC13DD11DF01E040E2C07A
:40024000E440E540E6C0E8C0EAC0ECC0EEC0008001200320048405200740092013211610172819441C041F202080210A27202D202F2031023540376839083B403F01412259
:4002800049015124588059055D025E805F0473407680890890809240930199209A109D409F20A720AF12C0F7C202C46ACA60CC71CE8AD005D6DBE64207030A010D400F04E7
:4002C000100211011504172019041B101D041F08237827042C0430013102320234043501377C3E143F40404149FF4AFF4BFF4F01501856025724580459045A045B245C1889
:400300005D895E085F016040624064406540668068806A806C806E808F029101A302A701B301B702BF44C041C9FFCAFFCBFFCD83CE03CF01D018D608D904DA04DB04DD0981
:40034000DF01E040E240E440E540E680E880EA80EC80EE8003080A40100118241901200A21022640272029052F9030A83102340139483E80428043C0468047405D8060048B
:40038000654068A869617801798084018C109188924097049A809C809D02A640A940C002C208C401CAC3CC8FCE1AD099D610D814DE090E013201404145EC4602480749FFEB
:4003C0004AFF4BFF4D834E034F015018544158045A045B045D095F016040624064406540668068806A806C806E80800281018402880189018E028F019202960597029901E1
:400400009A01A402A902B001B302B404B501B602B701BE41BF54C001C102C210C405C5CEC6BDC70FC81FC9FFCAFFCBFFCC22CEF0CF0CD08CD110D608D804D904DA24DB04F5
:40044000DD08DF01E840E901EAC0EB01016102100540082C0A840B80102019B01A401E102001221023102910302439613A1040054580468048014A904D024F045104535004
:40048000558057805AA85E64602A67107980900491E1972499409A809D82A021A780AB20AC84B504B708C08FC20EC404CA04CC06CE0DD09CD208D67ED84EDE08E810EE01B5
:4004C000A740EE01A740E4408F40E420E642050137013F40405149FF4AFF4BFF4F0150185420560459045A045B045D045F016040624064406540668068806A806C806E8079
:40050000820189019F01AE01B001B501BE01BF10C051C5ECC602C807C9FFCAFFCBFFCD83CE03CF01D018D280D401D604D804D904DA04DB04DD44DF01E040E240E440E540DA
:40054000E680E880EA80EC80EE80064017401E8020012404354039083E104380454048014C024D055540564057805A015D055E8060956740740377408080850486018B406E
:400580008C129108921098029940C010C480CC10CE22D018D218D6D1D88FE220E680EE049108921098029940AE840001040C08040C0E1202140C1602180C1A021C021E0CEA
:4005C0002008240128013001320E3A085602571058045B045C035D305F0180018304840C85088802891C8B628C0F8D609003917F940F9540980C99249A039C039D109E0C34
:40060000A008A167A318A404A518A91CAB61AE03AF63B00FB31FB760BA02BB08D804D904DC33DF0101080208038104020508070908400A980C410D040F0810A11101150195
:40064000171419011E101F0A2010210422042302284129092B0E3080310832183301381039823A045E406C016D106F1474E0750876047708A740C0FFC2FFC47DCA0FCC0F91
:40068000CE0FD6100122020203D1041809670A010C100D010F0E12021418154416041731181C19671E0422012408281C2C042E1830013180321C33603402351837073E11F1
:4006C0003F10405441014206440245C0460E480649FF4AFF4BFF4C624DA04EF04F41500C54185604580459045A045B045C335D335F016640670269106A306B106D106E10AD
:400700006F1280018B018D0191019401A001A401AB01B001B101B880B902BB80BE41D804D904DC30DF010090012802400501088009010A140E1010A413401508162017010E
:4007400018141B011E401F4021592240258127012C042E20310833103701380239903E103F40408041904302488049204B4052405B0260046382650167408A048B418C010A
:400780008E108F8091189210958296E099099B129F01A060A302A508A7C0C01FC22FC43FCA20CC86CE3DD00DD20CD601D80DE680EE0430083320364037083820CCF0CE10F1
:4007C00007200F213080330836215B04680869046C806E0286208C1094209F08A408A640A720C020C2A0CCF0D640E64011041708872095049B209F0CA310A641A728AB01A9
:40080000C430E040E8806780A641A720AB0CB710D880EA80EE807002DC01620284048A02A402D802E4041A808C02A406C608E402A404AA4067809780A641A720D88082012B
:400840008A408B409780A641AB20E680EE2001401C08A404C002C60112808E80A940C408E202000B0101080A09010A030B0110191A111C0800AF01FF02030000A248480037
:40088000400015008000408080008000000000000010100000000200348B8B000000000009F6F6008000000000030300000000000100180101001801000000000000000088
:4008C00000000000000000000000000000000000000000000000000000000000000000000000000000000000000000000000000000000000000000000000000000000000F8
:4009000000000000000000000000000000000000000000000000000000000000000000000000000000000000000000000000000000000000000000000000000000000000B7
:400940000000000000000000000000000000000000000000000000000000000000000000000000000000000000000000000000000000000000000000000000000000000077
:400980000000000000000000000000000000000000000000000000000000000000000000000000000000000000000000000000000000000000000000000000000000000037
:0200000490006A
:0400000000004005B7
:0200000490105A
:04000000BC90ACAF55
:0200000490303A
:02000000021AE2
:0200000490402A
:4000000000000000000000000000000000000000000000000000000000000000000000000000000000000000000000000000000000000000000000000000000000000000C0
:400040000000000000000000000000000000000000000000000000000000000000000000000000000000000000000000000000000000000000000000000000000000000080
:400080000000000000000000000000000000000000000000000000000000000000000000000000000000000000000000000000000000000000000000000000000000000040
:4000C0000000000000000000000000000000000000000000000000000000000000000000000000000000000000000000000000000000000000000000000000000000000000
:0200000490501A
:0C00000000012E16106900012E2B128347
:00000001FF