:400000000080002011000000010B0000010B000008B5044B1A6803F53F5302331A6000F08FFD00BFFA46004010B5054C237833B9044B13B10448AFF300800123237010BDD3
:400040004881FF1F0000000064300000084B10B51BB108490848AFF300800848036803B910BD074B002BFBD0BDE81040184700BF000000004C81FF1F64300000C880FF1FDA
:4000800000000000054B1B78032B05D8044B53F82020024B5A601870704700BF6481FF1F6830000008B50448D0F8F830083098470A2000F0C3FD08BD6481FF1F08B530B980
:4000C000074801F0CDFA002001F08CFE08BD012805D1044801F0C4FA012001F083FE08BD7C3000009430000008B5034801F0B8FA01F0E8F908BD00BFAC30000008B501F04C
:400100008BFBB0FA80F0400901F07AFB08BD00BF08B5FFF7F3FF01F0CBFA41F2883001F0DBFA41F2883001F0E3FA01F00BFB1021002001F017F908BD08B5FFF7DFFF01F097
:40014000B7FA4FF47A7001F0C7FA4FF47A7001F0CFFA01F0F7FA1021002001F003F908BD10B501F06BFA41380A2800F28280DFE800F0060D141B2229394857677400002052
:40018000FFF780FF3B4801F06BFA10BD0220FFF779FF394801F064FA10BD0120FFF772FF364801F05DFA10BD0420FFF76BFF344801F056FA10BD0320FFF764FF314801F0E8
:4001C0004FFA10BD304B1B78022B52D12E48D0F8FC4000F588736FF00402D0F824110830A04710BD284B1B78022B42D12648D0F8FC4000F588730522D0F824110830A047E8
:4002000010BD214B1B78022B33D11F48D0F8FC4000F588730522D0F854110830A04710BD194B1B78022B24D11748D0F8FC4000F588736FF00402D0F854110830A04710BD3C
:40024000114B1B78022B14D10F48D0F8FC40002301220E490830A04710BD0B4B1B78022B07D10948D0F8FC4000231A4607490830A04710BDD4300000F4300000143100002A
:4002800038310000583100006481FF1FBD00000008B501F00DFA01F019FA08BD08B501F0FBFA0122014B83F8142108BD6481FF1F08B501F095FB0122014B83F8442108BD32
:4002C0006481FF1F08B5002001F060F9002001F069F901F04DF908BD08B5054801F0C0F901F004FD01F070FD002001F091FD08BD9C31000008B5024801F0B2F9012008BDA7
:40030000B831000000B5C1B00346054AFF21684602F076FA684601F0A3F941B05DF804FB2032000008B500F05FF940F6B833984203DD00F059F9FFF7E5FF08BD00B583B06B
:4003400062B6314801F026FA01F06AF92F4801F087F92F4801F084F92E4801F043FA2E4801F07EF92D4801F0BDFB2D4801F078F92C4801F013FB2C4801F072F92B4C2C4B12
:4003800000932C4B2C4A2D4904F5887000F0E4F92B4801F065F92B4B00932B4B2B4A2C4904F5A07000F0D8F92A4801F059F904F1080000F0EFF8FFF785FFFFF78DFFFFF719
:4003C00099FF002806DA244801F04AF90420FFF759FE05E0214801F043F90020FFF752FE124CD4F824315A2104F588709847D4F810311B4A4FF480711A4802F001FA0B4B56
:400400005B689847FBE700BF61010000383200005032000091020000743200009D02000098320000B1020000BC3200006481FF1F4D190000311B0000191B0000011B0000E3
:40044000D8320000951A0000711B0000591B0000411B0000F43200001833000038330000543300004483FF1FB0F90431B3F1FF3F01D1012070470020704700BFFF2380F885
:40048000043180F80531704708B590F90531013390F8061193FBF1F201FB123390F90421934204D1034801F0DBF8012008BD002008BD00BF90330000F8B504460F46164645
:4004C0001D46FFF7E1FF28BB2046FFF7CDFF58B1114801F0C5F8002384F8043184F8053127606660A560F8BD0C4801F0B9F894F90531013394F8061193FBF1F201FB1233D9
:400500005BB284F805315900C8188200A018A75046608560F8BD00BFA0330000C433000038B5044690F90451FFF79EFF70BB184801F096F805EB450293002344986840B9ED
:400540006B0059198A001146224463585068984707E06A0051198B001946234462585968904794F9043194F90521934205D1FF2384F8043184F8053138BD013394F8061136
:4005800093FBF1F201FB123384F8043138BD00BFD833000010B504460D4801F061F8142384F80631FF2384F8043184F80531094BC4F8F830084BC4F8FC30084BC4F8003149
:4005C000074BC4F8F430074BC4F8F03010BD00BFEC33000089040000690400007D040000B90400002105000008B501F01BF9012001F020F90028FAD001F02EF908BD00BF17
:4006000010B504464379032B02D10023437101E0013343712369984723680133236010BD10B50446437913B90323437101E0013B4371236998472368013B236010BD00BF51
:4006400010B50446437933B9C36900209847236A0020984710BD012B06D1C36901209847236A0020984710BD022B06D1C36901209847236A0120984710BD032B05D1C369FD
:4006800000209847236A0120984710BD08B500230360024800F0E4FF08BD00BF0434000070B504460D462A4800F0DAFF284601F077FD25A3D3E9002301F002FF02F010F862
:4006C00001F080FD01F0CAFB01F0E2FF061E18DD2368F218C82A01DDC3F1C80600250DE01C4800F0BDFFA36A98472379002BFCD0A36820469847002323710135AE42EFDC6B
:4007000070BD002E1CDA23685B429E4203DAA3692046984770BD9E420FDC70BD0D4800F09FFFA36A98472379002BFCD0E3682046984700232371013D00E00025B542EDDC61
:4007400070BD00BFAFF30080CDCCCCCCCCCCEC3F1434000038340000F8B504460F4616461D46154800F07CFFE76126626562069BA362124800F074FF114BA360114BE360F8
:40078000114B2361114B6361114BA361E462114800F066FFE36900209847236A002098470D4800F05DFF002323710C4800F058FFA36920469847F8BD4C34000074340000ED
:4007C000010600002106000041060000A10600008D06000098340000AC340000C4340000FEE700BFF0B40022174611E050F82760F3B226F0FF0608E001EB420511F81240E9
:400800006D78A5550132013BDBB2002BF4D101371F2FEBD9F0BC704708B50A46002101F0E6FF08BDF8B51C4B1B78DBB21B4E3478E4B21B4F3D78EDB203F00701194A1170FB
:400840001B090132137044F00303337045F003033B700822144B1A700222F0331A704023124A137002321370063213700232137080220F4B1A7020230E4A1370053213702E
:40088000033213700A2000F0EFF93D7034704422094B1A70F8BD00BFCF010049F8460040F94600406E5800400D51004001590040205B0040235B00407658004008B501F0EC
:4008C0008BFF08BD38B51722344B1A801823344A13702F2102321180023213703321023211800232137045F6BF51023211800232137008222B492C48FFF7E0FF02222B4B4A
:400900001A7008224FF040231A70032103F500731970274B1B78DBB226490B70264B1A8041F25122023B1A80002419250CE0234B1B7803F0010343EA440404F003044FF4C2
:40094000F07001F071FA013D0DB1032CEFD115B90320FFF745FF1A4B4FF480721A8007221A70002217490A704820023108701A700222033B1A7004220A331A70124A137865
:4009800043F00F031370013A137843F003031370013A137843F08003137038BD8040004082400040A0060048004100400043004008010049A1460040224200402542004041
:4009C0000440004006400040A243004038B572B6384A137843F00403137000240CE0364D630019194A0011462A44084691882858FFF712FF0134E4B2062CF0D900240BE0EF
:400A00002D49A3001819420088180622016BC06AFFF754FF0134E4B2002CF1D027494FF09040FFF7DFFE264A137843F0020313701032137843F002031370224C237843F0FF
:400A400040032370A2F58632513A137843F01003137008221C491D48FFF730FF0A221C491C48FFF72BFF08221B491C48FFF726FF08221B491B48FFF721FF08221A491B4840
:400A8000FFF71CFF1A4A137843F008031370194D61232B70FFF716FF81232B700122164B1A70FFF7BFFE0E2221461448FFF706FF38BD00BFE8460040D83400008000004801
:400AC00003500140A043004074060048025100407C060048C051004088060048F251004090060048125100409806004822510040224300400048004004000840B0430040B0
:400B000008B501F03DFE03680C2B00D1FEE7FEE708B5094B1A681044084BC31A802B02DC054B186005E001F02BFE0C2303604FF0FF32104608BD00BFCC80FF1F6084FF1FE0
:400B400008B5104E104D16E029686B68AC68002204E051F8040B43F8040B0432A242F8D1E868002203E0002143F8041B04328242F9D11035013E002EE6D101F007FEFFF71B
:400B8000DDFBFEE7010000006835000008B5104A104B1A60104A136843F40073136000230AE0032B03D80D4A52F8231000E00C490C4A42F8231001332F2BF2D90A4B1A78DA
:400BC0000A4B1A70074A0A4B1A60FFF7FFFE08BD0004FA050CED00E014ED00E000000000010B00000080FF1FBC760040C080FF1F08ED00E0024A137843F0020313707047E9
:400C000000430040024A137843F004031370704700430040074B1B78DBB220B143F0100204490A7003E003F0EF0202490A70C3F3001070470043004001BE704710B5044603
:400C400005E0084B186801F0EFF8A4F50044B4F5004FF6D8034B586800FB04F001F0E4F810BD00BFD080FF1F08B5034B1B7A00FB03F001F0D9F808BDD080FF1F38B50546C2
:400C800001F0DAF8064B1978064A13780B4303F0070423EA0503137001F0D2F8204638BDFA460040D482FF1F2DE9F0410746884601F0C2F806461A4B1C6804F00104012565
:400CC00080331D60174A137803F0BF031370033A137808F00F0103F0F00319431170013213782B4313702846FFF7BEFF2846FFF7C5FF2FB10B4A137843F04003137004E078
:400D0000084A137803F0BF0313700122064B1A60A3F5C0731C60304601F092F8BDE8F08100E100E0F746004080E200E0F8B507460C4601F081F80646194B1D6805F00105FC
:400D4000012080331860174A137803F07F0313702101C9B2033A137803F00F03194311700132137843F002031370FFF77DFF0220FFF784FF2FB10B4A137843F0800313707D
:400D800004E0084A137803F07F0313700122064B1A60A3F5C0731D60304601F051F8F8BD00E100E0F746004080E200E008B50A4A137803F0FE0313700232137803F0BF03D8
:400DC00013700120FFF75AFF0120FFF757FF10F0010FF9D108BD00BFF546004008B5084A137803F0FD0313700232137803F07F0313700220FFF742FF10F0020FF9D108BDFA
:400E0000F5460040F8B501F017F807460E4E346804F0010401250D4B1D600D4A137803F07F031370023A137843F0040313702846FFF71AFF0420FFF721FF064B1D603460DA
:400E4000384600F0FDFFF8BD00E100E080E100E0F746004080E200E008B5064A137803F0FB0313700420FFF709FF10F0040FF9D108BD00BFF546004070B504460E46074B73
:400E80001D681F2802D90020FFF7D6FE04F01F04103455F8240045F8246070BD08ED00E038B504460D46072902D90020FFF7C4FE1F2C02D90020FFF7BFFE04F01F0000F1A8
:400EC000604000F564406D01EDB2057038BD00BF2DE9F04FDFF8BCA19AF80020554B9A72DFF8B49199F80020DA72534A12781A73524A12785A73524A12789A73514A127884
:400F0000DA73514A12781A74504A12785A74504A12789A744F4A1278DA744F4A12781A754E4A12785A754E4A12789A754D4A1278DA754D4A12781A764C4A12785A764C4AA1
:400F400012789A76DFF854B19BF80020DA76DFF8508198F800201A77DFF848C19CF800205A77DFF844E19EF800209A77414F3A78DA77414E327883F82020404D2A7883F8B6
:400F800021203F4C227883F822203E48027883F823203D490A7883F824203C4A127883F8252000238AF8003089F80030224A13700132137002321370023213700232137069
:400FC000063213700232137001321370013213700232137002321370023213700632137002321370013213708BF8003088F800308CF800308EF800303B7033702B7023707D
:4010000003700B7017321370214B1B7813F0080F0AD00122074B83F82F201D4A137803F0F7031370BDE8F08F0022024B83F82F20BDE8F08FF082FF1F035A0040045A004016
:40104000065A0040085A00400A5A0040105A0040125A0040135A0040145A0040165A0040185A00401A5A0040205A0040225A0040235A0040305A0040325A0040335A00402D
:40108000345A0040365A0040385A00403A5A004022430040005A0040025A0040245A0040265A0040285A00402A5A0040334B997A334A1170D97A02321170197B013211702E
:4010C000597B01321170997B02321170D97B02321170197C02321170597C06321170997C02321170D97C01321170197D01321170597D02321170997D02321170D97D0232C1
:401100001170197E06321170597E02321170997E01321170D97E01321170197F02321170597F02321170997F02321170D97F0632117093F820100232117093F82110013265
:40114000117093F822100132117093F823100232117093F824100232117093F825100232117093F82F30012B06D1A2F5B852183A137843F008031370704700BFF082FF1FEF
:40118000005A004008B5234B1B7813F0010F12D0214B012283F82620204A127802F00F0283F827201E4A1278C2F3801283F82B20FFF7FCFD03E00022174B83F82620154B63
:4011C0001B7813F0020F10D0134B012283F82820124A1278120983F82920114A1278D20983F82C20FFF7FAFD03E000220A4B83F82820084B1B7813F0040F06D00122064B88
:4012000083F82A20FFF728FE08BD0022024B83F82A2008BDF5460040F082FF1FF4460040F746004010B51E4B1B7813F0040F04D01B4A137803F0FB0313700120FFF7EAFC01
:40124000184B187018490A78C2F340025A700A78C2F380029A70154B1B7813F0100F08D10022104BDA70114A137843F01003137002E001220B4BDA70FFF784FFFFF728FE7E
:401280000B480278074BDA710A490A781A720A4A14785C72FF230370B0200870137010BD31430040F082FF1F004300408346004085460040864600408A46004008B5104B79
:4012C00093F82630012B06D10D4B93F8271093F82B00FFF7E9FC0A4B93F82830012B06D1074B93F8291093F82C00FFF71FFD044B93F82A30012B01D1FFF784FD08BD00BF18
:40130000F082FF1F10B5FFF7D9FFFFF7CFFE114B5B78012B01D1FFF76DFC0E4B9B78012B01D1FFF76FFC0B4C2078FFF773FCE37823B9094A137803F0EF031370054BD979FD
:40134000064A1170197A013211705A7A044B1A7010BD00BFF082FF1F83460040854600408A46004038B50C4610B10020FFF764FC124D2A78124B1A71C4F307122A70114846
:4013800002785A7104F00F0202700F490A789A71C4F300340C700D4C227802F0F80242F001022270227800BF00BF30BF1A792A705A7902709B790B7038BD00BF98430040A8
:4013C000F082FF1F994300409A4300409343004038B5044600F030FD0546334B1B7813F0080F22D1314A137803F01F031370FFF719FF2F490B782F4A1371C4F3071303F0E9
:401400000403DBB20B702C4B1978517104F00F041C7001331978917100221A70A3F5CD731B7813F0070F03D007E000F009FD38BD0122204B83F82E200DE01E49002381F85D
:401440002E301E4B1A7802F0070281F82D201A7802F0F8021A70144A137803F0F80343F004031370137800BF00BF30BF114B93F82E30012B08D011490B780E4A92F82D2069
:4014800003F0F80313430B70FFF73CFF094B1979074A11705979013211709A79084B1A70284600F0CDFC38BD934300408346004098430040F082FF1F99430040004200408A
:4014C0009A43004008B54020FFF782FF08BD00BF024A137843F08003137070477A640040014B1870704700BF8A640040014B1878704700BF6A64004008B50146014800F0BD
:40150000A3FC08BD28640040024B186820F07F40704700BF4864004008B50146014800F093FC08BD0864004008B501E0FFF7ECFFFFF7DCFF10F0080FF8D108BD08B56FF02F
:401540007F40FFF7D9FF6FF07F40FFF7E5FF00F073FC064A137843F01003137000F070FCFFF7E2FF0020FFF7BBFF08BD9A64004008B5054B1B7823B9FFF7E0FF0122024B1C
:401580001A70FFF7A5FF08BD3383FF1F044A137803F07F03C001C0B218431070704700BF00510040044A137803F0FB03800000F00400184310707047105100407222084BB3
:4015C0001A702022A3F580731A700622A1331A70472210331A70002252331A70704700BF8865004010B500F027FC04460B4A137843F020031370A2F58072137843F0100345
:40160000137002F20312137843F01003137000F039F8204600F014FC10BD00BF9865004008B5054B1B7823B9FFF7C8FF0122024B1A70FFF7D7FF08BD3483FF1F014B187805
:40164000704700BF4B650040034B1B7813F0040FFAD1024B187070476B6500404A65004038B5074B1B782BB938BDFFF7EDFF0134A4B201E005460024285D0028F5D138BDE7
:401680003483FF1F054A137843F0040313701032137843F004031370704700BFA2430040024A137843F080031370704774650040024A137803F07F0313707047746500401A
:4016C000014B1870704700BF85650040014B1878704700BF65650040014B1880704700BF486A0040014B188880B27047886A0040014B1880704700BF086A004008B501E01D
:40170000FFF7F0FFFFF7E2FF10F0080FF8D108BD08B540F2E730FFF7DFFF40F2E730FFF7E7FF00F089FB064A137843F01003137000F086FBFFF7E2FF0120FFF7C1FF08BD4D
:401740009565004008B5054B1B7823B9FFF7E0FF0122024B1A70FFF7A3FF08BD3683FF1F014B1B681865704708ED00E04001C0B2014B1870704700BF04E400E01022014B95
:401780001A60704700E100E01022014B1A60704780E100E010B50446FFF7F6FF2046FFF7DFFF0620FFF7E2FFFFF7E8FF10BD00BF014B1B685864704708ED00E04001C0B2E3
:4017C000014B1870704700BF01E400E00222014B1A60704700E100E00222014B1A60704780E100E010B50446FFF7F6FF2046FFF7DFFF0520FFF7E2FFFFF7E8FF10BD00BFFD
:40180000044A137803F07F03C001C0B218431070704700BF10510040014B1878C009704711510040024A137843F00103137070470059004010B5074B1B7813F0010401D1D2
:401840000028F8D024B10120FFF70EFA014B1B78204610BD01590040034B188880B2034B1B88C01A00B27047A05B00404884FF1F084A137843F0010313701032137843F0C8
:401880000103137002F64D32137843F001031370704700BFA3430040084A137803F0FE031370A2F65D32137803F0FE0313701032137803F0FE031370704700BF004F004083
:4018C000014B1870704700BF034F0040014B1880704700BF044F0040014B1880704700BF064F004008B5164A137803F0010313700232137803F0FC031370124B1A7802F0F9
:40190000CF021A701A7842F030021A701A7802F0F0021A701A7842F00F021A700A4A137843F00103137041F64B50FFF7CFFF41F64B50FFF7D1FF0020FFF7C2FF08BD00BF4B
:40194000004F00400B4F0040014F004008B5054B1B7823B9FFF7C6FF0122024B1A70FFF787FF08BD3783FF1F014B1B68D864704708ED00E04001C0B2014B1870704700BFD0
:4019800003E400E00822014B1A60704700E100E00822014B1A60704780E100E010B50446FFF7F6FF2046FFF7DFFF0720FFF7E2FFFFF7E8FF10BD00BF084A137843F0020360
:4019C00013701032137843F00203137002F65932137843F001031370704700BFA3430040084A137803F0FE031370A2F66932137803F0FD0313701032137803F0FD031370AD
:401A0000704700BF0C4F0040014B1870704700BF0F4F0040014B1880704700BF104F0040014B1880704700BF124F004008B5164A137803F0010313700232137803F0FC03E6
:401A40001370124B1A7802F0CF021A701A7842F030021A701A7802F0F0021A701A7842F00F021A700A4A137843F00103137041F64B50FFF7CFFF41F64B50FFF7D1FF0020E1
:401A8000FFF7C2FF08BD00BF0C4F0040174F00400D4F004008B5054B1B7823B9FFF7C6FF0122024B1A70FFF787FF08BD3883FF1F014B1B689864704708ED00E04001C0B2B9
:401AC000014B1870704700BF02E400E00422014B1A60704700E100E00422014B1A60704780E100E010B50446FFF7F6FF2046FFF7DFFF0720FFF7E2FFFFF7E8FF10BD00BFF3
:401B0000044A137803F0DF03400100F0200018431070704720510040044A137803F0EF03000100F0100018431070704720510040024B1878C0F3C000704700BF21510040E9
:401B4000044A137803F0FB03800000F0040018431070704720510040044A137803F0FD03400000F0020018431070704720510040024B187800F00100704700BF21510040AD
:401B800008B50A280FD00C2802D0082806D102E04FF4805209E04FF4807206E00020FFF74BF8002201E04FF480620021094B198042F2107303FB02F303F6C413064A82FB79
:401BC0000302DB17C3EBE223044A1360044B198008BD00BF5A84FF1FAD8BDB685484FF1F5884FF1F10B500F027F904461E4A137843F0020313701032137843F00203137052
:401C00001A3A137843F0020313701032137843F00203137002F5AA521A32137843F0030313700422114B1A70013B1A7802F0BF021A701A7842F003021A700822053B1A709E
:401C40000222A3F59753123B1A70094A137843F0080313700A20FFF707F84022054B1A60204600F0EDF810BDAB4300400E5900402F5B004080E200E010B504460A280DD0F6
:401C80000C2802D0082804D101E0C42207E0442205E00020FEF7D0FFC42200E08422034B1A702046FFF76CFF10BD00BF0A59004008B5102000F0A2F807210620FFF7F0F85F
:401CC00007490620FFF7D8F8064A137843F0060313700C20FFF7D0FF0022034B1A8008BD091D0000095900405084FF1F08B5054B1B7823B9FFF7DCFF0122024B1A70FFF757
:401D000071FF08BD3983FF1F704700BF024A137843F08003137070477B640040014B1870704700BF0B640040014B1870704700BF4B640040014B1870704700BF2B640040ED
:401D4000014B1870704700BF8B640040014B1878704700BF6B640040014B1878704700BF5B64004008B501E0FFF7F6FFFFF7EEFF10F0100FF8D108BD10B5114A137803F081
:401D8000C00343F0090313700E4C237843F0010323707020FFF7C2FF7020FFF7C5FF3320FFF7C8FF0020FFF7CBFF00F045F8237843F01003237000F043F8FFF7D3FF10BDFD
:401DC0007B6400409B64004008B5054B1B7823B9FFF7D2FF0122024B1A70FFF797FF08BD3A83FF1F044A137803F0DF03400100F0200018431070704710510040034B1A780A
:401E000000F0F80010431870704700BF06410040044A137803F0EF03000100F01000184310707047105100400230800803D000BF01380046FCD17047EFF3108072B6704750
:401E400080F31088704700BFCBB20370C1F307234370C1F307418170704700BFF8B5C1F30A56A6F2FF35132D0A460B460446864611DC002D2EDB0F461F4929410A4225D0EE
:401E80004FF400232B413B4423EA01030026194634462046F8BD332D05DDB5F5806F1FD011462046F8BDA6F213464FF0FF3121FA06F63042F4D00122C5F1330502FA05F5B6
:401EC0002D1828BF9B1825EA0606E0E70028D7D11146E6E7013501F0004307D00026D6E702460B4600F010F80446D2E743F07F5343F440130026CAE7FFFF0F0081F0004150
:401F000002E000BF83F0004330B54FEA41044FEA430594EA050F08BF90EA020F1FBF54EA000C55EA020C7FEA645C7FEA655C00F0E2804FEA5454D4EB5555B8BF6D420CDD0F
:401F40002C4480EA020281EA030382EA000083EA010180EA020281EA0303362D88BF30BD11F0004F4FEA01314FF4801C4CEA113102D0404261EB410113F0004F4FEA03330C
:401F80004CEA133302D0524263EB430394EA050F00F0A780A4F10104D5F1200E0DDB02FA0EFC22FA05F2801841F1000103FA0EF2801843FA05F359410EE0A5F120050EF19C
:401FC000200E012A03FA0EFC28BF4CF0020C43FA05F3C01851EBE37101F0004507D54FF0000EDCF1000C7EEB00006EEB0101B1F5801F1BD3B1F5001F0CD349085FEA300016
:402000004FEA3C0C04F101044FEA445212F5800F80F09A80BCF1004F08BF5FEA500C50F1000041EB045141EA050130BD5FEA4C0C404141EB010111F4801FA4F10104E9D1A6
:4020400091F0000F04BF01460020B1FA81F308BF2033A3F10B03B3F120020CDA0C3208DD02F1140CC2F10C0201FA0CF021FA02F10CE002F11402D8BFC2F1200C01FA02F1CA
:4020800020FA0CFCDCBF41EA0C019040E41AA2BF01EB0451294330BD6FEA04041F3C1CDA0C340EDC04F11404C4F1200220FA04F001FA02F340EA030021FA04F345EA030132
:4020C00030BDC4F10C04C4F1200220FA02F001FA04F340EA0300294630BD21FA04F0294630BD94F0000F83F4801306BF81F480110134013D4EE77FEA645C18BF7FEA655C2B
:4021000029D094EA050F08BF90EA020F05D054EA000C04BF1946104630BD91EA030F1EBF0021002030BD5FEA545C05D14000494128BF41F0004130BD14F580043CBF01F549
:40214000801130BD01F0004545F0FE4141F470014FF0000030BD7FEA645C1ABF194610467FEA655C1CBF0B46024650EA013406BF52EA033591EA030F41F4002130BD00BFD9
:4021800090F0000F04BF0021704730B54FF4806404F132044FF000054FF0000150E700BF90F0000F04BF0021704730B54FF4806404F1320410F0004548BF40424FF00001D5
:4021C0003EE700BF42004FEAE2014FEA31014FEA02701FBF12F07F4393F07F4F81F06051704792F0000F14BF93F07F4F704730B54FF4607401F0004521F0004120E700BF05
:4022000050EA010208BF704730B54FF000050AE050EA010208BF704730B511F0004502D5404261EB41014FF4806404F132045FEA915C3FF4DCAE4FF003025FEADC0C18BF72
:4022400003325FEADC0C18BF033202EBDC02C2F1200300FA03FC20FA02F001FA03FE40EA0E0021FA02F11444C1E600BF70B54FF0FF0C4CF4E06C1CEA11541DBF1CEA135596
:4022800094EA0C0F95EA0C0F00F0DEF82C4481EA030621EA4C5123EA4C5350EA013518BF52EA033541F4801143F4801338D0A0FB02CE4FF00005E1FB02E506F00042E0FB15
:4022C00003E54FF00006E1FB03569CF0000F18BF4EF0010EA4F1FF04B6F5007F64F5407404D25FEA4E0E6D4146EB060642EAC62141EA55514FEAC52040EA5E504FEACE2E79
:40230000B4F1FD0C88BFBCF5E06F1ED8BEF1004F08BF5FEA500E50F1000041EB045170BD06F0004646EA010140EA020081EA0301B4EB5C04C2BFD4EB0C0541EA045170BD51
:4023400041F480114FF0000E013C00F3AB8014F1360FDEBF002001F0004170BDC4F10004203C35DA0C341BDC04F11404C4F1200500FA05F320FA04F001FA05F240EA020029
:4023800001F0004221F0004110EBD37021FA04F642EB06015EEA430E08BF20EAD37070BDC4F10C04C4F1200500FA04F320FA05F001FA04F240EA020001F0004110EBD3700B
:4023C00041F100015EEA430E08BF20EAD37070BDC4F1200500FA05F24EEA020E20FA04F301FA05F243EA020321FA04F001F0004121FA04F220EA020000EBD3705EEA430E63
:4024000008BF20EAD37070BD94F0000F0FD101F00046400041EB010111F4801F08BF013CF7D041EA060195F0000F18BF704703F00046520043EB030313F4801F08BF013D16
:40244000F7D043EA0603704794EA0C0F0CEA135518BF95EA0C0F0CD050EA410618BF52EA4306D1D181EA030101F000414FF0000070BD50EA410606BF1046194652EA430658
:4024800019D094EA0C0F02D150EA013613D195EA0C0F05D152EA03361CBF104619460AD181EA030101F0004141F0FE4141F470014FF0000070BD41F0FE4141F4780170BDB4
:4024C00070B54FF0FF0C4CF4E06C1CEA11541DBF1CEA135594EA0C0F95EA0C0F00F0A7F8A4EB050481EA030E52EA03354FEA013100F088804FEA03334FF0805545EA1313A7
:4025000043EA12634FEA022245EA111545EA10654FEA00260EF000419D4208BF964244F1FD0404F5407402D25B084FEA3202B61A65EB03055B084FEA32024FF480104FF4F2
:40254000002CB6EB020E75EB030E22BFB61A754640EA0C005B084FEA3202B6EB020E75EB030E22BFB61A754640EA5C005B084FEA3202B6EB020E75EB030E22BFB61A754629
:4025800040EA9C005B084FEA3202B6EB020E75EB030E22BFB61A754640EADC0055EA060E18D04FEA051545EA16754FEA06164FEAC30343EA52734FEAC2025FEA1C1CC0D154
:4025C00011F4801F0BD141EA00014FF000004FF0004CB6E711F4801F04BF01430020B4F1FD0C88BFBCF5E06F3FF6AFAEB5EB030C04BFB6EB020C5FEA500C50F1000041EB43
:40260000045170BD0EF0004E4EEA113114EB5C04C2BFD4EB0C0541EA045170BD41F480114FF0000E013C90E645EA060E8DE60CEA135594EA0C0F08BF95EA0C0F3FF43BAF04
:4026400094EA0C0F0AD150EA01347FF434AF95EA0C0F7FF425AF104619462CE795EA0C0F06D152EA03353FF4FDAE1046194622E750EA410618BF52EA43067FF4C5AE50EAFA
:4026800041047FF40DAF52EA43057FF4EBAE12E74FEA410212F5001215D211D56FF47873B3EB625212D94FEAC12343F0004343EA505311F0004F23FA02F018BF404270475E
:4026C0004FF00000704750EA013005D111F0004008BF6FF0004070474FF00000704700BF4FEA4102B2F1E04324BFB3F5001CDCF1FE5C0DD901F0004C4FEAC0024CEA50706C
:40270000B2F1004F40EB830008BF20F00100704711F0804F21D113F13872BCBF01F00040704741F480114FEA5252C2F11802C2F1200C10FA0CF320FA02F018BF40F001002B
:402740004FEAC1234FEAD32303FA0CFC40EA0C0023FA02F34FEA4303CCE77FEA625307D150EA01331EBF4FF0FE4040F44000704701F0004040F0FE4040F40000704700BF5C
:40278000014B1868704700BF4081FF1F0E4B70B51E460E4C0025E41AA410A54204D056F8253098470135F8E700F0CCFE084B094C1E46E41AA4100025A54204D056F8253098
:4027C00098470135F8E770BD5035000050350000503500005835000010B5431E0A44914204D011F8014B03F8014FF8E710BD03460244934202D003F8011BFAE77047000050
:402800000CB430B5164B0C1E9DB01D6804DA8B232B604FF0FF301EE04FF40273ADF814300CBF234604F1FF33049307934FF6FF7302900690ADF81630209A21AB02A928467D
:40284000019300F069F8431CBCBF8B232B6014B1029B00221A701DB0BDE8304002B070474081FF1F2DE9F0478E6882469E420C46914698463ED88A8912F4906F3AD0256871
:40288000096902236F1A656905EB450595FBF3F57B1C43449D4238BF1D4653050FD5294600F040FB064698B13A462169FFF794FFA38923F4906343F08003A38113E02A46B0
:4028C00000F08EFB064670B92169504600F0DEFA0C23CAF80030A3894FF0FF3043F04003A381BDE8F08726613E44266046466561ED1BA560464528BF464649463246206816
:4029000000F0A8FAA36800209B1BA36023681E442660BDE8F08700002DE9F04F9DB003938B8980461C060D4616460DD50B695BB9402100F0F7FA2860286118B90C23C8F832
:402940000030CDE040236B610023099320238DF82930DFF89CB130238DF82A3037463C4614F8013B1BB9B7EB060910D003E0252BF9D02746F3E74B46324629464046FFF732
:4029800071FF013000F0A780099B4B4409933B78002B00F0A08000234FF0FF3204930793059206938DF853301A930126052221784E4800F041FA671C049B38B14B4A3C462F
:4029C000801A06FA00F018430490EFE7D90644BF20228DF853201A0744BF2B228DF8532022782A2A03D0079A00210A200BE0039A111D12680391002A10DA524243F00200B5
:402A0000079204900BE027463B780134303B092B03D800FB02320121F5E701B107923B782E2B1ED17B782A2B0AD1039B02371A1D1B680392002BB8BF4FF0FF33059310E058
:402A4000002319460593781C0A2407463A780130303A092A03D804FB01210123F5E703B1059103223978224800F0E6F940B14023CBEB000003FA00F0049B0137184304909B
:402A8000397806221B487E1C8DF8281000F0D4F988B1194B33B9039B073323F007030833039314E003AB00932A46144B04A94046AFF3008007E003AB00932A460F4B04A97F
:402AC000404600F093F8B0F1FF3F824603D0099B5344099342E7AB895B0601D4099801E04FF0FF301DB0BDE8F08F00BF10350000163500001A3500000000000065280000E5
:402B00002DE9F04791461F460A698B6806469342B8BF1346C9F8003091F843200C46DDF8208012B10133C9F800302368990642BFD9F800300233C9F80030256815F006053A
:402B400010D104F1190A07E00123524639463046C04701301AD00135E368D9F800209B1A9D42F1DB94F843302268003318BF012392060FD5E118302081F843005A1C94F896
:402B800045102244023382F8431003E04FF0FF30BDE8F08704F1430239463046C0470130F4D02268D9F80050E36802F00602042A08BF5D1B2269A3680CBF25EAE575002574
:402BC0009342C4BF9B1AED184FF000091A344D4509D00123224639463046C0470130D5D009F10109F3E70020BDE8F0872DE9F04317460A7E85B06E2A984606460C460C9B2C
:402C000001F1430E00F0AE8011D8632A22D009D8002A00F0BB80582A40F0CA8081F84520834955E0642A1ED0692A1CD0C0E0732A00F0B08009D86F2A2ED0702A40F0B880E8
:402C40000A6842F020020A603EE0752A24D0782A3AD0ADE01A6801F14205111D1960136884F84230A8E021681A6811F0800F02D0111D196008E011F0400F02F1040119602A
:402C800002D0B2F9003000E01368002B3CDA2D225B4284F8432037E021681A6811F0800F02D0111D196007E011F0400F02F10401196001D0138800E01368227E5C496F2A88
:402CC00014BF0A2208221BE078225A4984F845202268186812F0800F00F104051D6003D1550601D5038800E00368D00744BF42F0200222601BB9226822F0200222601022AF
:402D0000002084F8430001E049490A226568002DA56008DB206820F0040020602BB9002D7DD175460CE0002B79D07546B3FBF2F002FB1033CB5C05F8013D03460028F5D179
:402D4000082A0BD12368DA0708D5236962689A42DEBF302305F8013C05F1FF35C5EB0E0323612EE008681A6810F0800F496903D0101D1860136808E010F0400F02F10400CF
:402D80001860136801D0198000E0196000232361754616E01A68111D1960156800216268284600F049F808B1401B6060636804E004F1420584F8422001232361002384F8F1
:402DC0004330CDF800803B4603AA21463046FFF797FE013002D14FF0FF3026E023692A4639463046C0470130F5D023689B0710D5002504F1190907E001234A463946304641
:402E0000C0470130E7D00135E368039A9B1A9D42F2DBE068039B9842B8BF184605E00B7804F1420584F842308AE705B0BDE8F083213500003235000010B5C9B202449042AA
:402E4000034605D01C7801308C42F8D1184610BD002010BD884210B501EB020301D8421E0BE09842FBD28118D21AD34204D013F8014D01F8014DF8E710BD994204D011F803
:402E8000014B02F8014FF8E710BD000038B50546002944D051F8043C0C1F002BB8BFE41800F0D4F81E4A1368114613B96360146030E0A3420DD92268A018834201BF1868EE
:402EC0005B681218226063600C6023E0A24203D813465A68002AF9D118681918A1420BD12168014458188242196013D110685268014419605A600DE002D90C232B6009E07F
:402F000021686018824201BF106852680918216062605C602846BDE8384000F098B838BD4083FF1F70B5CD1C25F0030508350C2D38BF0C25002D064601DBA94202D90C2306
:402F4000336046E000F082F8234B1C681A462146A1B10B685B1B0ED40B2B03D90B60CC18CD501EE08C420BBF63684B681360636018BF0C4615E00C464968E9E7174C2368B1
:402F80001BB9304600F052F820602946304600F04DF8431C18D0C41C24F00304A0420DD12560304600F053F804F10B00231D20F00700C31A0ED05A42E25070BD211A3046FD
:402FC00000F034F80130EBD10C233360304600F03EF8002070BD00BF4083FF1F3C83FF1FF8B5074615460E4621B91146BDE8F840FFF798BF1AB9FFF749FF2846F8BD00F078
:4030000027F885420ED929463846FFF78BFF044650B131462A46FFF7DFFB31463846FFF735FF01E03046F8BD2046F8BD38B5064C0023054608462360FDF76AFD431C02D103
:40304000236803B12B6038BD5C84FF1F7047704751F8040C0028BEBF091851F8043CC01804387047000000003901000011010000A500000025030000E900000053746F700A
:4030800070696E672057617465722050756D700A0D0000005374617274696E672057617465722050756D700A0D000000536C656570792074696D65202D20656E74657269E9
:4030C0006E672068696265726E6174696F6E210A0D00000053657474696E67206D6F646520746F204E6F726D616C206D6F64650A0D00000053657474696E67206D6F646562
:4031000020746F204D616E75616C206D6F64650A0D00000053657474696E67206D6F646520746F20506F776572736176696E67206D6F64650A0D000053657474696E6720FD
:403140006D6F646520746F205374616E646279206D6F64650A0D000053657474696E67206D6F646520746F204175746F6D617469736B2076616E64696E67206D6F64650A18
:403180000D000000496E6974696174696E672057617465722050756D700A0D00496E6974696174696E672057617465722053656E736F720A0D00000052657475726E696EBB
:4031C00067207761746572206C6576656C0A0D004C6F6767696E6720506967656F6E2053686F740A0D0000004C6F6767696E6720506967656F6E2044657465637465640A23
:403200000D0000004C6F6767696E67205761746572206C6576656C3A2025640A0D0000004C6F6767696E67204D6F6973747572653A2025640A0D00005374617274696E67E0
:403240002070726F6772616D2E2E2E0A0D0000005374617274696E672064656C61792074696D657220696E746572727570742E2E2E0A0D005374617274696E672073746573
:4032800070706572205820696E746572727570742E2E2E0A0D0000005374617274696E672073746570706572205920696E746572727570742E2E2E0A0D000000496E697407
:4032C00069616C697A696E67207374657070657220582E2E2E0A0D00496E697469616C697A696E67207374657070657220592E2E2E0A0D00496E697469616C697A696E6728
:403300002063697263756C6172206275666665722E2E2E0A0D0000005761746572206C6F772120456E746572696E67207374616E6462790A0D0000005374617274696E6773
:4033400020696E206E6F726D616C206D6F64650A0D0000005374657070657220706F736974696F6E3A202564000000005761746572206C6576656C204953522077617320A2
:40338000747269676765726564210A0D000000004275666665722066756C6C0A0D00000050757368696E6720666972737420656C656D656E7420696E206275666665720A09
:4033C0000D00000050757368696E6720656C656D656E740A0D000000506F7070696E6720656C656D656E740A0D00000042756666657220696E697469616C697A696E670A34
:403400000D000000537465707065722072657365740A0D005374617274696E67206D6F7665446567726565732066756E6374696F6E2E2E2E0A0D00005374617274696E67ED
:403440002074696D65720A0D0000000053657474696E672070696E2F74696D65722066756E6374696F6E20706F696E746572730A0D00000053657474696E6720647269767B
:4034800065722066756E6374696F6E20706F696E746572730A0D000057726974696E6720746F2070696E730A0D0000005365742074696D657220646F6E6520666C61670A35
:4034C0000D000000526573657420706F736974696F6E2E2E2E0A0D00004F0040180030510040400000000140001000140140000800400140000A004C014000020050014085
:4035000020000000605200406C06004806004300232D302B2000686C4C0065666745464700303132333435363738394142434445460030313233343536373839616263644E
:4035400065660000F8B500BFF8BC08BC9E4670474D0000008D0B0000F8B500BFF8BC08BC9E4670472900000078350000C880FF1F8000000018030000000000006084FF1FC4
:403580000000E02EC05D00001800000000366E0100000000000000000000000000000000000000000000000000000000000000000E350000000000000000000000000000E0
:4035C000000000000000000000000000000000000000000000000000000000000000000000000000000000000000000000000000E080FF1F0000000000000000000000004D
:40360000000000000000000000000000000000000000000000000000000000000000000000000000000000000000000000000000000000000000000000000000000000008A
:40364000000000000000000000000000000000000000000000000000000000000000000000000000000000000000000000000000000000000000000000000000000000004A
:40368000000000000000000000000000000000000000000000000000000000000000000000000000000000000000000000000000000000000000000000000000000000000A
:4036C00000000000000000000000000000000000000000000000000000000000000000000000000000000000000000000000000000000000000000000000000000000000CA
:020000040003F7
:0200000480007A
:40000000044F0040015B0040036400400365004002030140010501400107014061080140400901404E0A0140290B0140040D0140040E0140010F0140331401401115014045
:400040004F1801404B1901405B1A0140421B01400640014010410140104201400443014003460140024701400448014003490140034C0140084D014007500140025101402B
:4000800001100A4B0D10164B2F2188388A0D8B0D850D88728B0FE640EE0CE211EE040002011803040401071408010B010F0410081408170C18081B021E0220012318240252
:4000C000270128082B022C042F083102320133013408351C360638803B203E103F05405649FF4AFF4BFF4F01501854185604580459045A045B045C225D295F016040624001
:4001000064406540668068806A806C806E8083088403850C870388028E018F039501970EA30CA501A706A803B203B30FB808BB08BE04C046C9FFCAFFCBFFCD83CE03CF0116
:40014000D018D804D904DA04DC20DD09DF01E040E240E440E540E680E880EA80EC80EE8000A40108042805010C100D230E210F80100411201540173918101D081E081FC07C
:400180002020210425142601270829082B802C082D042F8130043406362139483B023C843D403E114240450446104A084C014E085C016402661188108A01900292509C10B8
:4001C0009E019F10A102A208A610C077C2F0C4F2CAF3CC62CEFBD001D234D680D8B0EE0412012A0136013E40404645EC4702481349FF4AFF4BFF4D834E034F0150185280E0
:40020000540158045A045B045D995F016040624064406540668068806A806C806E80830186018B0E9001940195089A029B02A601AA02B102B201B301B402B504B708B808E2
:40024000BA02BE10C030C102C5D2C610C80BC9FFCAFFCBFFCDA0CF04D018D280D405D804D904DA04DB04DC02DF01E040E2C0E440E540E6C0E8C0EAC0ECC0EEC007100A4061
:400280000D220E200F0412081410172019801D021E1825042640276437243C023F204240452449054A084F055208571059855E885F017001724074018F409E01C020C27875
:4002C000C462CC60CEA0D061D204D6DBE2118E01AB20AF20E640B820BE10D804DF011F20404249FF4AFF4BFF4F01501852805A045B045D335F01604062406440654066809E
:4003000068806A806C806E8092019A01B001BE01C042C5ECC620C80BC9FFCAFFCBFFCD83CE03CF01D018D401D604D804DA04DB04DD33DF01E040E240E440E540E680E88042
:40034000EA80EC80EE800D221E80412245224D044F0155205D045E805F01660171028201C250D0A5D6D0D8800110021304020508080109E70B180C0C0DFF0E1311C0141379
:400380001580160C180F19181A101C031F04201F21442404251C27E1280C293C2BC22C082FE3320F331F341C353837C03A283B0856025712580459045B045C225D205F01C1
:4003C00081108510870C8D098F10970398019914A11CA302A90CAB11B31FB601BE40C003C740C9FFCA07CBFFCC40CD20CEF0CF05D008D804D904DA04DC20DD02DF01E040D3
:40040000E1A8E240E320008001800480052406800A080D200E221502160117141A021D201E201F102204240125102620272028442C012D012E902F103020320435043689FD
:40044000371038043B823E0A3FA04010484053015A105B205E086C146D106E046F01760B77147A107B10880189089010910292019380942D9504970298049F21A108A2040D
:40048000A340A448A520A630B404B501C0F0C2E2C4F0CAF5CCF6CEFBD002D6400503070C0F08150317041D031F04210A23042F05350F3B204025410345E046BC480E49FFEF
:4004C0004AFF4BFF4EF04F44500C59045A045C205D025F0166C06A406B02800481018218831A841085038604880889038A048E0290019402981C99029B099E02A202A304E7
:40050000A402A81CB002B10CB303B401B61CB710BE11BF01C063C105C202C404C50EC70CC811C9FFCAFFCBFFCC62CDA0CEF0CF41D00CD401D804D904DA04DB04DC22DD2273
:40054000DF01E640E702E910EA30EB10ED10EE10EF1205A207100C440E951510164017081E4A1F8020042308250226882710284029802D022F803084371038043B803D13A4
:400580003E0440044210451A49804A404B014D044FA050A0524054085E485F11848087108D2191109205938094049505980499809C409D20A118A350A428A689AE01B440D3
:4005C000B720C0F0C2F0C470CA89CC2ACEEAD0E6D238D6F0EC023140330437183820CCF0CE1033203720522069046B048C10930294209D409F1CA301AB01AF01CC30D420CB
:40060000EE30110417086302670283208E20930295049D409F38A301A620A720C430D6C0E2809D409F10AB20EE201B048001C6089401AB0405409D409F10C08083109F10E0
:40064000E2201C019401C601122074048E20A004AC04C408DE04E208000501010C050D01100C1A081C0400AF013F000080800000400000002281810001001C008000408087
:400680008000800000000000080000000000020000BFBF00000000000936360000000000010018010100180100000000000000000000000000000000000000000000000009
:4006C00000000000000000000000000000000000000000000000000000000000000000000000000000000000000000000000000000000000000000000000000000000000FA
:4007000000000000000000000000000000000000000000000000000000000000000000000000000000000000000000000000000000000000000000000000000000000000B9
:400740000000000000000000000000000000000000000000000000000000000000000000000000000000000000000000000000000000000000000000000000000000000079
:400780000000000000000000000000000000000000000000000000000000000000000000000000000000000000000000000000000000000000000000000000000000000039
:0200000490006A
:0400000000004005B7
:0200000490105A
:04000000BC90ACAF55
:0200000490303A
:02000000F0D737
:0200000490402A
:4000000000000000000000000000000000000000000000000000000000000000000000000000000000000000000000000000000000000000000000000000000000000000C0
:400040000000000000000000000000000000000000000000000000000000000000000000000000000000000000000000000000000000000000000000000000000000000080
:400080000000000000000000000000000000000000000000000000000000000000000000000000000000000000000000000000000000000000000000000000000000000040
:4000C0000000000000000000000000000000000000000000000000000000000000000000000000000000000000000000000000000000000000000000000000000000000000
:0200000490501A
:0C00000000012E16106900012E2C01409A
:00000001FF