:400000000080002011000000D5100000D510000008B5044B1A6803F53F5302331A6001F061F800BFFA46004010B5054C237833B9044B13B10448AFF300800123237010BD53
:400040005881FF1F0000000018300000084B10B51BB108490848AFF300800848036803B910BD074B002BFBD0BDE81040184700BF000000005C81FF1F18300000C880FF1F52
:400080000000000008B50448D0F8A03098470A2001F0A6F808BD00BFF082FF1F08B501F0A1FD01F0ADFD08BD08B500F01DFA40F6B833984203DC08BD012000F003FD00F0E3
:4000C00013FA40F6B8339842F6DC002000F0FAFC00F00CFC08BD00BF08B501F0C5FC08BD08B502F06BF902F075F9034B18700122024B1A7008BD00BFEC82FF1FED82FF1F90
:40010000054B1B78042B06D8044B53F82020044B1A60014B18707047EE82FF1FCC80FF1FE481FF1F08B562B6144801F0CDFD00F0B3FA00F095FB124800F0B0F900F0CEFC70
:4001400000F0F8FD00F0B8FC00F0CAF900F0A0FB00F0BEFB012001F043F80020FFF7D0FF0022084B1A60084B1B78012B01D100F01FFC064B1B689847F5E700BF9D00000014
:40018000F082FF1FA883FF1FED82FF1FE481FF1F2DE9F04788B06B4C684600F0AFFC9DE80F0084E80F0008AD05E90F002378012B40F0C48000F07EFB00F0C2FDC0B200F05B
:4001C000D5FBA8E05F4B5B68022B23D0032B10D0012B21D100225C4B5A49D1E9020102F0D3FC0022594B02F0F3F902F03DFE824612E00022544B5349D1E9020102F0C4FCAD
:4002000002460B460020524902F0E0F902F02CFE824601E04FF0410A4A4BD3E9024500224C4B2046294602F0F7FDB8B90022494B2046294602F00EFE30B10022464B204650
:40024000294602F0E9FD60B90022434B2046294602F000FE40B9414B1C6807E06FF04F0404E06FF0450401E06FF03B043C4B1868C0EB0A0000F0C0F9384B1868201A00F06A
:400280009FFA13E0374B1B681BB9012000F01AFC04E0012B02D1002000F014FC294D684600F02CFC9DE80F0085E80F00254B5B68059A9A4227D1DDE9060102F033F980460C
:4002C00089460022284B02F083F906460F461D4BD3E9020102F026F904460D4602460B463046394602F0B6FD68B100221E4B4046494602F06BF902460B462046294602F014
:40030000A9FD0028BED10F4D684600F0F7FB9DE80F0085E80F000B4B1B78012B3FF452AF059CDDE9060102F0FDF802F0C5FDC1B2E0B200F0E9FA002000F0C4FB08B0BDE80E
:40034000F08700BFB083FF1F000008400080514000004E400000344000004440C483FF1FE882FF1FA883FF1F0000144008B5FFF70FFF01F037FC40F6B83001F047FC40F620
:40038000B83001F04FFC01F077FC1021002001F0BBFA08BD08B5FFF7FBFE052000F020FF01F020FC4EF6602001F030FC4EF6602001F038FC01F060FC1021002001F0A4FA15
:4003C00008BD00BF90F9B530013390F8B61093FBF1F201FB123390F9B420934201D1012070470020704700BFB0F9B430B3F1FF3F01D1012070470020704700BF70B5044647
:400400000E461546FFF7DEFFE0B92046FFF7ECFF38B1002384F8B43084F8B5302660656070BD94F9B530013394F8B61093FBF1F201FB12335BB284F8B53044F8336004EB3F
:40044000C304656070BD00BF38B5044690F9B450FFF7CAFFD0B904EBC50254F835305068984794F9B43094F9B520934205D1FF2384F8B43084F8B53038BD013394F8B6101E
:4004800093FBF1F201FB123384F8B43038BD00BFFF2380F8B43080F8B5307047142380F8B630FF2380F8B43080F8B530074BC0F8A830074BC0F8AC30064BC0F8B030064B72
:4004C000C0F8A430054BC0F8A0307047C5030000E903000091040000FD0300004904000008B501F0B5FC08BD08B501F0BFFC002001F0C4FC0028FAD001F0D2FC08BD00BFB8
:4005000008B501F0EDFC0122014B1A7008BD00BFAC83FF1F08B5124B1B7833B9002001F0E7FD002001F0F0FD08BD012B06D1012001F0DEFD002001F0E7FD08BD022B06D15B
:40054000012001F0D5FD012001F0DEFD08BD032B05D1002001F0CCFD012001F0D5FD08BDE181FF1F08B5094B1B78032B03D10022064B1A7002E00133044A1370FFF7CAFF95
:40058000034A13680133136008BD00BFE181FF1FE882FF1F08B5084B1B781BB90322064B1A7002E0013B044A1370FFF7B3FF034A1368013B136008BDE181FF1FE882FF1FEE
:4005C00008B50AE001F0D6FC084B1B78002BFBD0FFF7E0FF0022054B1A7001F0A1FD0128F0D00022024B1A6008BD00BFAC83FF1FE882FF1F0000000038B502F035F922A358
:40060000D3E9002302F0C0FA02F076FC02F03EF901F088FF02F028FC051E17DD1C4B1B68EA18642A01DDC3F1640500240BE001F0A1FC184B1B78002BFBD0FFF793FF002255
:40064000144B1A700134A542F1DC38BD002D1ADA0F4B1B685B429D4202DCFFF7B1FF38BD9D420DDC38BD01F085FC0A4B1B78002BFBD0FFF78FFF0022064B1A70013C00E015
:400680000024AC42EFDC38BDCDCCCCCCCCCCFC3FE882FF1FAC83FF1F08B5002001F028FD002001F031FD064801F014FD0022054B1A70FFF785FF7620FFF79EFF08BD00BFEA
:4006C00001050000AC83FF1F08B501F091FC0122014B1A7008BD00BFC883FF1F08B5124B1B7833B9002001F023FD002001F02CFD08BD012B06D1012001F01AFD002001F080
:4007000023FD08BD022B06D1012001F011FD012001F01AFD08BD032B05D1002001F008FD012001F011FD08BDE081FF1F08B5094B1B78032B03D10022064B1A7002E001338B
:40074000044A1370FFF7CAFF034A13680133136008BD00BFE081FF1FC483FF1F08B5084B1B781BB90322064B1A7002E0013B044A1370FFF7B3FF034A1368013B136008BDC8
:40078000E081FF1FC483FF1F08B50AE001F07AFC084B1B78002BFBD0FFF7C8FF0022054B1A7001F0DDFC0128F0D00022024B1A6008BD00BFC883FF1FC483FF1F00000000C4
:4007C00038B502F051F822A3D3E9002302F0DCF902F092FB02F05AF801F0A4FE02F044FB051E19DA1C4B1B68EA1812F1640F02DA6FF06305ED1A00240BE001F043FC174B1C
:400800001B78002BFBD0FFF7A9FF0022134B1A70013CA542F1DB38BD002D17DD0E4B1B685B429D420FDBFFF7AFFF38BD01F02AFC0A4B1B78002BFBD0FFF778FF0022074BD0
:400840001A70013400E00024AC42EFDB38BD00BFCDCCCCCCCCCCFC3FC483FF1FC883FF1F08B5002001F064FC002001F06DFC064801F0A8FB0022054B1A70FFF785FF6FF018
:400880005C00FFF79DFF08BDC9060000C883FF1F10B50024054B1C70054801F00FFE01F0E3FD204601F018FE10BD00BFED82FF1FE100000008B5622001F086FD012001F040
:4008C0000BFE012000F0A2FC002001F005FE08BD08B5632001F078FD012001F0FDFD012000F094FC002001F0F7FD08BD08B5652001F06AFD012001F0EFFD012000F086FC1F
:40090000002001F0E9FD08BD38B505460C46612001F05AFD012001F0DFFD012000F076FC002001F0D9FD052000F05AFC284601F04BFD012001F0D0FD012000F067FC0020CB
:4009400001F0CAFD052000F04BFC204601F03CFD012001F0C1FD012000F058FC002001F0BBFD052000F03CFC38BD00BF10B50446662001F029FD012001F0AEFD012000F05A
:4009800045FC002001F0A8FD052000F029FC204601F01AFD012001F09FFD012000F036FC002001F099FD052000F01AFC10BD00BF10B5384801F0FCF8374C207801F0ECF82F
:4009C000364801F0F5F82378413B0A2B5ED8DFE803F0060A0E12161A26313C4853000020FFF78EFB52E00220FFF78AFB4EE00120FFF786FB4AE00420FFF782FB46E0032093
:400A0000FFF77EFB42E0264B1B78022B3ED12548D0F8A4306FF004022349984736E0204B1B78022B32D11F48D0F8A43005221E4998472BE01A4B1B78022B27D11948D0F827
:400A4000A43005221949984720E0154B1B78022B1CD11448D0F8A4306FF004021349984714E00F4B1B78022B10D10E48D0F8A43001220F49984709E0094B1B78022B05D187
:400A80000848D0F8A4300022094998470022094B1A7010BD1C300000EC82FF1F44300000EE82FF1FF082FF1FF9050000C1070000C50A0000ED82FF1F08B5002001F044FC90
:400AC00008BD00BF08B510B901F03EFC08BD012802D1012001F038FC08BD00BF08B5002001F032F8002001F03BF80022024B1A7001F01CF808BD00BFC083FF1F2DE970434E
:400B000084B00646012001F01FF80A2000F07EFB002001F019F801F02FF80128FBD16FF07F4000F0CBFF01F027F80128FBD000F0CDFF01F089FE02460B464FF06040744905
:400B400001F044FD0022734B02F01EF80022724B02F01AF804460D46704801F029F83C2000F03EFB012000F0FBFF0A2000F04EFB002000F0F5FF01F007F80128FBD16FF0D6
:400B80007F4000F09BFF00F0FFFF0128FBD000F09DFF01F059FE02460B464FF060405C4901F014FD00225B4B01F0EEFF00225A4B01F0EAFF80468946594800F0F9FF002290
:400BC000584B2046294602F027F938B90022564B2046294602F03EF918B904E00024002501E00024002500224E4B4046494602F013F938B900224C4B4046494602F02AF9EF
:400C000028B908E04FF000084FF0000903E04FF000084FF00009002200232046294602F0F1F808BB002200234046494602F0EAF8D0B942464B462046294601F0C9FC0022B5
:400C40003A4B01F077FE0022394B01F0BFFC01238DF8003002230193CDE9020104AB13E90F0086E80F004EE0002200232046294602F0C8F8C8B9002200234046494602F0EE
:400C8000C1F890B101238DF80030032301930022274B2046294601F099FCCDE9020104AB13E90F0086E80F002DE0002200232046294602F0A7F8C8B100220023404649463D
:400CC00002F0A0F890B901238DF80030019300224FF080434046494601F078FCCDE9020104AB13E90F0086E80F000CE000238DF80030019300220023CDE9022304AB13E903
:400D00000F0086E80F00304604B0BDE8708300BFFFFF6F410000384000004D4038300000483000000000044000804B400000E03F0000144008B501F0D1FA08BD0000000013
:400D4000D0B501F0D9FA002001F0DEFA48B301F0EDFA84B2B4F5756F21D204FB04F001F083FD11A3D3E9002301F0E4FD06460F46204601F079FD0EA3D3E9002301F0DAFD29
:400D800002460B463046394601F022FC0AA3D3E9002301F01DFC02F08FF880B2D0BD0020D0BD0020D0BD00BF58930266193D323F17D9CEF753E303C0000000000033B640BE
:400DC000FEE700BFF0B40022174611E050F82760F3B226F0FF0608E001EB420511F812406D78A5550132013BDBB2002BF4D10137232FEBD9F0BC704708B50A46002102F09A
:400E000002F908BDF8B51F4B1B78DBB21E4E3478E4B21E4F3D78EDB203F007011C4A11701B090132137044F00303337045F003033B702022174B1A700121E033197040237E
:400E400001F1804101F5B2410B7002310B7006310B7002310B70102301F215210B7003310A7002200531087003310A700A4A13700A2000F0CBF93D7034704422074B1A7002
:400E8000F8BD00BFCF010049F8460040F94600406E5800401D510040585B00407658004008B502F0A5F808BD38B50B22344B1A801823344A13702F210232118002321370A7
:400EC0003321023211800232137045F6BF51023211800232137008222B492C48FFF7E0FF02222B4B1A7008224FF040231A70032103F500731970274B1B78DBB226490B7066
:400F0000264B1A8041F25122023B1A80002419250CE0234B1B7803F0010343EA440404F003044FF4F07001F0E3FA013D0DB1032CEFD115B90320FFF743FF1A4B4FF4807254
:400F40001A8007221A70002217490A704820023108701A700222033B1A7004220A331A70124A137843F00F031370013A137843F003031370013A137843F08003137038BD8D
:400F800080400040824000406C0A0048004100400043004008010049A146004022420040254200400440004006400040A243004038B572B6324A137843F00403137000247D
:400FC0000CE0304D630019194A0011462A44084691882858FFF710FF0134E4B2052CF0D929494FF09040FFF7EDFE284A137843F0020313701032137843F002031370244C21
:40100000237843F040032370A2F58632513A137843F01003137008221E491F48FFF740FF0A221E491E48FFF73BFF08221D491E48FFF736FF08221D491D48FFF731FF082222
:401040001C491D48FFF72CFF08221C491C48FFF727FF1C4A137843F0080313701A4D61232B70FFF721FF81232B700122174B1A70FFF7C8FE0E2221461548FFF711FF38BD2F
:40108000E8460040583000009000004803500140A0430040380A004802510040400A0048C05100404C0A0048F2510040540A0048125100405C0A004822510040640A00482A
:4010C00032510040224300400048004004000840B043004008B501F05FFF03680C2B00D1FEE7FEE708B5104E104D16E029686B68AC68002204E051F8040B43F8040B043274
:40110000A242F8D1E868002203E0002143F8041B04328242F9D11035013E002EE6D101F041FFFEF7FFFFFEE701000000A430000008B5104A104B1A60104A136843F40073BC
:40114000136000230AE0032B03D80D4A52F8231000E00C490C4A42F8231001332F2BF2D90A4B1A780A4B1A70074A0A4B1A60FFF71FFF08BD0004FA050CED00E014ED00E045
:4011800000000000D51000000080FF1FBC760040C080FF1F08ED00E0024A137843F002031370704700430040024A137843F004031370704700430040074B1B78DBB220B12A
:4011C00043F0100204490A7003E003F0EF0202490A70C3F3001070470043004001BE704710B5044605E0084B186801F081F9A4F50044B4F5004FF6D8034B586800FB04F00F
:4012000001F076F910BD00BFE080FF1F08B5034B1B7A00FB03F001F06BF908BDE080FF1F38B5054601F06CF9064B1978064A13780B4303F0070423EA0503137001F064F9A1
:40124000204638BDFA4600407481FF1F2DE9F0410746884601F054F906461A4B1C6804F00104012580331D60174A137803F0BF031370033A137808F00F0103F0F003194326
:401280001170013213782B4313702846FFF7BEFF2846FFF7C5FF2FB10B4A137843F04003137004E0084A137803F0BF0313700122064B1A60A3F5C0731C60304601F024F94A
:4012C000BDE8F08100E100E0F746004080E200E0F8B507460C4601F013F90646194B1D6805F00105012080331860174A137803F07F0313702101C9B2033A137803F00F0345
:40130000194311700132137843F002031370FFF77DFF0220FFF784FF2FB10B4A137843F08003137004E0084A137803F07F0313700122064B1A60A3F5C0731D60304601F0FB
:40134000E3F8F8BD00E100E0F746004080E200E008B50A4A137803F0FE0313700232137803F0BF0313700120FFF75AFF0120FFF757FF10F0010FF9D108BD00BFF54600409D
:4013800008B5084A137803F0FD0313700232137803F07F0313700220FFF742FF10F0020FF9D108BDF5460040F8B501F0A9F807460E4E346804F0010401250D4B1D600D4A23
:4013C000137803F07F031370023A137843F0040313702846FFF71AFF0420FFF721FF064B1D603460384601F08FF8F8BD00E100E080E100E0F746004080E200E008B5064A54
:40140000137803F0FB0313700420FFF709FF10F0040FF9D108BD00BFF546004070B504460E46074B1D681F2802D90020FFF7D6FE04F01F04103455F8240045F8246070BD4F
:4014400008ED00E038B504460D46072902D90020FFF7C4FE1F2C02D90020FFF7BFFE04F01F0000F1604000F564406D01EDB2057038BD00BF2DE9F04FDFF8BCA19AF8002083
:40148000554B9A72DFF8B49199F80020DA72534A12781A73524A12785A73524A12789A73514A1278DA73514A12781A74504A12785A74504A12789A744F4A1278DA744F4A3A
:4014C00012781A754E4A12785A754E4A12789A754D4A1278DA754D4A12781A764C4A12785A764C4A12789A76DFF854B19BF80020DA76DFF8508198F800201A77DFF848C1C8
:401500009CF800205A77DFF844E19EF800209A77414F3A78DA77414E327883F82020404D2A7883F821203F4C227883F822203E48027883F823203D490A7883F824203C4A04
:40154000127883F8252000238AF8003089F80030224A13700132137002321370023213700232137006321370023213700132137001321370023213700232137002321370CE
:401580000632137002321370013213708BF8003088F800308CF800308EF800303B7033702B70237003700B7017321370214B1B7813F0080F0AD00122074B83F82F201D4A67
:4015C000137803F0F7031370BDE8F08F0022024B83F82F20BDE8F08F9081FF1F035A0040045A0040065A0040085A00400A5A0040105A0040125A0040135A0040145A00406E
:40160000165A0040185A00401A5A0040205A0040225A0040235A0040305A0040325A0040335A0040345A0040365A0040385A00403A5A004022430040005A0040025A0040DF
:40164000245A0040265A0040285A00402A5A0040334B997A334A1170D97A02321170197B01321170597B01321170997B02321170D97B02321170197C02321170597C0632D6
:401680001170997C02321170D97C01321170197D01321170597D02321170997D02321170D97D02321170197E06321170597E02321170997E01321170D97E01321170197FE1
:4016C00002321170597F02321170997F02321170D97F0632117093F820100232117093F821100132117093F822100132117093F823100232117093F824100232117093F807
:4017000025100232117093F82F30012B06D1A2F5B852183A137843F008031370704700BF9081FF1F005A004008B5234B1B7813F0010F12D0214B012283F82620204A12785D
:4017400002F00F0283F827201E4A1278C2F3801283F82B20FFF7FCFD03E00022174B83F82620154B1B7813F0020F10D0134B012283F82820124A1278120983F82920114A43
:401780001278D20983F82C20FFF7FAFD03E000220A4B83F82820084B1B7813F0040F06D00122064B83F82A20FFF728FE08BD0022024B83F82A2008BDF54600409081FF1F64
:4017C000F4460040F746004010B51E4B1B7813F0040F04D01B4A137803F0FB0313700120FFF7EAFC184B187018490A78C2F340025A700A78C2F380029A70154B1B7813F09E
:40180000100F08D10022104BDA70114A137843F01003137002E001220B4BDA70FFF784FFFFF728FE0B480278074BDA710A490A781A720A4A14785C72FF230370B0200870AA
:40184000137010BD314300409081FF1F004300408346004085460040864600408A46004008B5104B93F82630012B06D10D4B93F8271093F82B00FFF7E9FC0A4B93F82830A3
:40188000012B06D1074B93F8291093F82C00FFF71FFD044B93F82A30012B01D1FFF784FD08BD00BF9081FF1F10B5FFF7D9FFFFF7CFFE114B5B78012B01D1FFF76DFC0E4BAF
:4018C0009B78012B01D1FFF76FFC0B4C2078FFF773FCE37823B9094A137803F0EF031370054BD979064A1170197A013211705A7A044B1A7010BD00BF9081FF1F834600407A
:40190000854600408A46004038B50C4610B10020FFF764FC124D2A78124B1A71C4F307122A70114802785A7104F00F0202700F490A789A71C4F300340C700D4C227802F07D
:40194000F80242F001022270227800BF00BF30BF1A792A705A7902709B790B7038BD00BF984300409081FF1F994300409A4300409343004038B5044600F0C2FD0546334BA2
:401980001B7813F0080F22D1314A137803F01F031370FFF719FF2F490B782F4A1371C4F3071303F00403DBB20B702C4B1978517104F00F041C7001331978917100221A7040
:4019C000A3F5CD731B7813F0070F03D007E000F09BFD38BD0122204B83F82E200DE01E49002381F82E301E4B1A7802F0070281F82D201A7802F0F8021A70144A137803F0E7
:401A0000F80343F004031370137800BF00BF30BF114B93F82E30012B08D011490B780E4A92F82D2003F0F80313430B70FFF73CFF094B1979074A11705979013211709A7960
:401A4000084B1A70284600F05FFD38BD9343004083460040984300409081FF1F99430040004200409A43004008B54020FFF782FF08BD00BF024A137843F0800313707047D7
:401A800075650040014B1870704700BF86650040014B1878704700BF6665004008B50146014800F035FD08BD24650040024B186820F07F40704700BF4465004008B501463E
:401AC000014800F025FD08BD04650040034B1B78034B186820F07F40704700BF046500404465004008B501E0FFF7E0FFFFF7D0FF10F0080FF8D108BD08B56FF07F40FFF7E9
:401B0000CDFF6FF07F40FFF7D9FF00F0F9FC064A137843F01003137000F0F6FCFFF7E2FF0020FFF7AFFF08BD9665004008B5054B1B7823B9FFF7E0FF0122024B1A70FFF7A6
:401B400099FF08BDD381FF1F044A137803F0DF03400100F0200018431070704730510040044A137803F0BF03800100F0400018431070704730510040024B1878C0F3C00062
:401B8000704700BF31510040024B1878C0F30010704700BF31510040034B1B7813F0040FFAD1024B18707047616400404164004038B5074B1B782BB938BDFFF7EDFF01341B
:401BC000A4B201E005460024285D0028F5D138BDD481FF1F024A137843F08003137070477D640040024A137803F07F03137070477D640040014B1870704700BF8D6400405A
:401C0000014B1878704700BF6D640040014B1880704700BF58680040014B188880B2704798680040014B1880704700BF1868004008B501E0FFF7F0FFFFF7E2FF10F0080F47
:401C4000F8D108BD08B540F2E730FFF7DFFF40F2E730FFF7E7FF00F053FC064A137843F01003137000F050FCFFF7E2FF0120FFF7C1FF08BD9D64004008B5054B1B7823B988
:401C8000FFF7E0FF0122024B1A70FFF7A3FF08BDD681FF1F014B1B685864704708ED00E04001C0B2014B1870704700BF01E400E00222014B1A60704700E100E00222014BD8
:401CC0001A60704780E100E010B50446FFF7F6FF2046FFF7DFFF0420FFF7E2FFFFF7E8FF10BD00BF08B50A280FD00C2802D0082806D102E04FF4805209E04FF4807206E004
:401D00000020FFF76BFA002201E04FF480620021094B198042F2107303FB02F303F6C413064A82FB0302DB17C3EBE223044A1360044B198008BD00BFD283FF1FAD8BDB68E6
:401D4000CC83FF1FD083FF1F10B500F0D9FB04461E4A137843F0020313701032137843F0020313701A3A137843F0010313701032137843F00103137002F5AA521A32137892
:401D800043F0030313701822114B1A70013B1A7842F040021A701A7802F0FC021A70C822053B1A700222A3F59753123B1A70094A137843F0080313700A20FFF727FA4022FC
:401DC000054B1A60204600F09FFB10BDAB4300400E5900402F5B004080E200E010B504460A280DD00C2802D0082804D101E0C22207E0422205E00020FFF7F0F9C22200E09A
:401E00008222034B1A702046FFF76CFF10BD00BF0A59004008B5102000F050F807210620FFF710FB07490620FFF7F8FA064A137843F0060313700C20FFF7D0FF0022034B63
:401E40001A8008BDB91E000009590040D483FF1F08B5054B1B7823B9FFF7DCFF0122024B1A70FFF771FF08BDD781FF1F024A137843F00103137070470859004010B5074B2D
:401E80001B7813F0010401D10028F8D024B10120FFF7BCF9014B1B78204610BD09590040034B188880B2034B1B88C01A00B27047A25B0040D083FF1F704700BF034B1A7818
:401EC00000F0F80010431870704700BF02410040024A137843F08003137070477B650040024A137803F07F03137070477B650040014B1870704700BF89650040014B187845
:401F0000704700BF69650040014B1880704700BF506A0040014B188880B27047906A0040014B1880704700BF106A004008B501E0FFF7F0FFFFF7E2FF10F0080FF8D108BDA7
:401F400008B541F64B50FFF7DFFF41F64B50FFF7E7FF00F0D5FA064A137843F01003137000F0D2FAFFF7E2FF0120FFF7C1FF08BD9965004008B5054B1B7823B9FFF7E0FF2F
:401F80000122024B1A70FFF7A3FF08BDD881FF1F014B1B68D864704708ED00E04001C0B2014B1870704700BF03E400E00822014B1A60704700E100E00822014B1A607047E9
:401FC00080E100E010B50446FFF7F6FF2046FFF7DFFF0320FFF7E2FFFFF7E8FF10BD00BF024A137843F080031370704779640040024A137803F07F03137070477964004082
:40200000014B1870704700BF89640040014B1878704700BF69640040014B1880704700BF50680040014B188880B2704790680040014B1880704700BF1068004008B501E0BB
:40204000FFF7F0FFFFF7E2FF10F0080FF8D108BD08B541F64B50FFF7DFFF41F64B50FFF7E7FF00F04DFA064A137843F01003137000F04AFAFFF7E2FF0120FFF7C1FF08BD6C
:402080009964004008B5054B1B7823B9FFF7E0FF0122024B1A70FFF7A3FF08BDD981FF1F014B1B689864704708ED00E04001C0B2014B1870704700BF02E400E00422014B37
:4020C0001A60704700E100E00422014B1A60704780E100E010B50446FFF7F6FF2046FFF7DFFF0320FFF7E2FFFFF7E8FF10BD00BF044A137803F07F03C001C0B21843107017
:40210000704700BF20510040044A137803F0BF03800100F0400018431070704720510040024B1878C0F34010704700BF21510040044A137803F0EF03000100F010001843D4
:402140001070704720510040044A137803F0F703C00000F0080018431070704720510040024B187800F00100704700BF2151004008B50A280FD00C2802D0082806D102E003
:402180004FF4805209E04FF4807206E00020FFF725F8002201E04FF480620021094B198042F2107303FB02F303F6C413064A82FB0302DB17C3EBE223044A1360044B198003
:4021C00008BD00BFE283FF1FAD8BDB68DC83FF1FE083FF1F10B500F093F904461E4A137843F0010313701032137843F0010313701A3A137843F0020313701032137843F006
:402200000203137002F5AA521232137843F0030313701822114B1A70013B1A7842F040021A701A7802F0FC021A70C822053B1A700222A3F597530C3B1A70094A137843F064
:40224000080313700A20FEF7E1FF8022054B1A60204600F059F910BDAB43004006590040275B004080E200E010B504460A280DD00C2802D0082804D101E0C22207E04222E6
:4022800005E00020FEF7AAFFC22200E08222034B1A702046FFF76CFF10BD00BF0259004008B5102000F05CF807210846FFF7CAF807490720FFF7B2F8064A137843F00603C0
:4022C00013700C20FFF7D0FF0022034B1A8008BD4523000001590040D883FF1F08B5054B1B7823B9FFF7DCFF0122024B1A70FFF771FF08BDDA81FF1F024A137843F0010327
:40230000137070470059004010B5074B1B7813F0010401D10028F8D024B10120FEF776FF014B1B78204610BD01590040034B188880B2034B1B88C01A00B27047A05B0040BB
:40234000E083FF1F704700BF044A137803F07F03C001C0B218431070704700BF10510040034B1A7800F0F80010431870704700BF0641004008B500F0C3F80B4A137843F0D8
:40238000200313700632137843F0100313700232137843F01003137000F0B6F84FF48072024B1A6008BD00BF9464004000E100E0014B1878704700BF6A640040014B187810
:4023C000704700BF6C640040014B1870704700BF0B640040014B1878704700BF5B64004008B501E00A4B1B780A4B1B7813F0080FF8D100F085F8084B1A7842F003021A70A9
:402400001A7802F0FC021A7000F07EF808BD00BF5B6400406C6400409B64004008B507220D4B1A704FF480720C4B1A600C490820FEF7F4FF00210820FFF704F8FFF7D0FF25
:40244000FFF7B6FFFFF7BAFF0022064B1A70082202331A7008BD00BF8464004080E100E0852400008A64004008B5054B1B7823B9FFF7D4FF0122024B1A70FFF77BFF08BDE4
:40248000DB81FF1F704700BF014B1B685865704708ED00E04001C0B2014B1870704700BF05E400E02022014B1A60704700E100E02022014B1A60704780E100E010B50446BF
:4024C000FFF7F6FF2046FFF7DFFF0020FFF7E2FFFFF7E8FF10BD00BF044A137803F07F03C001C0B218431070704700BF005100400230800803D000BF01380046FCD17047A5
:40250000EFF3108072B6704780F31088704700BFCBB20370C1F307234370C1F307418170704700BFF8B5C1F30A56A6F2FF35132D0A460B460446864611DC002D2EDB0F46E9
:402540001F4929410A4225D04FF400232B413B4423EA01030026194634462046F8BD332D05DDB5F5806F1FD011462046F8BDA6F213464FF0FF3121FA06F63042F4D00122C0
:40258000C5F1330502FA05F52D1828BF9B1825EA0606E0E70028D7D11146E6E7013501F0004307D00026D6E702460B4600F010F80446D2E743F07F5343F440130026CAE764
:4025C000FFFF0F0081F0004102E000BF83F0004330B54FEA41044FEA430594EA050F08BF90EA020F1FBF54EA000C55EA020C7FEA645C7FEA655C00F0E2804FEA5454D4EB43
:402600005555B8BF6D420CDD2C4480EA020281EA030382EA000083EA010180EA020281EA0303362D88BF30BD11F0004F4FEA01314FF4801C4CEA113102D0404261EB41014D
:4026400013F0004F4FEA03334CEA133302D0524263EB430394EA050F00F0A780A4F10104D5F1200E0DDB02FA0EFC22FA05F2801841F1000103FA0EF2801843FA05F35941BC
:402680000EE0A5F120050EF1200E012A03FA0EFC28BF4CF0020C43FA05F3C01851EBE37101F0004507D54FF0000EDCF1000C7EEB00006EEB0101B1F5801F1BD3B1F5001F50
:4026C0000CD349085FEA30004FEA3C0C04F101044FEA445212F5800F80F09A80BCF1004F08BF5FEA500C50F1000041EB045141EA050130BD5FEA4C0C404141EB010111F42A
:40270000801FA4F10104E9D191F0000F04BF01460020B1FA81F308BF2033A3F10B03B3F120020CDA0C3208DD02F1140CC2F10C0201FA0CF021FA02F10CE002F11402D8BFDD
:40274000C2F1200C01FA02F120FA0CFCDCBF41EA0C019040E41AA2BF01EB0451294330BD6FEA04041F3C1CDA0C340EDC04F11404C4F1200220FA04F001FA02F340EA0300E3
:4027800021FA04F345EA030130BDC4F10C04C4F1200220FA02F001FA04F340EA0300294630BD21FA04F0294630BD94F0000F83F4801306BF81F480110134013D4EE77FEAE0
:4027C000645C18BF7FEA655C29D094EA050F08BF90EA020F05D054EA000C04BF1946104630BD91EA030F1EBF0021002030BD5FEA545C05D14000494128BF41F0004130BD40
:4028000014F580043CBF01F5801130BD01F0004545F0FE4141F470014FF0000030BD7FEA645C1ABF194610467FEA655C1CBF0B46024650EA013406BF52EA033591EA030F96
:4028400041F4002130BD00BF90F0000F04BF0021704730B54FF4806404F132044FF000054FF0000150E700BF90F0000F04BF0021704730B54FF4806404F1320410F00045D5
:4028800048BF40424FF000013EE700BF42004FEAE2014FEA31014FEA02701FBF12F07F4393F07F4F81F06051704792F0000F14BF93F07F4F704730B54FF4607401F000458D
:4028C00021F0004120E700BF50EA010208BF704730B54FF000050AE050EA010208BF704730B511F0004502D5404261EB41014FF4806404F132045FEA915C3FF4DCAE4FF0A1
:4029000003025FEADC0C18BF03325FEADC0C18BF033202EBDC02C2F1200300FA03FC20FA02F001FA03FE40EA0E0021FA02F11444C1E600BF70B54FF0FF0C4CF4E06C1CEA71
:4029400011541DBF1CEA135594EA0C0F95EA0C0F00F0DEF82C4481EA030621EA4C5123EA4C5350EA013518BF52EA033541F4801143F4801338D0A0FB02CE4FF00005E1FB99
:4029800002E506F00042E0FB03E54FF00006E1FB03569CF0000F18BF4EF0010EA4F1FF04B6F5007F64F5407404D25FEA4E0E6D4146EB060642EAC62141EA55514FEAC520C5
:4029C00040EA5E504FEACE2EB4F1FD0C88BFBCF5E06F1ED8BEF1004F08BF5FEA500E50F1000041EB045170BD06F0004646EA010140EA020081EA0301B4EB5C04C2BFD4EB3C
:402A00000C0541EA045170BD41F480114FF0000E013C00F3AB8014F1360FDEBF002001F0004170BDC4F10004203C35DA0C341BDC04F11404C4F1200500FA05F320FA04F0C2
:402A400001FA05F240EA020001F0004221F0004110EBD37021FA04F642EB06015EEA430E08BF20EAD37070BDC4F10C04C4F1200500FA04F320FA05F001FA04F240EA020096
:402A800001F0004110EBD37041F100015EEA430E08BF20EAD37070BDC4F1200500FA05F24EEA020E20FA04F301FA05F243EA020321FA04F001F0004121FA04F220EA0200F3
:402AC00000EBD3705EEA430E08BF20EAD37070BD94F0000F0FD101F00046400041EB010111F4801F08BF013CF7D041EA060195F0000F18BF704703F00046520043EB030334
:402B000013F4801F08BF013DF7D043EA0603704794EA0C0F0CEA135518BF95EA0C0F0CD050EA410618BF52EA4306D1D181EA030101F000414FF0000070BD50EA410606BF20
:402B40001046194652EA430619D094EA0C0F02D150EA013613D195EA0C0F05D152EA03361CBF104619460AD181EA030101F0004141F0FE4141F470014FF0000070BD41F0CD
:402B8000FE4141F4780170BD70B54FF0FF0C4CF4E06C1CEA11541DBF1CEA135594EA0C0F95EA0C0F00F0A7F8A4EB050481EA030E52EA03354FEA013100F088804FEA03332F
:402BC0004FF0805545EA131343EA12634FEA022245EA111545EA10654FEA00260EF000419D4208BF964244F1FD0404F5407402D25B084FEA3202B61A65EB03055B084FEA0D
:402C000032024FF480104FF4002CB6EB020E75EB030E22BFB61A754640EA0C005B084FEA3202B6EB020E75EB030E22BFB61A754640EA5C005B084FEA3202B6EB020E75EB95
:402C4000030E22BFB61A754640EA9C005B084FEA3202B6EB020E75EB030E22BFB61A754640EADC0055EA060E18D04FEA051545EA16754FEA06164FEAC30343EA52734FEAE6
:402C8000C2025FEA1C1CC0D111F4801F0BD141EA00014FF000004FF0004CB6E711F4801F04BF01430020B4F1FD0C88BFBCF5E06F3FF6AFAEB5EB030C04BFB6EB020C5FEA6F
:402CC000500C50F1000041EB045170BD0EF0004E4EEA113114EB5C04C2BFD4EB0C0541EA045170BD41F480114FF0000E013C90E645EA060E8DE60CEA135594EA0C0F08BF2C
:402D000095EA0C0F3FF43BAF94EA0C0F0AD150EA01347FF434AF95EA0C0F7FF425AF104619462CE795EA0C0F06D152EA03353FF4FDAE1046194622E750EA410618BF52EAE5
:402D400043067FF4C5AE50EA41047FF40DAF52EA43057FF4EBAE12E74FF0FF3C06E000BF4FF0010C02E000BF4FF0010C4DF804CD4FEA410C7FEA6C5C4FEA430C18BF7FEA00
:402D80006C5C1BD001B050EA410C0CBF52EA430C91EA030F02BF90EA020F0020704710F1000F91EA030F58BF994208BF90422CBFD8176FEAE37040F0010070474FEA410C06
:402DC0007FEA6C5C02D150EA013C07D14FEA430C7FEA6C5CD6D152EA033CD3D05DF8040B704700BF8446104662468C461946634600E000BF01B5FFF7B7FF002848BF10F155
:402E0000000F01BD4DF808EDFFF7F4FF0CBF012000205DF808FB00BF4DF808EDFFF7EAFF34BF012000205DF808FB00BF4DF808EDFFF7E0FF94BF012000205DF808FB00BF61
:402E40004DF808EDFFF7CEFF94BF012000205DF808FB00BF4DF808EDFFF7C4FF34BF012000205DF808FB00BF4FEA410212F5001215D211D56FF47873B3EB625212D94FEA46
:402E8000C12343F0004343EA505311F0004F23FA02F018BF404270474FF00000704750EA013005D111F0004008BF6FF0004070474FF00000704700BF4A0011D212F50012E9
:402EC00011D20DD56FF47873B3EB62520ED44FEAC12343F0004343EA505323FA02F070474FF00000704750EA013002D14FF0FF3070474FF0000070474FEA4102B2F1E043D1
:402F000024BFB3F5001CDCF1FE5C0DD901F0004C4FEAC0024CEA5070B2F1004F40EB830008BF20F00100704711F0804F21D113F13872BCBF01F00040704741F480114FEAAE
:402F40005252C2F11802C2F1200C10FA0CF320FA02F018BF40F001004FEAC1234FEAD32303FA0CFC40EA0C0023FA02F34FEA4303CCE77FEA625307D150EA01331EBF4FF099
:402F8000FE4040F44000704701F0004040F0FE4040F40000704700BF014B1868704700BF5081FF1F0E4B70B51E460E4C0025E41AA410A54204D056F8253098470135F8E7C9
:402FC00000F05EF8084B094C1E46E41AA4100025A54204D056F8253098470135F8E770BD8C3000008C3000008C3000009430000010B5431E0A44914204D011F8014B03F8C6
:40300000014FF8E710BD03460244934202D003F8011BFAE77047000000000000436F6D6D616E642072656365697665642066726F6D205350493A20007265616420312064DE
:403040006F6E65200A0D000072656164203220646F6E65200A0D000040510040300000000140001000140140000800400140000A004C01400002005001402000430000002F
:40308000F8B500BFF8BC08BC9E4670474D00000031110000F8B500BFF8BC08BC9E46704729000000B8300000C880FF1F900000009002000000000000000000006D0300007A
:4030C0009503000085000000A9000000D90000000000E02EC05D00001800000000366E01000000000000000000000000000000000000000000000000000000000000000049
:403100007C300000000000000000000000000000000000000000000000000000000000000000000000000000000000000000000000000000000000000000000000000000E3
:40314000F080FF1F000000000000000000000000000000000000000000000000000000000000000000000000000000000000000000000000000000000000000000000000C1
:40318000000000000000000000000000000000000000000000000000000000000000000000000000000000000000000000000000000000000000000000000000000000000F
:4031C00000000000000000000000000000000000000000000000000000000000000000000000000000000000000000000000000000000000000000000000000000000000CF
:40320000000000000000000000000000000000000000000000000000000000000000000000000000000000000000000000000000000000000000000000000000000000008E
:40324000000000000000000000000000000000000000000000000000000000000000000000000000000000000000000000000000000000000000000000000000000000004E
:020000040003F7
:0200000480007A
:4000000006520040015B004007640040046500403E000140320101400C0301404B0401403C050140080701405508014036090140380A01403C0B0140420C01401F0D01406E
:40004000441401402E15014040160140241701405D180140401901404A1A0140411B014007400140144101400D420140054301400246014001470140054801400C49014051
:40008000024C0140084D01400A500140035101400020012018011901618064402721810F84078872890D8A478C788D0D860D870D890D8A3805010603070E090C0B030F0CAF
:4000C00012061A012101220523062406260127032E022F083407350F3A203B20580459045C225F0180018401870189029B019D01A402A501AA01AB01B502B603B701B88058
:40010000BF50C013C106C50CC6E0C7B0C829C9FFCAFFCBFFCEF0CF44D00CD401D804D904DA04DB04DC02DD22DF01E6C0EA40EB0203200408074008100B80104112201410AA
:4001400015201620180819101B201F40211022202640270828512B012E202F20344036203740380839203B803C203F04462047404C044F04541056015D205E815F08652020
:400180006704C034C20AC46DCA6BCC30CE6ED050D220D6F08A029120938499109A019E209F40A701AC10AE01E420E64000100101020C03020501060307040C200D100F0194
:4001C00010091210131E141C150116021708180C1A111C1023012C143020321F371F3E013F405602572C580459045B245C025D805E085F21850387048803950A96019704DF
:4002000099039B049D039F0CA308A802AB05AC03B10FB403B820BB02BE10C002C540C9FFCA07CBFFCC40CD20CEF0CF05D008D804D904DA04DC20DD02DF01E040E1A8E24000
:40024000E320010802020340051008180B810F201201140815201740184019081D202001274029022E202F403008310234183510374039453F0445204F03562057106040F2
:40028000681A694579087A0288108C0A9128938499129A019E209F40A202A701A902B104C04DC22FC4C1CAA1CC73CE4BD020D801DE0AE602EA04EC80EE0280509108990A4F
:4002C000A502B101B441E205EE010D01110124012501280129012C01350136013F10405449FF4AFF4BFF4F01501856025711580459045A045B045C025D215F016040624058
:4003000064406540668068806A806C806E80801F8404881C8A028C1C8E018F0192039620970198079A189E04A010A408A818AE20B41FB620B701BA20BE40C054C5ECC7221D
:40034000C833C9FFCAFFCBFFCD83CE03CF01D018D280D401D804D904DA04DB04DC12DD11DF01E040E240E440E540E680E880EA80EC80EE800080012609080B8A10A8134000
:4003800015401714180819601B201F40230226102F24310835023B403C804102450249054B404F40510A59455E206D506F14734074B87610772083149C809E80A308AD4027
:4003C000AF04B308B401B720C00FC20FC4EFCA60CC82CE18D081D218D62BE840EC90EE010B010C010D0126012A01330136013E403F045441580459045B045F0188029101B5
:400400009202950198029C02A101A601AB01AF01B001B202B701BE04BF40C003C105C230C402C5BEC60CC7FDC837C9FFCAFFCBFFCC22CEF0CF0CD08CD110D608D804D904C8
:40044000DA24DB04DD08DF31E840E901EAC0EB01004007080D600E401014162019801C401D081E10201026402C802E402F083602370838403A10450847204C414E10554002
:40048000570959845A205E905F0460106414650466707D0182848480888089208D408E42910194809E44A701AA01AF10B101C041C2D0C426CAB0CCC0CE0CD060D210D67E28
:4004C000D872DE80E4D0EC8002010E041C0228042C012F0130023101320134043E15404149FF4AFF4BFF4F01501854205604580459045A045B045D035F0160406240644058
:400500006540668068806A806C806E8092019E01B601BE40C041C5ECC602C807C9FFCAFFCBFFCD83CE03CF01D018D280D401D604D804DA04DB04DD33DF01E040E240E44030
:40054000E540E680E880EA80EC80EE80048006C009820E010F0217A019401F1527802E80418245824906518059465E0163806605670A71028B208F40C090C289C4C0CA1069
:40058000D099D68BD8F1E420E64009030D031202150117021C011D021F012201250430013202350437033F10405449FF4AFF4BFF4F0150185280580459045A045B045C2164
:4005C0005D195F016040624064406540668068806A806C806E8083018A019E01B601B701C041C9FFCAFFCBFFCD83CE03CF01D018D280D804D904DA04DB04DC11DD99DF01AB
:40060000E040E240E440E540E680E880EA80EC80EE80041009420C400D800F02104018101A401F402110224025402908324438A03F02430246424801710274017640824075
:40064000851087408A0490A09410964099089A029E40A180A302C040C289C408CA02CC0ACE8CD091D208E002E401E610EE0802012E0130013E01401445EC4720482349FFC3
:400680004AFF4BFF4D834E034F015018540158045A045B045D995F016040624064406540668068806A806C806E808A01A301A601B101B201BE04C030C102C5D0C621C80EEB
:4006C000C9FFCAFFCBFFCDA0CF04D018D405D804D904DA04DB04DC80DD11DF21E040E2C0E440E540E6C0E8C0EAC0ECC0EEC00010064007401020160219041E802102290293
:40070000401041204501474049014D05502051A055015602570259055A405D055E80790890A09108990AA502C012C484CA01D096D6DBDE02EE020002040C060308030A0C63
:400740000E03140318011C08200F2404280C2C0F320F3A08405649FF4AFF4BFF4F015018560858045A045B045C025D015F016040624064406540668068806A806C806E80F2
:400780008007810C8302840785048802890C8C068E018F02920193019401960697019D08A004A10EA50CA702A806A902AB0CB10EB207B701BB02BF40C056C5ECC702C81312
:4007C000C9FFCAFFCBFFCD83CE03CF01D018D401D804D904DA04DB04DC22DD11DF01E040E240E440E540E680E880EA80EC80EE8000A0010202040324040805A00740090838
:400800000B800C900E20108815021601172418201D081F0420802101224029222A012B202D202F043082320839023A143B80480249054A084C024E08520859055A805F408E
:4008400066809008911093809504970A9A109B309C809D029E80A098A328A440AF02C0FFC2ECC4FACA07CC0BCE0FD23CD61BD81007020B0113041B011F02210227042902AD
:4008800031023504370139023A023F504065410442034402450C46E0480949FF4AFF4BFF4C624DA04EF04F41500C54185604580459045A045B045C225D225F016640670209
:4008C00069106A306B106D106E106F12800C8470880C8E0C941C966197019A0CA20CA424A692A870AC48AE12AF01B080B270B403B501B60CBE10D280D804D904DB04DC120A
:40090000DD10DF0105A207100E200F0414701516174019021A401D201E211F0120042182251029222B202C0230603102360838283A203B0441204260482049A04B80532088
:400940005A01608461807402834088208D109028911293809504970299209B109C909D829F40A208A402A610AF48C0F0C260C4F0CA17CC4DCE06D007D20CD601D80DE00207
:40098000E280E610EE0831023310358037023B20CCF0CE1003800680092030803308368037086608688073088A808D8097209D809F12A502C030C240CCF0D8808710972016
:4009C0009F12A502A680A708AB88AE08B120E640EA20EC20EE409F12A502A680AB08EE801A80C608AA409F10A502A680AF02EE4003025F10831287108D029F10A502AE80A7
:400A0000C040D620E210EE101F80C6011040710285028840AF80C408DC01E201000F08040A040C070E09100711011A061B011C0700FF01FF0203000043A0A000200000001B
:400A40008000408080008000000000000000000000000100008B8B000000200021D8D800000000001CE5E100010000000E0018010E001801000000000000000000000000FD
:400A80000000000000000000000000000000000000000000000000000000000000000000000000000000000000000000000000000000000000000000000000000000000036
:400AC00000000000000000000000000000000000000000000000000000000000000000000000000000000000000000000000000000000000000000000000000000000000F6
:400B000000000000000000000000000000000000000000000000000000000000000000000000000000000000000000000000000000000000000000000000000000000000B5
:400B40000000000000000000000000000000000000000000000000000000000000000000000000000000000000000000000000000000000000000000000000000000000075
:0200000490006A
:0400000000004005B7
:0200000490105A
:04000000BC90ACAF55
:0200000490303A
:02000000798005
:0200000490402A
:4000000000000000000000000000000000000000000000000000000000000000000000000000000000000000000000000000000000000000000000000000000000000000C0
:400040000000000000000000000000000000000000000000000000000000000000000000000000000000000000000000000000000000000000000000000000000000000080
:400080000000000000000000000000000000000000000000000000000000000000000000000000000000000000000000000000000000000000000000000000000000000040
:4000C0000000000000000000000000000000000000000000000000000000000000000000000000000000000000000000000000000000000000000000000000000000000000
:0200000490501A
:0C00000000012E16106900012E2C89E969
:00000001FF