:400000000080002011000000ED100000ED10000008B5044B1A6803F53F5302331A6001F06DF800BFFA46004010B5054C237833B9044B13B10448AFF300800123237010BD17
:400040005881FF1F0000000098300000084B10B51BB108490848AFF300800848036803B910BD074B002BFBD0BDE81040184700BF000000005C81FF1F98300000C880FF1F52
:40008000000000000122014B1A607047A883FF1F08B501F0B3FD01F0BFFD08BD08B50448D0F8A03098470A2001F0A6F808BD00BFF082FF1F38B500F037FA40F6B833984231
:4000C00033DD1A4C2068C0F1A50000F0C9FA184D2868C0F1FF2000F57F00883000F0A0FB012000F0F9FC2068C0F1C30000F0B8FA2868C0F1FF2000F57F006A3000F090FBF0
:400100002068C0F1A50000F0ABFA2868C0F1FF2000F57F004C3000F083FB2068C0F1A50000F09EFA002000F0D7FC38BDE882FF1FC483FF1F08B501F0A3FC08BD08B502F0A2
:400140007DF902F087F9034B18700122024B1A7008BD00BFEC82FF1FED82FF1F054B1B78032B06D8044B53F82020044B1A60014B18707047EE82FF1FCC80FF1FE481FF1F92
:4001800008B562B600241C4B1C601C4801F0C6FE1B4801F0A5FD00F04DFA00F02BFB194800F09CF900F0A4FC00F0CEFD00F08EFC00F0B6F900F084FB00F0A2FB2046FFF765
:4001C000CDFF0D4B1B68012B0BD1002000F084FC002000F0D5FB012002F000F90420FFF7BDFF094B1B78012B01D100F0EBFB074B1B689847E5E700BFA883FF1F8500000036
:4002000091000000F082FF1FED82FF1FE481FF1F2DE9F04F89B05E4C684600F079FC9DE80F0084E80F0008AD05E90F002378012B40F0A78000F056FB00F08AFDC0B200F049
:400240009FFB8EE0524B5B68022B04D0032B05D0012B08D105E04FF00F0B04E04FF01E0B01E04FF0000B4A4BD3E902450022494B2046294602F010FEA8B90022454B2046BC
:40028000294602F027FE30B10022434B2046294602F002FE50B900223F4B2046294602F019FE30B907E06FF0B30A04E06FF0950A01E06FF0770A394B1868C0EB0B0000F094
:4002C000CFF9374B1868C0EB0A0000F0A9FA13E0344B1B681BB9012000F0FEFB04E0012B02D1002000F0F8FB294D684600F010FC9DE80F0085E80F00254B5B68059A9A4255
:4003000027D1DDE9060102F04DF9804689460022254B02F09DF906460F461D4BD3E9020102F040F904460D4602460B463046394602F0D0FD68B100221B4B4046494602F08C
:4003400085F902460B462046294602F0C3FD0028BED10F4D684600F0DBFB9DE80F0085E80F000B4B1B78012B3FF46CAF059CDDE9060102F017F902F0DFFDC1B2E0B200F0B2
:40038000CDFA002000F0A8FB09B0BDE8F08F00BFB083FF1F0000344000004440E882FF1FC483FF1FA883FF1F0000144008B5FFF72FFF01F023FC40F6B83001F033FC40F6EF
:4003C000B83001F03BFC01F063FC1021002001F0A7FA08BD08B5FFF71BFF052000F00CFF01F00CFC4EF6602001F01CFC4EF6602001F024FC01F04CFC1021002001F090FA68
:4004000008BD00BF90F9B530013390F8B61093FBF1F201FB123390F9B420934201D1012070470020704700BFB0F9B430B3F1FF3F01D1012070470020704700BF70B5044606
:400440000E461546FFF7DEFFE0B92046FFF7ECFF38B1002384F8B43084F8B5302660656070BD94F9B530013394F8B61093FBF1F201FB12335BB284F8B53044F8336004EBFF
:40048000C304656070BD00BF38B5044690F9B450FFF7CAFFD0B904EBC50254F835305068984794F9B43094F9B520934205D1FF2384F8B43084F8B53038BD013394F8B610DE
:4004C00093FBF1F201FB123384F8B43038BD00BFFF2380F8B43080F8B5307047142380F8B630FF2380F8B43080F8B530074BC0F8A830074BC0F8AC30064BC0F8B030064B32
:40050000C0F8A430054BC0F8A03070470504000029040000D10400003D0400008904000008B501F0A1FC08BD08B501F0ABFC012001F0B0FC0028FAD001F0BEFC08BD00BF83
:4005400008B501F001FD0122014B1A7008BD00BFAC83FF1F08B5124B1B7833B9002001F0FBFD002001F004FE08BD012B06D1012001F0F2FD002001F0FBFD08BD022B06D1B5
:40058000012001F0E9FD012001F0F2FD08BD032B05D1002001F0E0FD012001F0E9FD08BDE181FF1F08B5094B1B78032B03D10022064B1A7002E00133044A1370FFF7CAFF05
:4005C000034A13680133136008BD00BFE181FF1FE882FF1F08B5084B1B781BB90322064B1A7002E0013B044A1370FFF7B3FF034A1368013B136008BDE181FF1FE882FF1FAE
:4006000008B50AE001F0EAFC084B1B78002BFBD0FFF7E0FF0022054B1A7001F0B5FD0128F0D00022024B1A6008BD00BFAC83FF1FE882FF1F08B5002001F08EFD002001F057
:4006400097FD044801F07AFD0022034B1A70FFF7D7FF08BD41050000AC83FF1F0000000038B502F041F922A3D3E9002302F0CCFA02F082FC02F04AF901F094FF02F034FC54
:40068000051E17DD1C4B1B68EA18642A01DDC3F1640500240BE001F0A1FC184B1B78002BFBD0FFF77FFF0022144B1A700134A542F1DC38BD002D1ADA0F4B1B685B429D424E
:4006C00002DCFFF79DFF38BD9D420DDC38BD01F085FC0A4B1B78002BFBD0FFF77BFF0022064B1A70013C00E00024AC42EFDC38BDCDCCCCCCCCCCFC3FE882FF1FAC83FF1F53
:4007000008B501F0A9FC0122014B1A7008BD00BFC883FF1F08B5124B1B7833B9002001F03BFD002001F044FD08BD012B06D1012001F032FD002001F03BFD08BD022B06D131
:40074000012001F029FD012001F032FD08BD032B05D1002001F020FD012001F029FD08BDE081FF1F08B5094B1B78032B03D10022064B1A7002E00133044A1370FFF7CAFF44
:40078000034A13680133136008BD00BFE081FF1FC483FF1F08B5084B1B781BB90322064B1A7002E0013B044A1370FFF7B3FF034A1368013B136008BDE081FF1FC483FF1F34
:4007C00008B50AE001F092FC084B1B78002BFBD0FFF7C8FF0022054B1A7001F0F5FC0128F0D00022024B1A6008BD00BFC883FF1FC483FF1F08B5002001F0CEFC002001F08F
:40080000D7FC044801F012FC0022034B1A70FFF7D7FF08BD01070000C883FF1F0000000038B502F061F822A3D3E9002302F0ECF902F0A2FB02F06AF801F0B4FE02F054FB24
:40084000051E19DA1C4B1B68EA1812F1C80F02DA6FF0C705ED1A00240BE001F047FC174B1B78002BFBD0FFF795FF0022134B1A70013CA542F1DB38BD002D17DD0E4B1B68EA
:400880005B429D420FDBFFF79BFF38BD01F02EFC0A4B1B78002BFBD0FFF764FF0022074B1A70013400E00024AC42EFDB38BD00BFCDCCCCCCCCCCEC3FC483FF1FC883FF1F96
:4008C00010B50024054B1C70054801F037FE01F00BFE204601F040FE10BD00BFED82FF1F3D01000008B5622001F0AEFD012001F033FE012000F096FC002001F02DFE08BD18
:4009000008B5632001F0A0FD012001F025FE012000F088FC002001F01FFE08BD38B505460C46612001F090FD012001F015FE012000F078FC002001F00FFE052000F05CFC6E
:40094000284601F081FD012001F006FE012000F069FC002001F000FE052000F04DFC204601F072FD012001F0F7FD012000F05AFC002001F0F1FD052000F03EFC38BD00BF6C
:4009800010B50446662001F05FFD012001F0E4FD012000F047FC002001F0DEFD052000F02BFC204601F050FD012001F0D5FD012000F038FC002001F0CFFD052000F01CFC0F
:4009C00010BD00BF10B5384801F0FEF8374C207801F0EEF8364801F0F7F82378413B0A2B5ED8DFE803F0060A0E12161A26313C4853000020FFF7B2FB52E00220FFF7AEFB6F
:400A00004EE00120FFF7AAFB4AE00420FFF7A6FB46E00320FFF7A2FB42E0264B1B78022B3ED12548D0F8A4306FF004022349984736E0204B1B78022B32D11F48D0F8A430A9
:400A400005221E4998472BE01A4B1B78022B27D11948D0F8A43005221949984720E0154B1B78022B1CD11448D0F8A4306FF004021349984714E00F4B1B78022B10D10E4892
:400A8000D0F8A43001220F49984709E0094B1B78022B05D10848D0F8A4300022094998470022094B1A7010BD9C300000EC82FF1FC4300000EE82FF1FF082FF1F6106000090
:400AC00021080000D90A0000ED82FF1F08B5002001F06EFC08BD00BF08B510B901F068FC08BD012802D1012001F062FC08BD00BF08B5002001F034F8002001F03DF80022AF
:400B0000024B1A7001F01EF808BD00BFC083FF1F2DE9704384B00646012001F021F80A2000F080FB002001F01BF801F031F80128FBD16FF07F4000F0CDFF01F029F80128A1
:400B4000FBD000F0CFFF01F0BFFE02460B464FF06040744901F07AFD0022734B02F054F80022724B02F050F804460D46704801F02BF83C2000F040FB012000F0FDFF0A2043
:400B800000F050FB002000F0F7FF01F009F80128FBD16FF07F4000F09DFF01F001F80128FBD000F09FFF01F08FFE02460B464FF060405C4901F04AFD00225B4B02F024F84E
:400BC00000225A4B02F020F880468946594800F0FBFF0022584B2046294602F05DF938B90022564B2046294602F074F918B904E00024002501E00024002500224E4B4046D1
:400C0000494602F049F938B900224C4B4046494602F060F928B908E04FF000084FF0000903E04FF000084FF00009002200232046294602F027F908BB0022002340464946D4
:400C400002F020F9D0B942464B462046294601F0FFFC00223A4B01F0ADFE0022394B01F0F5FC01238DF8003002230193CDE9020104AB13E90F0086E80F004EE00022002346
:400C80002046294602F0FEF8C8B9002200234046494602F0F7F890B101238DF80030032301930022274B2046294601F0CFFCCDE9020104AB13E90F0086E80F002DE00022A3
:400CC00000232046294602F0DDF8C8B1002200234046494602F0D6F890B901238DF80030019300224FF080434046494601F0AEFCCDE9020104AB13E90F0086E80F000CE03C
:400D000000238DF80030019300220023CDE9022304AB13E90F0086E80F00304604B0BDE8708300BFFFFF6F410000384000004D40B8300000C83000000000044000804B408D
:400D40000000E03F0000144008B501F0FBFA08BDD0B501F005FB002001F00AFB48B301F019FB84B2B4F5756F21D204FB04F001F0BBFD11A3D3E9002301F01CFE06460F467B
:400D8000204601F0B1FD0EA3D3E9002301F012FE02460B463046394601F05AFC0AA3D3E9002301F055FC02F0C7F880B2D0BD0020D0BD0020D0BD00BF58930266193D323F57
:400DC00017D9CEF753E303C0000000000033B640FEE700BFF0B40022174611E050F82760F3B226F0FF0608E001EB420511F812406D78A5550132013BDBB2002BF4D101375C
:400E0000242FEBD9F0BC704708B50A46002102F03AF908BDF8B51E4B1B78DBB21D4E3478E4B21D4F3D78EDB203F007011B4A11701B090132137044F00303337045F00303AA
:400E40003B700422164B1A700122F0331A70402302F1804202F5B242137002321370063213700232137002F215221370202303321370102105321170033213700A2000F0D3
:400E8000D1F93D7034704422064B1A70F8BD00BFCF010049F8460040F94600406E5800400D5100407658004008B502F0E1F808BD38B50B22344B1A801823344A13702F218E
:400EC00002321180023213703321023211800232137045F6BF51023211800232137008222B492C48FFF7E0FF02222B4B1A7008224FF040231A70032103F500731970274BF4
:400F00001B78DBB226490B70264B1A8041F25122023B1A80002419250CE0234B1B7803F0010343EA440404F003044FF4F07001F01FFB013D0DB1032CEFD115B90320FFF7E9
:400F400047FF1A4B4FF480721A8007221A70002217490A704820023108701A700222033B1A7004220A331A70124A137843F00F031370013A137843F003031370013A1378DB
:400F800043F08003137038BD804000408240004090090048004100400043004008010049A146004022420040254200400440004006400040A243004038B572B6344A13780B
:400FC00043F00403137000240CE0324D630019194A0011462A44084691882858FFF714FF0134E4B2052CF0D92B494FF09040FFF7F1FE2A4A2A4B1A602A4A137843F002034A
:4010000013701032137843F002031370264C237843F040032370A2F58632513A137843F010031370082221492148FFF73DFF0A2220492148FFF738FF082220492048FFF716
:4010400033FF08221F492048FFF72EFF08221F491F48FFF729FF08221E491F48FFF724FF1E4A137843F0080313701D4D61232B70FFF71EFF81232B7001221A4B1A70FFF762
:40108000C9FE0E2221461848FFF70EFF38BD00BFE8460040D83000009400004804040464580C014003500140A04300405C0900480251004064090048C05100407009004896
:4010C000F2510040780900481251004080090048225100408809004832510040224300400048004004000840B043004008B501F093FF03680C2B00D1FEE7FEE708B5104E9D
:40110000104D16E029686B68AC68002204E051F8040B43F8040B0432A242F8D1E868002203E0002143F8041B04328242F9D11035013E002EE6D101F075FFFFF721F8FEE703
:40114000010000002431000008B5104A104B1A60104A136843F40073136000230AE0032B03D80D4A52F8231000E00C490C4A42F8231001332F2BF2D90A4B1A780A4B1A703A
:40118000074A0A4B1A60FFF717FF08BD0004FA050CED00E014ED00E000000000ED1000000080FF1FBC760040C080FF1F08ED00E0024A137843F00203137070470043004075
:4011C000024A137843F004031370704700430040074B1B78DBB220B143F0100204490A7003E003F0EF0202490A70C3F3001070470043004001BE704710B5044605E0084B89
:40120000186801F0B5F9A4F50044B4F5004FF6D8034B586800FB04F001F0AAF910BD00BFE080FF1F08B5034B1B7A00FB03F001F09FF908BDE080FF1F38B5054601F0A0F935
:40124000064B1978064A13780B4303F0070423EA0503137001F098F9204638BDFA4600407481FF1F2DE9F0410746884601F088F906461A4B1C6804F00104012580331D6005
:40128000174A137803F0BF031370033A137808F00F0103F0F00319431170013213782B4313702846FFF7BEFF2846FFF7C5FF2FB10B4A137843F04003137004E0084A137805
:4012C00003F0BF0313700122064B1A60A3F5C0731C60304601F058F9BDE8F08100E100E0F746004080E200E0F8B507460C4601F047F90646194B1D6805F0010501208033B2
:401300001860174A137803F07F0313702101C9B2033A137803F00F03194311700132137843F002031370FFF77DFF0220FFF784FF2FB10B4A137843F08003137004E0084A55
:40134000137803F07F0313700122064B1A60A3F5C0731D60304601F017F9F8BD00E100E0F746004080E200E008B50A4A137803F0FE0313700232137803F0BF0313700120DD
:40138000FFF75AFF0120FFF757FF10F0010FF9D108BD00BFF546004008B5084A137803F0FD0313700232137803F07F0313700220FFF742FF10F0020FF9D108BDF54600405D
:4013C000F8B501F0DDF807460E4E346804F0010401250D4B1D600D4A137803F07F031370023A137843F0040313702846FFF71AFF0420FFF721FF064B1D603460384601F05B
:40140000C3F8F8BD00E100E080E100E0F746004080E200E008B5064A137803F0FB0313700420FFF709FF10F0040FF9D108BD00BFF546004070B504460E46074B1D681F2890
:4014400002D90020FFF7D6FE04F01F04103455F8240045F8246070BD08ED00E038B504460D46072902D90020FFF7C4FE1F2C02D90020FFF7BFFE04F01F0000F1604000F519
:4014800064406D01EDB2057038BD00BF2DE9F04FDFF8BCA19AF80020554B9A72DFF8B49199F80020DA72534A12781A73524A12785A73524A12789A73514A1278DA73514A6B
:4014C00012781A74504A12785A74504A12789A744F4A1278DA744F4A12781A754E4A12785A754E4A12789A754D4A1278DA754D4A12781A764C4A12785A764C4A12789A762A
:40150000DFF854B19BF80020DA76DFF8508198F800201A77DFF848C19CF800205A77DFF844E19EF800209A77414F3A78DA77414E327883F82020404D2A7883F821203F4CBE
:40154000227883F822203E48027883F823203D490A7883F824203C4A127883F8252000238AF8003089F80030224A13700132137002321370023213700232137006321370B4
:401580000232137001321370013213700232137002321370023213700632137002321370013213708BF8003088F800308CF800308EF800303B7033702B70237003700B7084
:4015C00017321370214B1B7813F0080F0AD00122074B83F82F201D4A137803F0F7031370BDE8F08F0022024B83F82F20BDE8F08F9081FF1F035A0040045A0040065A004000
:40160000085A00400A5A0040105A0040125A0040135A0040145A0040165A0040185A00401A5A0040205A0040225A0040235A0040305A0040325A0040335A0040345A004039
:40164000365A0040385A00403A5A004022430040005A0040025A0040245A0040265A0040285A00402A5A0040334B997A334A1170D97A02321170197B01321170597B01322F
:401680001170997B02321170D97B02321170197C02321170597C06321170997C02321170D97C01321170197D01321170597D02321170997D02321170D97D02321170197EEA
:4016C00006321170597E02321170997E01321170D97E01321170197F02321170597F02321170997F02321170D97F0632117093F820100232117093F821100132117093F8AC
:4017000022100132117093F823100232117093F824100232117093F825100232117093F82F30012B06D1A2F5B852183A137843F008031370704700BF9081FF1F005A0040FC
:4017400008B5234B1B7813F0010F12D0214B012283F82620204A127802F00F0283F827201E4A1278C2F3801283F82B20FFF7FCFD03E00022174B83F82620154B1B7813F0A1
:40178000020F10D0134B012283F82820124A1278120983F82920114A1278D20983F82C20FFF7FAFD03E000220A4B83F82820084B1B7813F0040F06D00122064B83F82A2093
:4017C000FFF728FE08BD0022024B83F82A2008BDF54600409081FF1FF4460040F746004010B51E4B1B7813F0040F04D01B4A137803F0FB0313700120FFF7EAFC184B187077
:4018000018490A78C2F340025A700A78C2F380029A70154B1B7813F0100F08D10022104BDA70114A137843F01003137002E001220B4BDA70FFF784FFFFF728FE0B480278D6
:40184000074BDA710A490A781A720A4A14785C72FF230370B0200870137010BD314300409081FF1F004300408346004085460040864600408A46004008B5104B93F8263000
:40188000012B06D10D4B93F8271093F82B00FFF7E9FC0A4B93F82830012B06D1074B93F8291093F82C00FFF71FFD044B93F82A30012B01D1FFF784FD08BD00BF9081FF1F04
:4018C00010B5FFF7D9FFFFF7CFFE114B5B78012B01D1FFF76DFC0E4B9B78012B01D1FFF76FFC0B4C2078FFF773FCE37823B9094A137803F0EF031370054BD979064A1170F7
:40190000197A013211705A7A044B1A7010BD00BF9081FF1F83460040854600408A46004038B50C4610B10020FFF764FC124D2A78124B1A71C4F307122A70114802785A716D
:4019400004F00F0202700F490A789A71C4F300340C700D4C227802F0F80242F001022270227800BF00BF30BF1A792A705A7902709B790B7038BD00BF984300409081FF1FF8
:40198000994300409A4300409343004038B5044600F0F6FD0546334B1B7813F0080F22D1314A137803F01F031370FFF719FF2F490B782F4A1371C4F3071303F00403DBB259
:4019C0000B702C4B1978517104F00F041C7001331978917100221A70A3F5CD731B7813F0070F03D007E000F0CFFD38BD0122204B83F82E200DE01E49002381F82E301E4B9F
:401A00001A7802F0070281F82D201A7802F0F8021A70144A137803F0F80343F004031370137800BF00BF30BF114B93F82E30012B08D011490B780E4A92F82D2003F0F8037C
:401A400013430B70FFF73CFF094B1979074A11705979013211709A79084B1A70284600F093FD38BD9343004083460040984300409081FF1F99430040004200409A4300402F
:401A800008B54020FFF782FF08BD00BF024A137843F08003137070477F640040014B1870704700BF8E640040014B1878704700BF6E64004008B50146014800F069FD08BDDC
:401AC0002C640040024B186820F07F40704700BF4C64004008B50146014800F059FD08BD0C640040034B1B78034B186820F07F40704700BF0C6400404C64004008B501E0DA
:401B0000FFF7E0FFFFF7D0FF10F0080FF8D108BD08B56FF07F40FFF7CDFF6FF07F40FFF7D9FF00F02DFD064A137843F01003137000F02AFDFFF7E2FF0020FFF7AFFF08BDA8
:401B40009E64004008B5054B1B7823B9FFF7E0FF0122024B1A70FFF799FF08BDD381FF1F044A137803F0DF03400100F0200018431070704730510040044A137803F0BF0333
:401B8000800100F0400018431070704730510040024B1878C0F3C000704700BF31510040024B1878C0F30010704700BF31510040034B1B7813F0040FFAD1024B1870704773
:401BC000696400404964004038B5074B1B782BB938BDFFF7EDFF0134A4B201E005460024285D0028F5D138BDD481FF1F024A137843F080031370704774640040024A1378F2
:401C000003F07F031370704774640040014B1870704700BF85640040014B1878704700BF65640040014B1880704700BF48680040014B188880B2704788680040014B1880DC
:401C4000704700BF0868004008B501E0FFF7F0FFFFF7E2FF10F0080FF8D108BD08B540F2E730FFF7DFFF40F2E730FFF7E7FF00F087FC064A137843F01003137000F084FCB9
:401C8000FFF7E2FF0120FFF7C1FF08BD9564004008B5054B1B7823B9FFF7E0FF0122024B1A70FFF7A3FF08BDD681FF1F014B1B685864704708ED00E04001C0B2014B1870BD
:401CC000704700BF01E400E00222014B1A60704700E100E00222014B1A60704780E100E010B50446FFF7F6FF2046FFF7DFFF0420FFF7E2FFFFF7E8FF10BD00BF08B50A28DE
:401D00000FD00C2802D0082806D102E04FF4805209E04FF4807206E00020FFF76BFA002201E04FF480620021094B198042F2107303FB02F303F6C413064A82FB0302DB17CD
:401D4000C3EBE223044A1360044B198008BD00BFD283FF1FAD8BDB68CC83FF1FD083FF1F10B500F00DFC04461E4A137843F0010313701032137843F0010313701A3A13789C
:401D800043F0010313701032137843F00103137002F5AA521232137843F0030313701822114B1A70013B1A7842F040021A701A7802F0FC021A70C822053B1A700222A3F5FC
:401DC00097530C3B1A70094A137843F0080313700A20FFF727FA4022054B1A60204600F0D3FB10BDAB43004006590040275B004080E200E010B504460A280DD00C2802D036
:401E0000082804D101E0C22207E0422205E00020FFF7F0F9C22200E08222034B1A702046FFF76CFF10BD00BF0259004008B5102000F050F807210620FFF710FB0749062091
:401E4000FFF7F8FA064A137843F0060313700C20FFF7D0FF0022034B1A8008BDD11E000001590040D483FF1F08B5054B1B7823B9FFF7DCFF0122024B1A70FFF771FF08BDB0
:401E8000D781FF1F024A137843F00103137070470059004010B5074B1B7813F0010401D10028F8D024B10120FFF7BCF9014B1B78204610BD01590040034B188880B2034B9C
:401EC0001B88C01A00B27047A05B0040D083FF1F704700BF034B1A7800F0F80010431870704700BF02410040014B1B681864704708ED00E04001C0B2014B1870704700BF6A
:401F000000E400E00122014B1A60704700E100E00122014B1A60704780E100E010B50446FFF7F6FF2046FFF7DFFF0120FFF7E2FFFFF7E8FF10BD00BF024A137843F0800379
:401F40001370704774650040024A137803F07F031370704774650040014B1870704700BF85650040014B1878704700BF65650040014B1880704700BF486A0040014B188867
:401F800080B27047886A0040014B1880704700BF086A004008B501E0FFF7F0FFFFF7E2FF10F0080FF8D108BD08B541F64B50FFF7DFFF41F64B50FFF7E7FF00F0E1FA064ACF
:401FC000137843F01003137000F0DEFAFFF7E2FF0120FFF7C1FF08BD9565004008B5054B1B7823B9FFF7E0FF0122024B1A70FFF7A3FF08BDD881FF1F014B1B68D864704737
:4020000008ED00E04001C0B2014B1870704700BF03E400E00822014B1A60704700E100E00822014B1A60704780E100E010B50446FFF7F6FF2046FFF7DFFF0320FFF7E2FF89
:40204000FFF7E8FF10BD00BF024A137843F080031370704776650040024A137803F07F031370704776650040014B1870704700BF87650040014B1878704700BF67650040A0
:40208000014B1880704700BF4C6A0040014B188880B270478C6A0040014B1880704700BF0C6A004008B501E0FFF7F0FFFFF7E2FF10F0080FF8D108BD08B541F64B50FFF731
:4020C000DFFF41F64B50FFF7E7FF00F059FA064A137843F01003137000F056FAFFF7E2FF0120FFF7C1FF08BD9765004008B5054B1B7823B9FFF7E0FF0122024B1A70FFF73D
:40210000A3FF08BDD981FF1F014B1B689864704708ED00E04001C0B2014B1870704700BF02E400E00422014B1A60704700E100E00422014B1A60704780E100E010B504464F
:40214000FFF7F6FF2046FFF7DFFF0320FFF7E2FFFFF7E8FF10BD00BF044A137803F07F03C001C0B218431070704700BF20510040044A137803F0BF03800100F040001843BA
:402180001070704720510040024B1878C0F34010704700BF21510040044A137803F0EF03000100F0100018431070704720510040044A137803F0F703C00000F00800184354
:4021C0001070704720510040024B187800F00100704700BF2151004008B50A280FD00C2802D0082806D102E04FF4805209E04FF4807206E00020FEF7FDFF002201E04FF4D4
:4022000080620021094B198042F2107303FB02F303F6C413064A82FB0302DB17C3EBE223044A1360044B198008BD00BFE283FF1FAD8BDB68DC83FF1FE083FF1F10B500F0DF
:402240009FF904461E4A137843F0020313701032137843F0020313701A3A137843F0020313701032137843F00203137002F5AA521A32137843F0030313701822114B1A707E
:40228000013B1A7842F040021A701A7802F0FC021A70C822053B1A700222A3F59753123B1A70094A137843F0080313700A20FEF7B9FF8022054B1A60204600F065F910BDB2
:4022C000AB4300400E5900402F5B004080E200E010B504460A280DD00C2802D0082804D101E0C22207E0422205E00020FEF782FFC22200E08222034B1A702046FFF76CFF42
:4023000010BD00BF0A59004008B5102000F05CF807210846FFF7A2F807490720FFF78AF8064A137843F0060313700C20FFF7D0FF0022034B1A8008BDAD230000095900407C
:40234000D883FF1F08B5054B1B7823B9FFF7DCFF0122024B1A70FFF771FF08BDDA81FF1F024A137843F00103137070470859004010B5074B1B7813F0010401D10028F8D09C
:4023800024B10120FEF74EFF014B1B78204610BD09590040034B188880B2034B1B88C01A00B27047A25B0040E083FF1F704700BF044A137803F07F03C001C0B2184310704D
:4023C000704700BF10510040034B1A7800F0F80010431870704700BF06410040044A137803F07F03C001C0B218431070704700BF3051004008B500F0C3F80B4A137843F018
:4024000020031370FC32137843F010031370A2F58072137843F01003137000F0B5F84FF48072024B1A6008BD9C64004000E100E0014B1878704700BF68650040014B1878FD
:40244000704700BF68640040014B1870704700BF0B640040014B1878704700BF5B64004008B501E00A4B1B780A4B1B7813F0080FF8D100F085F8084B1A7842F003021A702C
:402480001A7802F0FC021A7000F07EF808BD00BF5B640040686400409B64004008B507220D4B1A704FF480720C4B1A600C490820FEF7C0FF00210820FEF7D0FFFFF7D0FF0B
:4024C000FFF7B6FFFFF7BAFF0022064B1A700822A3F580731A7008BD8C64004080E100E0052500008865004008B5054B1B7823B9FFF7D4FF0122024B1A70FFF77BFF08BD45
:40250000DB81FF1F704700BF014B1B685865704708ED00E04001C0B2014B1870704700BF05E400E02022014B1A60704700E100E02022014B1A60704780E100E010B504463E
:40254000FFF7F6FF2046FFF7DFFF0020FFF7E2FFFFF7E8FF10BD00BF044A137803F07F03C001C0B218431070704700BF005100400230800803D000BF01380046FCD1704724
:40258000EFF3108072B6704780F31088704700BFCBB20370C1F307234370C1F307418170704700BFF8B5C1F30A56A6F2FF35132D0A460B460446864611DC002D2EDB0F4669
:4025C0001F4929410A4225D04FF400232B413B4423EA01030026194634462046F8BD332D05DDB5F5806F1FD011462046F8BDA6F213464FF0FF3121FA06F63042F4D0012240
:40260000C5F1330502FA05F52D1828BF9B1825EA0606E0E70028D7D11146E6E7013501F0004307D00026D6E702460B4600F010F80446D2E743F07F5343F440130026CAE7E3
:40264000FFFF0F0081F0004102E000BF83F0004330B54FEA41044FEA430594EA050F08BF90EA020F1FBF54EA000C55EA020C7FEA645C7FEA655C00F0E2804FEA5454D4EBC2
:402680005555B8BF6D420CDD2C4480EA020281EA030382EA000083EA010180EA020281EA0303362D88BF30BD11F0004F4FEA01314FF4801C4CEA113102D0404261EB4101CD
:4026C00013F0004F4FEA03334CEA133302D0524263EB430394EA050F00F0A780A4F10104D5F1200E0DDB02FA0EFC22FA05F2801841F1000103FA0EF2801843FA05F359413C
:402700000EE0A5F120050EF1200E012A03FA0EFC28BF4CF0020C43FA05F3C01851EBE37101F0004507D54FF0000EDCF1000C7EEB00006EEB0101B1F5801F1BD3B1F5001FCF
:402740000CD349085FEA30004FEA3C0C04F101044FEA445212F5800F80F09A80BCF1004F08BF5FEA500C50F1000041EB045141EA050130BD5FEA4C0C404141EB010111F4A9
:40278000801FA4F10104E9D191F0000F04BF01460020B1FA81F308BF2033A3F10B03B3F120020CDA0C3208DD02F1140CC2F10C0201FA0CF021FA02F10CE002F11402D8BF5D
:4027C000C2F1200C01FA02F120FA0CFCDCBF41EA0C019040E41AA2BF01EB0451294330BD6FEA04041F3C1CDA0C340EDC04F11404C4F1200220FA04F001FA02F340EA030063
:4028000021FA04F345EA030130BDC4F10C04C4F1200220FA02F001FA04F340EA0300294630BD21FA04F0294630BD94F0000F83F4801306BF81F480110134013D4EE77FEA5F
:40284000645C18BF7FEA655C29D094EA050F08BF90EA020F05D054EA000C04BF1946104630BD91EA030F1EBF0021002030BD5FEA545C05D14000494128BF41F0004130BDBF
:4028800014F580043CBF01F5801130BD01F0004545F0FE4141F470014FF0000030BD7FEA645C1ABF194610467FEA655C1CBF0B46024650EA013406BF52EA033591EA030F16
:4028C00041F4002130BD00BF90F0000F04BF0021704730B54FF4806404F132044FF000054FF0000150E700BF90F0000F04BF0021704730B54FF4806404F1320410F0004555
:4029000048BF40424FF000013EE700BF42004FEAE2014FEA31014FEA02701FBF12F07F4393F07F4F81F06051704792F0000F14BF93F07F4F704730B54FF4607401F000450C
:4029400021F0004120E700BF50EA010208BF704730B54FF000050AE050EA010208BF704730B511F0004502D5404261EB41014FF4806404F132045FEA915C3FF4DCAE4FF020
:4029800003025FEADC0C18BF03325FEADC0C18BF033202EBDC02C2F1200300FA03FC20FA02F001FA03FE40EA0E0021FA02F11444C1E600BF70B54FF0FF0C4CF4E06C1CEAF1
:4029C00011541DBF1CEA135594EA0C0F95EA0C0F00F0DEF82C4481EA030621EA4C5123EA4C5350EA013518BF52EA033541F4801143F4801338D0A0FB02CE4FF00005E1FB19
:402A000002E506F00042E0FB03E54FF00006E1FB03569CF0000F18BF4EF0010EA4F1FF04B6F5007F64F5407404D25FEA4E0E6D4146EB060642EAC62141EA55514FEAC52044
:402A400040EA5E504FEACE2EB4F1FD0C88BFBCF5E06F1ED8BEF1004F08BF5FEA500E50F1000041EB045170BD06F0004646EA010140EA020081EA0301B4EB5C04C2BFD4EBBB
:402A80000C0541EA045170BD41F480114FF0000E013C00F3AB8014F1360FDEBF002001F0004170BDC4F10004203C35DA0C341BDC04F11404C4F1200500FA05F320FA04F042
:402AC00001FA05F240EA020001F0004221F0004110EBD37021FA04F642EB06015EEA430E08BF20EAD37070BDC4F10C04C4F1200500FA04F320FA05F001FA04F240EA020016
:402B000001F0004110EBD37041F100015EEA430E08BF20EAD37070BDC4F1200500FA05F24EEA020E20FA04F301FA05F243EA020321FA04F001F0004121FA04F220EA020072
:402B400000EBD3705EEA430E08BF20EAD37070BD94F0000F0FD101F00046400041EB010111F4801F08BF013CF7D041EA060195F0000F18BF704703F00046520043EB0303B3
:402B800013F4801F08BF013DF7D043EA0603704794EA0C0F0CEA135518BF95EA0C0F0CD050EA410618BF52EA4306D1D181EA030101F000414FF0000070BD50EA410606BFA0
:402BC0001046194652EA430619D094EA0C0F02D150EA013613D195EA0C0F05D152EA03361CBF104619460AD181EA030101F0004141F0FE4141F470014FF0000070BD41F04D
:402C0000FE4141F4780170BD70B54FF0FF0C4CF4E06C1CEA11541DBF1CEA135594EA0C0F95EA0C0F00F0A7F8A4EB050481EA030E52EA03354FEA013100F088804FEA0333AE
:402C40004FF0805545EA131343EA12634FEA022245EA111545EA10654FEA00260EF000419D4208BF964244F1FD0404F5407402D25B084FEA3202B61A65EB03055B084FEA8C
:402C800032024FF480104FF4002CB6EB020E75EB030E22BFB61A754640EA0C005B084FEA3202B6EB020E75EB030E22BFB61A754640EA5C005B084FEA3202B6EB020E75EB15
:402CC000030E22BFB61A754640EA9C005B084FEA3202B6EB020E75EB030E22BFB61A754640EADC0055EA060E18D04FEA051545EA16754FEA06164FEAC30343EA52734FEA66
:402D0000C2025FEA1C1CC0D111F4801F0BD141EA00014FF000004FF0004CB6E711F4801F04BF01430020B4F1FD0C88BFBCF5E06F3FF6AFAEB5EB030C04BFB6EB020C5FEAEE
:402D4000500C50F1000041EB045170BD0EF0004E4EEA113114EB5C04C2BFD4EB0C0541EA045170BD41F480114FF0000E013C90E645EA060E8DE60CEA135594EA0C0F08BFAB
:402D800095EA0C0F3FF43BAF94EA0C0F0AD150EA01347FF434AF95EA0C0F7FF425AF104619462CE795EA0C0F06D152EA03353FF4FDAE1046194622E750EA410618BF52EA65
:402DC00043067FF4C5AE50EA41047FF40DAF52EA43057FF4EBAE12E74FF0FF3C06E000BF4FF0010C02E000BF4FF0010C4DF804CD4FEA410C7FEA6C5C4FEA430C18BF7FEA80
:402E00006C5C1BD001B050EA410C0CBF52EA430C91EA030F02BF90EA020F0020704710F1000F91EA030F58BF994208BF90422CBFD8176FEAE37040F0010070474FEA410C85
:402E40007FEA6C5C02D150EA013C07D14FEA430C7FEA6C5CD6D152EA033CD3D05DF8040B704700BF8446104662468C461946634600E000BF01B5FFF7B7FF002848BF10F1D4
:402E8000000F01BD4DF808EDFFF7F4FF0CBF012000205DF808FB00BF4DF808EDFFF7EAFF34BF012000205DF808FB00BF4DF808EDFFF7E0FF94BF012000205DF808FB00BFE1
:402EC0004DF808EDFFF7CEFF94BF012000205DF808FB00BF4DF808EDFFF7C4FF34BF012000205DF808FB00BF4FEA410212F5001215D211D56FF47873B3EB625212D94FEAC6
:402F0000C12343F0004343EA505311F0004F23FA02F018BF404270474FF00000704750EA013005D111F0004008BF6FF0004070474FF00000704700BF4A0011D212F5001268
:402F400011D20DD56FF47873B3EB62520ED44FEAC12343F0004343EA505323FA02F070474FF00000704750EA013002D14FF0FF3070474FF0000070474FEA4102B2F1E04350
:402F800024BFB3F5001CDCF1FE5C0DD901F0004C4FEAC0024CEA5070B2F1004F40EB830008BF20F00100704711F0804F21D113F13872BCBF01F00040704741F480114FEA2E
:402FC0005252C2F11802C2F1200C10FA0CF320FA02F018BF40F001004FEAC1234FEAD32303FA0CFC40EA0C0023FA02F34FEA4303CCE77FEA625307D150EA01331EBF4FF019
:40300000FE4040F44000704701F0004040F0FE4040F40000704700BF014B1868704700BF5081FF1F0E4B70B51E460E4C0025E41AA410A54204D056F8253098470135F8E748
:4030400000F05EF8084B094C1E46E41AA4100025A54204D056F8253098470135F8E770BD0C3100000C3100000C3100001431000010B5431E0A44914204D011F8014B03F841
:40308000014FF8E710BD03460244934202D003F8011BFAE77047000000000000436F6D6D616E642072656365697665642066726F6D205350493A200072656164203120645E
:4030C0006F6E65200A0D000072656164203220646F6E65200A0D000040510040300000000140001000140140000800400140000A004C0140000200500140200043000000AF
:40310000F8B500BFF8BC08BC9E4670474D00000049110000F8B500BFF8BC08BC9E4670472900000038310000C880FF1F90000000900200000000000000000000AD03000020
:40314000D50300009D000000B5000000350100000000E02EC05D00001800000000366E01000000000000000000000000000000000000000000000000000000000000000007
:40318000FC300000000000000000000000000000000000000000000000000000000000000000000000000000000000000000000000000000000000000000000000000000E3
:4031C000F080FF1F00000000000000000000000000000000000000000000000000000000000000000000000000000000000000000000000000000000000000000000000041
:40320000000000000000000000000000000000000000000000000000000000000000000000000000000000000000000000000000000000000000000000000000000000008E
:40324000000000000000000000000000000000000000000000000000000000000000000000000000000000000000000000000000000000000000000000000000000000004E
:40328000000000000000000000000000000000000000000000000000000000000000000000000000000000000000000000000000000000000000000000000000000000000E
:4032C00000000000000000000000000000000000000000000000000000000000000000000000000000000000000000000000000000000000000000000000000000000000CE
:020000040003F7
:0200000480007A
:4000000004520040015B00400664004005650040020301403C04014024050140280601401B0701404408014042090140480A0140450B0140560C01402D0D0140220E01406B
:400040000F0F0140371401401815014037160140151701404F1801403C190140311A0140381B014005400140104101400D4201400C430140024601400147014006480140F5
:400080000B490140024C0140084D0140095001400351014000201901618064402F21850D860D8878890F8C078E0D850D870D884789388B728902E2800E01200136013E40D8
:4000C000404149FF4AFF4BFF4F015018528058045A045B045D335F016040624064406540668068806A806C806E8092019701A201B001B101BE01C014C5ECC602C807C9FF20
:40010000CAFFCBFFCD83CE03CF01D018D401D604D804D904DA04DB04DC10DD33DF01E040E240E440E540E680E880EA80EC80EE8000400C010D021302164018021E802740CF
:40014000370841024380440146404D044F01564057805D045E805F01650271028C018F029D02C001C210C418CC40D099D6D0D880E010E240E840EC01030316011E021F02C4
:4001800021012E0134013502360237013E104010410645D046204710482A49FF4AFF4BFF4DA04F0450185405580459045A045B045C115D115F01604062C06440654066C02B
:4001C00068C06AC06CC06EC00F2217401E081F8026502F8037403F0247404F2157115E885F0186109B40AB08B440C2A0C480CA80CC10CE80D010D220D6D0E602EE010304FC
:4002000007060D0121062A0131043302360137013F4554205604580459045B045F018210840785108618870C89108C148D1C8E098F02930395149C079D0C9E089F11A0063A
:40024000A109A209A310A520A60BB001B11FB320B41EBA20BE01BF04C026C101C50EC60CC70BC815C9FFCAFFCBFFCEF0CF44D00CD401D804D904DA04DB04DC22DD22DF0152
:40028000E6C0EA40EB02000601420A0110A0120813101608180C1A401F80220524402608270129062C202F90300831803201382839403C803E0A3F80400441804201468024
:4002C000470149044B20508858025A485B105D0164106680674879017B408740902091409201930C940C98189A0AA061B102B204B704C00DC201C44CCA83CC0BCEDED00C44
:40030000D204D68FD8F0EA40EE010206050306050C060D020E0116021B011E0326012D033103360739023A803F014004464049FF4A074BFF4C404D204EF04F055008580418
:4003400059045A045C025D025F01604061A8624063209501A601A801AB02B201B302B501BE04BF10C004C102C240C403C5CEC60FC7DBC837C9FFCAFFCBFFCC22CEF0CF0C5A
:40038000D08CD110D608D804D904DA24DB04DD08DF01E840E901EAC0EB0100060140058006010A010B2010201610171019401A011F0420402510271429402D2030203504F3
:4003C00038883940406043044512470848204D014F04501053105440560157045D815E2464426520661A7C80885A8D048F0890809408972098809B089C209D409E01A0011D
:40040000A102A210A420A708A880B701C00DC205C464CA28CC44CE0AD0E1D6F0D8F0DE10E010E840010203040502070809020B100E021120120313021C031F3C24032803BC
:400440002F03300131013202353E3E053F10404649FF4AFF4BFF4F01501856025728580459045A045B245C805D895E085F016040624064406540668068806A806C806E8083
:40048000850186038C0C8E038F019001920E960899029E0CA401A606AD01B00FB703B980BA02C046C9FFCAFFCBFFCD83CE03CF01D018D804D904DA04DC22DD09DF01E0403E
:4004C000E240E440E540E680E880EA80EC80EE80004002200601080109800B200E821104171418C01D021E20200221802788280129402F01302032203781388839043E1576
:40050000428046804A084E0864206E976F157C807F089A80A208C085C29DC464CA18CC94CEEAD081D224D840DE3002012A0136013E40404645EC4702481349FF4AFF4BFFEB
:400540004D834E034F015018540158045A045B045D995F016040624064406540668068806A806C806E80D280DB04DD90DF01000212081940428049054A08520859457401FF
:400580007680C008C402D001D204D60B130123013101405449FF4AFF4BFF4F015018528059045A045B045C105D115F016040624064406540668068806A806C806E809301C7
:4005C000AF01B101BF01C051C5ECC720C823C9FFCAFFCBFFCD83CE03CF01D018D401D904DA04DB04DD11DF01E040E240E440E540E680E880EA80EC80EE8021022780290143
:400600002F02330235014302460248024C024F05560257025F85700271018102AB80CA11CC81D011D218D6D0EE02020126013601404649FF4AFF4BFF4F015018528058044D
:400640005A045B045C015D115F016040624064406540668068806A806C806E808201AA01B601BE40C046C5ECC702C813C9FFCAFFCBFFCD83CE03CF01D018D401D804DA0474
:40068000DB04DD11DF01E040E240E440E540E680E880EA80EC80EE80024006401208150819401F804280464049054A084E0851045208594576C0C018C422D081D224D60B92
:4006C000E2200004030804040502080409070D060F01130115071A021B081C0122012401250629012A012B062D042E023004310732013402350838083E103F10402441061B
:400700004205440345EC480349FF4AFF4BFF4C624DA04EF04F41500C5441580459045A045B045C225D025F016640670269106A306B106D106E106F128108833285F895F866
:4007400099A09B4CA550A78DB138B306B5C0B701BF04D418D604D904DB04DC20DD20DF01040A06040E010F0816A017501D031E282129238224042602274028202C042D88AF
:400780002E203008312033203501361839063A043D103E883F024404450A4D104E024F0A5B015C485D20600462806340652067148B408E849040920293149808B482B50440
:4007C000B710C070C2C0C4F0CA72CCE6CEF3D0E0D230D671D84DE220110133013F0459045F01801F811C83E184188508880889188C108FE3920693049407951C961897E20D
:40080000980499249C1F9D60A1FFA402A540A819A9E7AA06AB18AC06AD10B198B21EB31FB401B760BA88BB0ABE10D602D712D804D904DB04DC22DD20DF0105880688074027
:400840000C040D2A0E410F02142017901D081E0920102501260827512C042D802E012F2032013420360837823D023E685E086C0D6D04758876288010851087018C20920218
:40088000940A951496019B829C249D889E889F11A122A320A408A608C0F0C2F0C4E0CAF0CCF1CEF0D640E401EE02331436143B40CCF0CE100320050408803220330834025F
:4008C00037405D028A1097409F14A614C030C240CCF0D68000048D06974099049C029D029F54A624A708A880B720C010EC808442862097409C029F14A624A708A804AB40AD
:40090000E650E820EE801A80C608AA408B40974098409F14A604A70803025840831698409F14AA04AF08C040D480E280EE601F10C6011280700480048E80AF10C408DC0113
:40094000E202000F01010A0A0C050E040F0110071A021C0500FF01FF0203000043B0B000200004008400448080008000000000000000000000000100008B8B0000000000BD
:4009800021D8D800000000001CE1E100010000000E0018010E0018010000000000000000000000000000000000000000000000000000000000000000000000000000000039
:4009C00000000000000000000000000000000000000000000000000000000000000000000000000000000000000000000000000000000000000000000000000000000000F7
:400A000000000000000000000000000000000000000000000000000000000000000000000000000000000000000000000000000000000000000000000000000000000000B6
:400A40000000000000000000000000000000000000000000000000000000000000000000000000000000000000000000000000000000000000000000000000000000000076
:400A80000000000000000000000000000000000000000000000000000000000000000000000000000000000000000000000000000000000000000000000000000000000036
:0200000490006A
:0400000000004005B7
:0200000490105A
:04000000BC90ACAF55
:0200000490303A
:020000006C454D
:0200000490402A
:4000000000000000000000000000000000000000000000000000000000000000000000000000000000000000000000000000000000000000000000000000000000000000C0
:400040000000000000000000000000000000000000000000000000000000000000000000000000000000000000000000000000000000000000000000000000000000000080
:400080000000000000000000000000000000000000000000000000000000000000000000000000000000000000000000000000000000000000000000000000000000000040
:4000C0000000000000000000000000000000000000000000000000000000000000000000000000000000000000000000000000000000000000000000000000000000000000
:0200000490501A
:0C00000000012E16106900012E2C7CAEB1
:00000001FF